{
	"contracts/BuenzliToken.sol": {
		"BuenzliToken": {
			"abi": [
				{
					"inputs": [],
					"stateMutability": "nonpayable",
					"type": "constructor"
				},
				{
					"anonymous": false,
					"inputs": [
						{
							"indexed": true,
							"internalType": "address",
							"name": "owner",
							"type": "address"
						},
						{
							"indexed": true,
							"internalType": "address",
							"name": "spender",
							"type": "address"
						},
						{
							"indexed": false,
							"internalType": "uint256",
							"name": "value",
							"type": "uint256"
						}
					],
					"name": "Approval",
					"type": "event"
				},
				{
					"anonymous": false,
					"inputs": [
						{
							"indexed": true,
							"internalType": "address",
							"name": "from",
							"type": "address"
						},
						{
							"indexed": true,
							"internalType": "address",
							"name": "to",
							"type": "address"
						},
						{
							"indexed": false,
							"internalType": "uint256",
							"name": "value",
							"type": "uint256"
						}
					],
					"name": "Transfer",
					"type": "event"
				},
				{
					"inputs": [],
					"name": "_totalSupply",
					"outputs": [
						{
							"internalType": "uint256",
							"name": "",
							"type": "uint256"
						}
					],
					"stateMutability": "view",
					"type": "function"
				},
				{
					"inputs": [
						{
							"internalType": "address",
							"name": "owner",
							"type": "address"
						},
						{
							"internalType": "address",
							"name": "spender",
							"type": "address"
						}
					],
					"name": "allowance",
					"outputs": [
						{
							"internalType": "uint256",
							"name": "",
							"type": "uint256"
						}
					],
					"stateMutability": "view",
					"type": "function"
				},
				{
					"inputs": [
						{
							"internalType": "address",
							"name": "spender",
							"type": "address"
						},
						{
							"internalType": "uint256",
							"name": "value",
							"type": "uint256"
						}
					],
					"name": "approve",
					"outputs": [
						{
							"internalType": "bool",
							"name": "",
							"type": "bool"
						}
					],
					"stateMutability": "nonpayable",
					"type": "function"
				},
				{
					"inputs": [
						{
							"internalType": "address",
							"name": "owner",
							"type": "address"
						}
					],
					"name": "balanceOf",
					"outputs": [
						{
							"internalType": "uint256",
							"name": "",
							"type": "uint256"
						}
					],
					"stateMutability": "view",
					"type": "function"
				},
				{
					"inputs": [],
					"name": "confirmRename",
					"outputs": [],
					"stateMutability": "nonpayable",
					"type": "function"
				},
				{
					"inputs": [],
					"name": "decimals",
					"outputs": [
						{
							"internalType": "uint8",
							"name": "",
							"type": "uint8"
						}
					],
					"stateMutability": "view",
					"type": "function"
				},
				{
					"inputs": [
						{
							"internalType": "address",
							"name": "spender",
							"type": "address"
						},
						{
							"internalType": "uint256",
							"name": "subtractedValue",
							"type": "uint256"
						}
					],
					"name": "decreaseAllowance",
					"outputs": [
						{
							"internalType": "bool",
							"name": "",
							"type": "bool"
						}
					],
					"stateMutability": "nonpayable",
					"type": "function"
				},
				{
					"inputs": [],
					"name": "getOwner",
					"outputs": [
						{
							"internalType": "address",
							"name": "",
							"type": "address"
						}
					],
					"stateMutability": "view",
					"type": "function"
				},
				{
					"inputs": [
						{
							"internalType": "address",
							"name": "spender",
							"type": "address"
						},
						{
							"internalType": "uint256",
							"name": "addedValue",
							"type": "uint256"
						}
					],
					"name": "increaseAllowance",
					"outputs": [
						{
							"internalType": "bool",
							"name": "",
							"type": "bool"
						}
					],
					"stateMutability": "nonpayable",
					"type": "function"
				},
				{
					"inputs": [],
					"name": "name",
					"outputs": [
						{
							"internalType": "string",
							"name": "",
							"type": "string"
						}
					],
					"stateMutability": "view",
					"type": "function"
				},
				{
					"inputs": [
						{
							"internalType": "string",
							"name": "newName",
							"type": "string"
						}
					],
					"name": "renameToken",
					"outputs": [],
					"stateMutability": "nonpayable",
					"type": "function"
				},
				{
					"inputs": [],
					"name": "symbol",
					"outputs": [
						{
							"internalType": "string",
							"name": "",
							"type": "string"
						}
					],
					"stateMutability": "view",
					"type": "function"
				},
				{
					"inputs": [],
					"name": "totalSupply",
					"outputs": [
						{
							"internalType": "uint256",
							"name": "",
							"type": "uint256"
						}
					],
					"stateMutability": "pure",
					"type": "function"
				},
				{
					"inputs": [
						{
							"internalType": "address",
							"name": "to",
							"type": "address"
						},
						{
							"internalType": "uint256",
							"name": "value",
							"type": "uint256"
						}
					],
					"name": "transfer",
					"outputs": [
						{
							"internalType": "bool",
							"name": "",
							"type": "bool"
						}
					],
					"stateMutability": "nonpayable",
					"type": "function"
				},
				{
					"inputs": [
						{
							"internalType": "address",
							"name": "from",
							"type": "address"
						},
						{
							"internalType": "address",
							"name": "to",
							"type": "address"
						},
						{
							"internalType": "uint256",
							"name": "value",
							"type": "uint256"
						}
					],
					"name": "transferFrom",
					"outputs": [
						{
							"internalType": "bool",
							"name": "",
							"type": "bool"
						}
					],
					"stateMutability": "nonpayable",
					"type": "function"
				}
			],
			"devdoc": {
				"kind": "dev",
				"methods": {},
				"version": 1
			},
			"evm": {
				"assembly": "    /* \"contracts/BuenzliToken.sol\":127:3854  contract BuenzliToken is IERC20 {... */\n  mstore(0x40, 0x80)\n    /* \"contracts/BuenzliToken.sol\":249:285  string public name = 'Buenzli Token' */\n  mload(0x40)\n  dup1\n  0x40\n  add\n  0x40\n  mstore\n  dup1\n  0x0d\n  dup2\n  mstore\n  0x20\n  add\n  0x4275656e7a6c6920546f6b656e00000000000000000000000000000000000000\n  dup2\n  mstore\n  pop\n  0x00\n  swap1\n  dup1\n  mload\n  swap1\n  0x20\n  add\n  swap1\n  tag_1\n  swap3\n  swap2\n  swap1\n  tag_2\n  jump\t// in\ntag_1:\n  pop\n    /* \"contracts/BuenzliToken.sol\":591:750  constructor () {... */\n  callvalue\n  dup1\n  iszero\n  tag_3\n  jumpi\n  0x00\n  dup1\n  revert\ntag_3:\n  pop\n    /* \"contracts/BuenzliToken.sol\":625:635  msg.sender */\n  caller\n    /* \"contracts/BuenzliToken.sol\":616:622  _owner */\n  0x03\n  0x00\n    /* \"contracts/BuenzliToken.sol\":616:635  _owner = msg.sender */\n  0x0100\n  exp\n  dup2\n  sload\n  dup2\n  0xffffffffffffffffffffffffffffffffffffffff\n  mul\n  not\n  and\n  swap1\n  dup4\n  0xffffffffffffffffffffffffffffffffffffffff\n  and\n  mul\n  or\n  swap1\n  sstore\n  pop\n    /* \"contracts/BuenzliToken.sol\":237:243  10**13 */\n  0x09184e72a000\n    /* \"contracts/BuenzliToken.sol\":645:654  _balances */\n  0x01\n    /* \"contracts/BuenzliToken.sol\":645:666  _balances[msg.sender] */\n  0x00\n    /* \"contracts/BuenzliToken.sol\":655:665  msg.sender */\n  caller\n    /* \"contracts/BuenzliToken.sol\":645:666  _balances[msg.sender] */\n  0xffffffffffffffffffffffffffffffffffffffff\n  and\n  0xffffffffffffffffffffffffffffffffffffffff\n  and\n  dup2\n  mstore\n  0x20\n  add\n  swap1\n  dup2\n  mstore\n  0x20\n  add\n  0x00\n  keccak256\n    /* \"contracts/BuenzliToken.sol\":645:681  _balances[msg.sender] = _totalSupply */\n  dup2\n  swap1\n  sstore\n  pop\n    /* \"contracts/BuenzliToken.sol\":717:727  msg.sender */\n  caller\n    /* \"contracts/BuenzliToken.sol\":696:743  Transfer(address(0), msg.sender , _totalSupply) */\n  0xffffffffffffffffffffffffffffffffffffffff\n  and\n    /* \"contracts/BuenzliToken.sol\":713:714  0 */\n  0x00\n    /* \"contracts/BuenzliToken.sol\":696:743  Transfer(address(0), msg.sender , _totalSupply) */\n  0xffffffffffffffffffffffffffffffffffffffff\n  and\n  0xddf252ad1be2c89b69c2b068fc378daa952ba7f163c4a11628f55a4df523b3ef\n    /* \"contracts/BuenzliToken.sol\":237:243  10**13 */\n  0x09184e72a000\n    /* \"contracts/BuenzliToken.sol\":696:743  Transfer(address(0), msg.sender , _totalSupply) */\n  mload(0x40)\n  tag_6\n  swap2\n  swap1\n  tag_7\n  jump\t// in\ntag_6:\n  mload(0x40)\n  dup1\n  swap2\n  sub\n  swap1\n  log3\n    /* \"contracts/BuenzliToken.sol\":127:3854  contract BuenzliToken is IERC20 {... */\n  jump(tag_8)\ntag_2:\n  dup3\n  dup1\n  sload\n  tag_9\n  swap1\n  tag_10\n  jump\t// in\ntag_9:\n  swap1\n  0x00\n  mstore\n  keccak256(0x00, 0x20)\n  swap1\n  0x1f\n  add\n  0x20\n  swap1\n  div\n  dup2\n  add\n  swap3\n  dup3\n  tag_12\n  jumpi\n  0x00\n  dup6\n  sstore\n  jump(tag_11)\ntag_12:\n  dup3\n  0x1f\n  lt\n  tag_13\n  jumpi\n  dup1\n  mload\n  not(0xff)\n  and\n  dup4\n  dup1\n  add\n  or\n  dup6\n  sstore\n  jump(tag_11)\ntag_13:\n  dup3\n  dup1\n  add\n  0x01\n  add\n  dup6\n  sstore\n  dup3\n  iszero\n  tag_11\n  jumpi\n  swap2\n  dup3\n  add\ntag_14:\n  dup3\n  dup2\n  gt\n  iszero\n  tag_15\n  jumpi\n  dup3\n  mload\n  dup3\n  sstore\n  swap2\n  0x20\n  add\n  swap2\n  swap1\n  0x01\n  add\n  swap1\n  jump(tag_14)\ntag_15:\ntag_11:\n  pop\n  swap1\n  pop\n  tag_16\n  swap2\n  swap1\n  tag_17\n  jump\t// in\ntag_16:\n  pop\n  swap1\n  jump\t// out\ntag_17:\ntag_18:\n  dup1\n  dup3\n  gt\n  iszero\n  tag_19\n  jumpi\n  0x00\n  dup2\n  0x00\n  swap1\n  sstore\n  pop\n  0x01\n  add\n  jump(tag_18)\ntag_19:\n  pop\n  swap1\n  jump\t// out\n    /* \"#utility.yul\":7:84   */\ntag_20:\n    /* \"#utility.yul\":44:51   */\n  0x00\n    /* \"#utility.yul\":73:78   */\n  dup2\n    /* \"#utility.yul\":62:78   */\n  swap1\n  pop\n    /* \"#utility.yul\":7:84   */\n  swap2\n  swap1\n  pop\n  jump\t// out\n    /* \"#utility.yul\":90:208   */\ntag_21:\n    /* \"#utility.yul\":177:201   */\n  tag_26\n    /* \"#utility.yul\":195:200   */\n  dup2\n    /* \"#utility.yul\":177:201   */\n  tag_20\n  jump\t// in\ntag_26:\n    /* \"#utility.yul\":172:175   */\n  dup3\n    /* \"#utility.yul\":165:202   */\n  mstore\n    /* \"#utility.yul\":90:208   */\n  pop\n  pop\n  jump\t// out\n    /* \"#utility.yul\":214:436   */\ntag_7:\n    /* \"#utility.yul\":307:311   */\n  0x00\n    /* \"#utility.yul\":345:347   */\n  0x20\n    /* \"#utility.yul\":334:343   */\n  dup3\n    /* \"#utility.yul\":330:348   */\n  add\n    /* \"#utility.yul\":322:348   */\n  swap1\n  pop\n    /* \"#utility.yul\":358:429   */\n  tag_28\n    /* \"#utility.yul\":426:427   */\n  0x00\n    /* \"#utility.yul\":415:424   */\n  dup4\n    /* \"#utility.yul\":411:428   */\n  add\n    /* \"#utility.yul\":402:408   */\n  dup5\n    /* \"#utility.yul\":358:429   */\n  tag_21\n  jump\t// in\ntag_28:\n    /* \"#utility.yul\":214:436   */\n  swap3\n  swap2\n  pop\n  pop\n  jump\t// out\n    /* \"#utility.yul\":442:622   */\ntag_22:\n    /* \"#utility.yul\":490:567   */\n  0x4e487b7100000000000000000000000000000000000000000000000000000000\n    /* \"#utility.yul\":487:488   */\n  0x00\n    /* \"#utility.yul\":480:568   */\n  mstore\n    /* \"#utility.yul\":587:591   */\n  0x22\n    /* \"#utility.yul\":584:585   */\n  0x04\n    /* \"#utility.yul\":577:592   */\n  mstore\n    /* \"#utility.yul\":611:615   */\n  0x24\n    /* \"#utility.yul\":608:609   */\n  0x00\n    /* \"#utility.yul\":601:616   */\n  revert\n    /* \"#utility.yul\":628:948   */\ntag_10:\n    /* \"#utility.yul\":672:678   */\n  0x00\n    /* \"#utility.yul\":709:710   */\n  0x02\n    /* \"#utility.yul\":703:707   */\n  dup3\n    /* \"#utility.yul\":699:711   */\n  div\n    /* \"#utility.yul\":689:711   */\n  swap1\n  pop\n    /* \"#utility.yul\":756:757   */\n  0x01\n    /* \"#utility.yul\":750:754   */\n  dup3\n    /* \"#utility.yul\":746:758   */\n  and\n    /* \"#utility.yul\":777:795   */\n  dup1\n    /* \"#utility.yul\":767:848   */\n  tag_31\n  jumpi\n    /* \"#utility.yul\":833:837   */\n  0x7f\n    /* \"#utility.yul\":825:831   */\n  dup3\n    /* \"#utility.yul\":821:838   */\n  and\n    /* \"#utility.yul\":811:838   */\n  swap2\n  pop\n    /* \"#utility.yul\":767:848   */\ntag_31:\n    /* \"#utility.yul\":895:897   */\n  0x20\n    /* \"#utility.yul\":887:893   */\n  dup3\n    /* \"#utility.yul\":884:898   */\n  lt\n    /* \"#utility.yul\":864:882   */\n  dup2\n    /* \"#utility.yul\":861:899   */\n  eq\n    /* \"#utility.yul\":858:942   */\n  iszero\n  tag_32\n  jumpi\n    /* \"#utility.yul\":914:932   */\n  tag_33\n  tag_22\n  jump\t// in\ntag_33:\n    /* \"#utility.yul\":858:942   */\ntag_32:\n    /* \"#utility.yul\":679:948   */\n  pop\n    /* \"#utility.yul\":628:948   */\n  swap2\n  swap1\n  pop\n  jump\t// out\n    /* \"contracts/BuenzliToken.sol\":127:3854  contract BuenzliToken is IERC20 {... */\ntag_8:\n  dataSize(sub_0)\n  dup1\n  dataOffset(sub_0)\n  0x00\n  codecopy\n  0x00\n  return\nstop\n\nsub_0: assembly {\n        /* \"contracts/BuenzliToken.sol\":127:3854  contract BuenzliToken is IERC20 {... */\n      mstore(0x40, 0x80)\n      callvalue\n      dup1\n      iszero\n      tag_1\n      jumpi\n      0x00\n      dup1\n      revert\n    tag_1:\n      pop\n      jumpi(tag_2, lt(calldatasize, 0x04))\n      shr(0xe0, calldataload(0x00))\n      dup1\n      0x70a08231\n      gt\n      tag_18\n      jumpi\n      dup1\n      0xa457c2d7\n      gt\n      tag_19\n      jumpi\n      dup1\n      0xa457c2d7\n      eq\n      tag_14\n      jumpi\n      dup1\n      0xa9059cbb\n      eq\n      tag_15\n      jumpi\n      dup1\n      0xdd62ed3e\n      eq\n      tag_16\n      jumpi\n      dup1\n      0xf8cf9419\n      eq\n      tag_17\n      jumpi\n      jump(tag_2)\n    tag_19:\n      dup1\n      0x70a08231\n      eq\n      tag_10\n      jumpi\n      dup1\n      0x893d20e8\n      eq\n      tag_11\n      jumpi\n      dup1\n      0x95d89b41\n      eq\n      tag_12\n      jumpi\n      dup1\n      0x9a3ea2eb\n      eq\n      tag_13\n      jumpi\n      jump(tag_2)\n    tag_18:\n      dup1\n      0x23b872dd\n      gt\n      tag_20\n      jumpi\n      dup1\n      0x23b872dd\n      eq\n      tag_6\n      jumpi\n      dup1\n      0x313ce567\n      eq\n      tag_7\n      jumpi\n      dup1\n      0x39509351\n      eq\n      tag_8\n      jumpi\n      dup1\n      0x3eaaf86b\n      eq\n      tag_9\n      jumpi\n      jump(tag_2)\n    tag_20:\n      dup1\n      0x06fdde03\n      eq\n      tag_3\n      jumpi\n      dup1\n      0x095ea7b3\n      eq\n      tag_4\n      jumpi\n      dup1\n      0x18160ddd\n      eq\n      tag_5\n      jumpi\n    tag_2:\n      0x00\n      dup1\n      revert\n        /* \"contracts/BuenzliToken.sol\":249:285  string public name = 'Buenzli Token' */\n    tag_3:\n      tag_21\n      tag_22\n      jump\t// in\n    tag_21:\n      mload(0x40)\n      tag_23\n      swap2\n      swap1\n      tag_24\n      jump\t// in\n    tag_23:\n      mload(0x40)\n      dup1\n      swap2\n      sub\n      swap1\n      return\n        /* \"contracts/BuenzliToken.sol\":1599:1845  function approve(address spender, uint256 value) public override returns (bool) {... */\n    tag_4:\n      tag_25\n      0x04\n      dup1\n      calldatasize\n      sub\n      dup2\n      add\n      swap1\n      tag_26\n      swap2\n      swap1\n      tag_27\n      jump\t// in\n    tag_26:\n      tag_28\n      jump\t// in\n    tag_25:\n      mload(0x40)\n      tag_29\n      swap2\n      swap1\n      tag_30\n      jump\t// in\n    tag_29:\n      mload(0x40)\n      dup1\n      swap2\n      sub\n      swap1\n      return\n        /* \"contracts/BuenzliToken.sol\":756:856  function totalSupply() external override pure returns (uint256) {... */\n    tag_5:\n      tag_31\n      tag_32\n      jump\t// in\n    tag_31:\n      mload(0x40)\n      tag_33\n      swap2\n      swap1\n      tag_34\n      jump\t// in\n    tag_33:\n      mload(0x40)\n      dup1\n      swap2\n      sub\n      swap1\n      return\n        /* \"contracts/BuenzliToken.sol\":2073:2545  function transferFrom(address from, address to, uint256 value) public override returns (bool) {... */\n    tag_6:\n      tag_35\n      0x04\n      dup1\n      calldatasize\n      sub\n      dup2\n      add\n      swap1\n      tag_36\n      swap2\n      swap1\n      tag_37\n      jump\t// in\n    tag_36:\n      tag_38\n      jump\t// in\n    tag_35:\n      mload(0x40)\n      tag_39\n      swap2\n      swap1\n      tag_30\n      jump\t// in\n    tag_39:\n      mload(0x40)\n      dup1\n      swap2\n      sub\n      swap1\n      return\n        /* \"contracts/BuenzliToken.sol\":291:326  uint8 public constant decimals = 10 */\n    tag_7:\n      tag_40\n      tag_41\n      jump\t// in\n    tag_40:\n      mload(0x40)\n      tag_42\n      swap2\n      swap1\n      tag_43\n      jump\t// in\n    tag_42:\n      mload(0x40)\n      dup1\n      swap2\n      sub\n      swap1\n      return\n        /* \"contracts/BuenzliToken.sol\":2551:2868  function increaseAllowance(address spender, uint256 addedValue) public returns (bool) {... */\n    tag_8:\n      tag_44\n      0x04\n      dup1\n      calldatasize\n      sub\n      dup2\n      add\n      swap1\n      tag_45\n      swap2\n      swap1\n      tag_27\n      jump\t// in\n    tag_45:\n      tag_46\n      jump\t// in\n    tag_44:\n      mload(0x40)\n      tag_47\n      swap2\n      swap1\n      tag_30\n      jump\t// in\n    tag_47:\n      mload(0x40)\n      dup1\n      swap2\n      sub\n      swap1\n      return\n        /* \"contracts/BuenzliToken.sol\":198:243  uint256 public constant _totalSupply = 10**13 */\n    tag_9:\n      tag_48\n      tag_49\n      jump\t// in\n    tag_48:\n      mload(0x40)\n      tag_50\n      swap2\n      swap1\n      tag_34\n      jump\t// in\n    tag_50:\n      mload(0x40)\n      dup1\n      swap2\n      sub\n      swap1\n      return\n        /* \"contracts/BuenzliToken.sol\":862:975  function balanceOf(address owner) public override view returns (uint256) {... */\n    tag_10:\n      tag_51\n      0x04\n      dup1\n      calldatasize\n      sub\n      dup2\n      add\n      swap1\n      tag_52\n      swap2\n      swap1\n      tag_53\n      jump\t// in\n    tag_52:\n      tag_54\n      jump\t// in\n    tag_51:\n      mload(0x40)\n      tag_55\n      swap2\n      swap1\n      tag_34\n      jump\t// in\n    tag_55:\n      mload(0x40)\n      dup1\n      swap2\n      sub\n      swap1\n      return\n        /* \"contracts/BuenzliToken.sol\":3207:3287  function getOwner() public view returns (address) {... */\n    tag_11:\n      tag_56\n      tag_57\n      jump\t// in\n    tag_56:\n      mload(0x40)\n      tag_58\n      swap2\n      swap1\n      tag_59\n      jump\t// in\n    tag_58:\n      mload(0x40)\n      dup1\n      swap2\n      sub\n      swap1\n      return\n        /* \"contracts/BuenzliToken.sol\":332:371  string public constant symbol = 'BUENZ' */\n    tag_12:\n      tag_60\n      tag_61\n      jump\t// in\n    tag_60:\n      mload(0x40)\n      tag_62\n      swap2\n      swap1\n      tag_24\n      jump\t// in\n    tag_62:\n      mload(0x40)\n      dup1\n      swap2\n      sub\n      swap1\n      return\n        /* \"contracts/BuenzliToken.sol\":3293:3573  function renameToken(string memory newName) public {... */\n    tag_13:\n      tag_63\n      0x04\n      dup1\n      calldatasize\n      sub\n      dup2\n      add\n      swap1\n      tag_64\n      swap2\n      swap1\n      tag_65\n      jump\t// in\n    tag_64:\n      tag_66\n      jump\t// in\n    tag_63:\n      stop\n        /* \"contracts/BuenzliToken.sol\":2874:3201  function decreaseAllowance(address spender, uint256 subtractedValue) public returns (bool) {... */\n    tag_14:\n      tag_67\n      0x04\n      dup1\n      calldatasize\n      sub\n      dup2\n      add\n      swap1\n      tag_68\n      swap2\n      swap1\n      tag_27\n      jump\t// in\n    tag_68:\n      tag_69\n      jump\t// in\n    tag_67:\n      mload(0x40)\n      tag_70\n      swap2\n      swap1\n      tag_30\n      jump\t// in\n    tag_70:\n      mload(0x40)\n      dup1\n      swap2\n      sub\n      swap1\n      return\n        /* \"contracts/BuenzliToken.sol\":1124:1593  function transfer(address to, uint256 value) public override returns (bool) {... */\n    tag_15:\n      tag_71\n      0x04\n      dup1\n      calldatasize\n      sub\n      dup2\n      add\n      swap1\n      tag_72\n      swap2\n      swap1\n      tag_27\n      jump\t// in\n    tag_72:\n      tag_73\n      jump\t// in\n    tag_71:\n      mload(0x40)\n      tag_74\n      swap2\n      swap1\n      tag_30\n      jump\t// in\n    tag_74:\n      mload(0x40)\n      dup1\n      swap2\n      sub\n      swap1\n      return\n        /* \"contracts/BuenzliToken.sol\":981:1118  function allowance(address owner,address spender) public override view returns (uint256) {... */\n    tag_16:\n      tag_75\n      0x04\n      dup1\n      calldatasize\n      sub\n      dup2\n      add\n      swap1\n      tag_76\n      swap2\n      swap1\n      tag_77\n      jump\t// in\n    tag_76:\n      tag_78\n      jump\t// in\n    tag_75:\n      mload(0x40)\n      tag_79\n      swap2\n      swap1\n      tag_34\n      jump\t// in\n    tag_79:\n      mload(0x40)\n      dup1\n      swap2\n      sub\n      swap1\n      return\n        /* \"contracts/BuenzliToken.sol\":3579:3852  function confirmRename() public {... */\n    tag_17:\n      tag_80\n      tag_81\n      jump\t// in\n    tag_80:\n      stop\n        /* \"contracts/BuenzliToken.sol\":249:285  string public name = 'Buenzli Token' */\n    tag_22:\n      0x00\n      dup1\n      sload\n      tag_82\n      swap1\n      tag_83\n      jump\t// in\n    tag_82:\n      dup1\n      0x1f\n      add\n      0x20\n      dup1\n      swap2\n      div\n      mul\n      0x20\n      add\n      mload(0x40)\n      swap1\n      dup2\n      add\n      0x40\n      mstore\n      dup1\n      swap3\n      swap2\n      swap1\n      dup2\n      dup2\n      mstore\n      0x20\n      add\n      dup3\n      dup1\n      sload\n      tag_84\n      swap1\n      tag_83\n      jump\t// in\n    tag_84:\n      dup1\n      iszero\n      tag_85\n      jumpi\n      dup1\n      0x1f\n      lt\n      tag_86\n      jumpi\n      0x0100\n      dup1\n      dup4\n      sload\n      div\n      mul\n      dup4\n      mstore\n      swap2\n      0x20\n      add\n      swap2\n      jump(tag_85)\n    tag_86:\n      dup3\n      add\n      swap2\n      swap1\n      0x00\n      mstore\n      keccak256(0x00, 0x20)\n      swap1\n    tag_87:\n      dup2\n      sload\n      dup2\n      mstore\n      swap1\n      0x01\n      add\n      swap1\n      0x20\n      add\n      dup1\n      dup4\n      gt\n      tag_87\n      jumpi\n      dup3\n      swap1\n      sub\n      0x1f\n      and\n      dup3\n      add\n      swap2\n    tag_85:\n      pop\n      pop\n      pop\n      pop\n      pop\n      dup2\n      jump\t// out\n        /* \"contracts/BuenzliToken.sol\":1599:1845  function approve(address spender, uint256 value) public override returns (bool) {... */\n    tag_28:\n        /* \"contracts/BuenzliToken.sol\":1673:1677  bool */\n      0x00\n        /* \"contracts/BuenzliToken.sol\":1716:1717  0 */\n      dup1\n        /* \"contracts/BuenzliToken.sol\":1697:1718  spender != address(0) */\n      0xffffffffffffffffffffffffffffffffffffffff\n      and\n        /* \"contracts/BuenzliToken.sol\":1697:1704  spender */\n      dup4\n        /* \"contracts/BuenzliToken.sol\":1697:1718  spender != address(0) */\n      0xffffffffffffffffffffffffffffffffffffffff\n      and\n      eq\n      iszero\n        /* \"contracts/BuenzliToken.sol\":1689:1719  require(spender != address(0)) */\n      tag_89\n      jumpi\n      0x00\n      dup1\n      revert\n    tag_89:\n        /* \"contracts/BuenzliToken.sol\":1761:1766  value */\n      dup2\n        /* \"contracts/BuenzliToken.sol\":1729:1737  _allowed */\n      0x02\n        /* \"contracts/BuenzliToken.sol\":1729:1749  _allowed[msg.sender] */\n      0x00\n        /* \"contracts/BuenzliToken.sol\":1738:1748  msg.sender */\n      caller\n        /* \"contracts/BuenzliToken.sol\":1729:1749  _allowed[msg.sender] */\n      0xffffffffffffffffffffffffffffffffffffffff\n      and\n      0xffffffffffffffffffffffffffffffffffffffff\n      and\n      dup2\n      mstore\n      0x20\n      add\n      swap1\n      dup2\n      mstore\n      0x20\n      add\n      0x00\n      keccak256\n        /* \"contracts/BuenzliToken.sol\":1729:1758  _allowed[msg.sender][spender] */\n      0x00\n        /* \"contracts/BuenzliToken.sol\":1750:1757  spender */\n      dup6\n        /* \"contracts/BuenzliToken.sol\":1729:1758  _allowed[msg.sender][spender] */\n      0xffffffffffffffffffffffffffffffffffffffff\n      and\n      0xffffffffffffffffffffffffffffffffffffffff\n      and\n      dup2\n      mstore\n      0x20\n      add\n      swap1\n      dup2\n      mstore\n      0x20\n      add\n      0x00\n      keccak256\n        /* \"contracts/BuenzliToken.sol\":1729:1766  _allowed[msg.sender][spender] = value */\n      dup2\n      swap1\n      sstore\n      pop\n        /* \"contracts/BuenzliToken.sol\":1802:1809  spender */\n      dup3\n        /* \"contracts/BuenzliToken.sol\":1781:1817  Approval(msg.sender, spender, value) */\n      0xffffffffffffffffffffffffffffffffffffffff\n      and\n        /* \"contracts/BuenzliToken.sol\":1790:1800  msg.sender */\n      caller\n        /* \"contracts/BuenzliToken.sol\":1781:1817  Approval(msg.sender, spender, value) */\n      0xffffffffffffffffffffffffffffffffffffffff\n      and\n      0x8c5be1e5ebec7d5bd14f71427d1e84f3dd0314c0f7b2291e5b200ac8c7c3b925\n        /* \"contracts/BuenzliToken.sol\":1811:1816  value */\n      dup5\n        /* \"contracts/BuenzliToken.sol\":1781:1817  Approval(msg.sender, spender, value) */\n      mload(0x40)\n      tag_90\n      swap2\n      swap1\n      tag_34\n      jump\t// in\n    tag_90:\n      mload(0x40)\n      dup1\n      swap2\n      sub\n      swap1\n      log3\n        /* \"contracts/BuenzliToken.sol\":1834:1838  true */\n      0x01\n        /* \"contracts/BuenzliToken.sol\":1827:1838  return true */\n      swap1\n      pop\n        /* \"contracts/BuenzliToken.sol\":1599:1845  function approve(address spender, uint256 value) public override returns (bool) {... */\n      swap3\n      swap2\n      pop\n      pop\n      jump\t// out\n        /* \"contracts/BuenzliToken.sol\":756:856  function totalSupply() external override pure returns (uint256) {... */\n    tag_32:\n        /* \"contracts/BuenzliToken.sol\":811:818  uint256 */\n      0x00\n        /* \"contracts/BuenzliToken.sol\":237:243  10**13 */\n      0x09184e72a000\n        /* \"contracts/BuenzliToken.sol\":830:849  return _totalSupply */\n      swap1\n      pop\n        /* \"contracts/BuenzliToken.sol\":756:856  function totalSupply() external override pure returns (uint256) {... */\n      swap1\n      jump\t// out\n        /* \"contracts/BuenzliToken.sol\":2073:2545  function transferFrom(address from, address to, uint256 value) public override returns (bool) {... */\n    tag_38:\n        /* \"contracts/BuenzliToken.sol\":2161:2165  bool */\n      0x00\n        /* \"contracts/BuenzliToken.sol\":2194:2203  _balances */\n      0x01\n        /* \"contracts/BuenzliToken.sol\":2194:2209  _balances[from] */\n      0x00\n        /* \"contracts/BuenzliToken.sol\":2204:2208  from */\n      dup6\n        /* \"contracts/BuenzliToken.sol\":2194:2209  _balances[from] */\n      0xffffffffffffffffffffffffffffffffffffffff\n      and\n      0xffffffffffffffffffffffffffffffffffffffff\n      and\n      dup2\n      mstore\n      0x20\n      add\n      swap1\n      dup2\n      mstore\n      0x20\n      add\n      0x00\n      keccak256\n      sload\n        /* \"contracts/BuenzliToken.sol\":2185:2190  value */\n      dup3\n        /* \"contracts/BuenzliToken.sol\":2185:2209  value <= _balances[from] */\n      gt\n      iszero\n        /* \"contracts/BuenzliToken.sol\":2177:2210  require(value <= _balances[from]) */\n      tag_93\n      jumpi\n      0x00\n      dup1\n      revert\n    tag_93:\n        /* \"contracts/BuenzliToken.sol\":2237:2245  _allowed */\n      0x02\n        /* \"contracts/BuenzliToken.sol\":2237:2251  _allowed[from] */\n      0x00\n        /* \"contracts/BuenzliToken.sol\":2246:2250  from */\n      dup6\n        /* \"contracts/BuenzliToken.sol\":2237:2251  _allowed[from] */\n      0xffffffffffffffffffffffffffffffffffffffff\n      and\n      0xffffffffffffffffffffffffffffffffffffffff\n      and\n      dup2\n      mstore\n      0x20\n      add\n      swap1\n      dup2\n      mstore\n      0x20\n      add\n      0x00\n      keccak256\n        /* \"contracts/BuenzliToken.sol\":2237:2263  _allowed[from][msg.sender] */\n      0x00\n        /* \"contracts/BuenzliToken.sol\":2252:2262  msg.sender */\n      caller\n        /* \"contracts/BuenzliToken.sol\":2237:2263  _allowed[from][msg.sender] */\n      0xffffffffffffffffffffffffffffffffffffffff\n      and\n      0xffffffffffffffffffffffffffffffffffffffff\n      and\n      dup2\n      mstore\n      0x20\n      add\n      swap1\n      dup2\n      mstore\n      0x20\n      add\n      0x00\n      keccak256\n      sload\n        /* \"contracts/BuenzliToken.sol\":2228:2233  value */\n      dup3\n        /* \"contracts/BuenzliToken.sol\":2228:2263  value <= _allowed[from][msg.sender] */\n      gt\n      iszero\n        /* \"contracts/BuenzliToken.sol\":2220:2264  require(value <= _allowed[from][msg.sender]) */\n      tag_94\n      jumpi\n      0x00\n      dup1\n      revert\n    tag_94:\n        /* \"contracts/BuenzliToken.sol\":2296:2297  0 */\n      0x00\n        /* \"contracts/BuenzliToken.sol\":2282:2298  to != address(0) */\n      0xffffffffffffffffffffffffffffffffffffffff\n      and\n        /* \"contracts/BuenzliToken.sol\":2282:2284  to */\n      dup4\n        /* \"contracts/BuenzliToken.sol\":2282:2298  to != address(0) */\n      0xffffffffffffffffffffffffffffffffffffffff\n      and\n      eq\n      iszero\n        /* \"contracts/BuenzliToken.sol\":2274:2299  require(to != address(0)) */\n      tag_95\n      jumpi\n      0x00\n      dup1\n      revert\n    tag_95:\n        /* \"contracts/BuenzliToken.sol\":2338:2375  _allowed[from][msg.sender].sub(value) */\n      tag_96\n        /* \"contracts/BuenzliToken.sol\":2369:2374  value */\n      dup3\n        /* \"contracts/BuenzliToken.sol\":2338:2346  _allowed */\n      0x02\n        /* \"contracts/BuenzliToken.sol\":2338:2352  _allowed[from] */\n      0x00\n        /* \"contracts/BuenzliToken.sol\":2347:2351  from */\n      dup8\n        /* \"contracts/BuenzliToken.sol\":2338:2352  _allowed[from] */\n      0xffffffffffffffffffffffffffffffffffffffff\n      and\n      0xffffffffffffffffffffffffffffffffffffffff\n      and\n      dup2\n      mstore\n      0x20\n      add\n      swap1\n      dup2\n      mstore\n      0x20\n      add\n      0x00\n      keccak256\n        /* \"contracts/BuenzliToken.sol\":2338:2364  _allowed[from][msg.sender] */\n      0x00\n        /* \"contracts/BuenzliToken.sol\":2353:2363  msg.sender */\n      caller\n        /* \"contracts/BuenzliToken.sol\":2338:2364  _allowed[from][msg.sender] */\n      0xffffffffffffffffffffffffffffffffffffffff\n      and\n      0xffffffffffffffffffffffffffffffffffffffff\n      and\n      dup2\n      mstore\n      0x20\n      add\n      swap1\n      dup2\n      mstore\n      0x20\n      add\n      0x00\n      keccak256\n      sload\n        /* \"contracts/BuenzliToken.sol\":2338:2368  _allowed[from][msg.sender].sub */\n      tag_97\n      swap1\n        /* \"contracts/BuenzliToken.sol\":2338:2375  _allowed[from][msg.sender].sub(value) */\n      swap2\n      swap1\n      0xffffffff\n      and\n      jump\t// in\n    tag_96:\n        /* \"contracts/BuenzliToken.sol\":2309:2317  _allowed */\n      0x02\n        /* \"contracts/BuenzliToken.sol\":2309:2323  _allowed[from] */\n      0x00\n        /* \"contracts/BuenzliToken.sol\":2318:2322  from */\n      dup7\n        /* \"contracts/BuenzliToken.sol\":2309:2323  _allowed[from] */\n      0xffffffffffffffffffffffffffffffffffffffff\n      and\n      0xffffffffffffffffffffffffffffffffffffffff\n      and\n      dup2\n      mstore\n      0x20\n      add\n      swap1\n      dup2\n      mstore\n      0x20\n      add\n      0x00\n      keccak256\n        /* \"contracts/BuenzliToken.sol\":2309:2335  _allowed[from][msg.sender] */\n      0x00\n        /* \"contracts/BuenzliToken.sol\":2324:2334  msg.sender */\n      caller\n        /* \"contracts/BuenzliToken.sol\":2309:2335  _allowed[from][msg.sender] */\n      0xffffffffffffffffffffffffffffffffffffffff\n      and\n      0xffffffffffffffffffffffffffffffffffffffff\n      and\n      dup2\n      mstore\n      0x20\n      add\n      swap1\n      dup2\n      mstore\n      0x20\n      add\n      0x00\n      keccak256\n        /* \"contracts/BuenzliToken.sol\":2309:2375  _allowed[from][msg.sender] = _allowed[from][msg.sender].sub(value) */\n      dup2\n      swap1\n      sstore\n      pop\n        /* \"contracts/BuenzliToken.sol\":2385:2411  _transfer(from, to, value) */\n      tag_98\n        /* \"contracts/BuenzliToken.sol\":2395:2399  from */\n      dup5\n        /* \"contracts/BuenzliToken.sol\":2401:2403  to */\n      dup5\n        /* \"contracts/BuenzliToken.sol\":2405:2410  value */\n      dup5\n        /* \"contracts/BuenzliToken.sol\":2385:2394  _transfer */\n      tag_99\n        /* \"contracts/BuenzliToken.sol\":2385:2411  _transfer(from, to, value) */\n      jump\t// in\n    tag_98:\n        /* \"contracts/BuenzliToken.sol\":2452:2461  _balances */\n      0x01\n        /* \"contracts/BuenzliToken.sol\":2452:2469  _balances[_owner] */\n      0x00\n        /* \"contracts/BuenzliToken.sol\":2462:2468  _owner */\n      0x03\n      0x00\n      swap1\n      sload\n      swap1\n      0x0100\n      exp\n      swap1\n      div\n      0xffffffffffffffffffffffffffffffffffffffff\n      and\n        /* \"contracts/BuenzliToken.sol\":2452:2469  _balances[_owner] */\n      0xffffffffffffffffffffffffffffffffffffffff\n      and\n      0xffffffffffffffffffffffffffffffffffffffff\n      and\n      dup2\n      mstore\n      0x20\n      add\n      swap1\n      dup2\n      mstore\n      0x20\n      add\n      0x00\n      keccak256\n      sload\n        /* \"contracts/BuenzliToken.sol\":2434:2443  _balances */\n      0x01\n        /* \"contracts/BuenzliToken.sol\":2434:2449  _balances[from] */\n      0x00\n        /* \"contracts/BuenzliToken.sol\":2444:2448  from */\n      dup7\n        /* \"contracts/BuenzliToken.sol\":2434:2449  _balances[from] */\n      0xffffffffffffffffffffffffffffffffffffffff\n      and\n      0xffffffffffffffffffffffffffffffffffffffff\n      and\n      dup2\n      mstore\n      0x20\n      add\n      swap1\n      dup2\n      mstore\n      0x20\n      add\n      0x00\n      keccak256\n      sload\n        /* \"contracts/BuenzliToken.sol\":2434:2469  _balances[from] > _balances[_owner] */\n      gt\n        /* \"contracts/BuenzliToken.sol\":2430:2509  if (_balances[from] > _balances[_owner]) {... */\n      iszero\n      tag_100\n      jumpi\n        /* \"contracts/BuenzliToken.sol\":2494:2498  from */\n      dup4\n        /* \"contracts/BuenzliToken.sol\":2485:2491  _owner */\n      0x03\n      0x00\n        /* \"contracts/BuenzliToken.sol\":2485:2498  _owner = from */\n      0x0100\n      exp\n      dup2\n      sload\n      dup2\n      0xffffffffffffffffffffffffffffffffffffffff\n      mul\n      not\n      and\n      swap1\n      dup4\n      0xffffffffffffffffffffffffffffffffffffffff\n      and\n      mul\n      or\n      swap1\n      sstore\n      pop\n        /* \"contracts/BuenzliToken.sol\":2430:2509  if (_balances[from] > _balances[_owner]) {... */\n    tag_100:\n        /* \"contracts/BuenzliToken.sol\":2534:2538  true */\n      0x01\n        /* \"contracts/BuenzliToken.sol\":2527:2538  return true */\n      swap1\n      pop\n        /* \"contracts/BuenzliToken.sol\":2073:2545  function transferFrom(address from, address to, uint256 value) public override returns (bool) {... */\n      swap4\n      swap3\n      pop\n      pop\n      pop\n      jump\t// out\n        /* \"contracts/BuenzliToken.sol\":291:326  uint8 public constant decimals = 10 */\n    tag_41:\n        /* \"contracts/BuenzliToken.sol\":324:326  10 */\n      0x0a\n        /* \"contracts/BuenzliToken.sol\":291:326  uint8 public constant decimals = 10 */\n      dup2\n      jump\t// out\n        /* \"contracts/BuenzliToken.sol\":2551:2868  function increaseAllowance(address spender, uint256 addedValue) public returns (bool) {... */\n    tag_46:\n        /* \"contracts/BuenzliToken.sol\":2631:2635  bool */\n      0x00\n        /* \"contracts/BuenzliToken.sol\":2674:2675  0 */\n      dup1\n        /* \"contracts/BuenzliToken.sol\":2655:2676  spender != address(0) */\n      0xffffffffffffffffffffffffffffffffffffffff\n      and\n        /* \"contracts/BuenzliToken.sol\":2655:2662  spender */\n      dup4\n        /* \"contracts/BuenzliToken.sol\":2655:2676  spender != address(0) */\n      0xffffffffffffffffffffffffffffffffffffffff\n      and\n      eq\n      iszero\n        /* \"contracts/BuenzliToken.sol\":2647:2677  require(spender != address(0)) */\n      tag_102\n      jumpi\n      0x00\n      dup1\n      revert\n    tag_102:\n        /* \"contracts/BuenzliToken.sol\":2720:2765  _allowed[msg.sender][spender].add(addedValue) */\n      tag_103\n        /* \"contracts/BuenzliToken.sol\":2754:2764  addedValue */\n      dup3\n        /* \"contracts/BuenzliToken.sol\":2720:2728  _allowed */\n      0x02\n        /* \"contracts/BuenzliToken.sol\":2720:2740  _allowed[msg.sender] */\n      0x00\n        /* \"contracts/BuenzliToken.sol\":2729:2739  msg.sender */\n      caller\n        /* \"contracts/BuenzliToken.sol\":2720:2740  _allowed[msg.sender] */\n      0xffffffffffffffffffffffffffffffffffffffff\n      and\n      0xffffffffffffffffffffffffffffffffffffffff\n      and\n      dup2\n      mstore\n      0x20\n      add\n      swap1\n      dup2\n      mstore\n      0x20\n      add\n      0x00\n      keccak256\n        /* \"contracts/BuenzliToken.sol\":2720:2749  _allowed[msg.sender][spender] */\n      0x00\n        /* \"contracts/BuenzliToken.sol\":2741:2748  spender */\n      dup7\n        /* \"contracts/BuenzliToken.sol\":2720:2749  _allowed[msg.sender][spender] */\n      0xffffffffffffffffffffffffffffffffffffffff\n      and\n      0xffffffffffffffffffffffffffffffffffffffff\n      and\n      dup2\n      mstore\n      0x20\n      add\n      swap1\n      dup2\n      mstore\n      0x20\n      add\n      0x00\n      keccak256\n      sload\n        /* \"contracts/BuenzliToken.sol\":2720:2753  _allowed[msg.sender][spender].add */\n      tag_104\n      swap1\n        /* \"contracts/BuenzliToken.sol\":2720:2765  _allowed[msg.sender][spender].add(addedValue) */\n      swap2\n      swap1\n      0xffffffff\n      and\n      jump\t// in\n    tag_103:\n        /* \"contracts/BuenzliToken.sol\":2688:2696  _allowed */\n      0x02\n        /* \"contracts/BuenzliToken.sol\":2688:2708  _allowed[msg.sender] */\n      0x00\n        /* \"contracts/BuenzliToken.sol\":2697:2707  msg.sender */\n      caller\n        /* \"contracts/BuenzliToken.sol\":2688:2708  _allowed[msg.sender] */\n      0xffffffffffffffffffffffffffffffffffffffff\n      and\n      0xffffffffffffffffffffffffffffffffffffffff\n      and\n      dup2\n      mstore\n      0x20\n      add\n      swap1\n      dup2\n      mstore\n      0x20\n      add\n      0x00\n      keccak256\n        /* \"contracts/BuenzliToken.sol\":2688:2717  _allowed[msg.sender][spender] */\n      0x00\n        /* \"contracts/BuenzliToken.sol\":2709:2716  spender */\n      dup6\n        /* \"contracts/BuenzliToken.sol\":2688:2717  _allowed[msg.sender][spender] */\n      0xffffffffffffffffffffffffffffffffffffffff\n      and\n      0xffffffffffffffffffffffffffffffffffffffff\n      and\n      dup2\n      mstore\n      0x20\n      add\n      swap1\n      dup2\n      mstore\n      0x20\n      add\n      0x00\n      keccak256\n        /* \"contracts/BuenzliToken.sol\":2688:2765  _allowed[msg.sender][spender] = _allowed[msg.sender][spender].add(addedValue) */\n      dup2\n      swap1\n      sstore\n      pop\n        /* \"contracts/BuenzliToken.sol\":2801:2808  spender */\n      dup3\n        /* \"contracts/BuenzliToken.sol\":2780:2840  Approval(msg.sender, spender, _allowed[msg.sender][spender]) */\n      0xffffffffffffffffffffffffffffffffffffffff\n      and\n        /* \"contracts/BuenzliToken.sol\":2789:2799  msg.sender */\n      caller\n        /* \"contracts/BuenzliToken.sol\":2780:2840  Approval(msg.sender, spender, _allowed[msg.sender][spender]) */\n      0xffffffffffffffffffffffffffffffffffffffff\n      and\n      0x8c5be1e5ebec7d5bd14f71427d1e84f3dd0314c0f7b2291e5b200ac8c7c3b925\n        /* \"contracts/BuenzliToken.sol\":2810:2818  _allowed */\n      0x02\n        /* \"contracts/BuenzliToken.sol\":2810:2830  _allowed[msg.sender] */\n      0x00\n        /* \"contracts/BuenzliToken.sol\":2819:2829  msg.sender */\n      caller\n        /* \"contracts/BuenzliToken.sol\":2810:2830  _allowed[msg.sender] */\n      0xffffffffffffffffffffffffffffffffffffffff\n      and\n      0xffffffffffffffffffffffffffffffffffffffff\n      and\n      dup2\n      mstore\n      0x20\n      add\n      swap1\n      dup2\n      mstore\n      0x20\n      add\n      0x00\n      keccak256\n        /* \"contracts/BuenzliToken.sol\":2810:2839  _allowed[msg.sender][spender] */\n      0x00\n        /* \"contracts/BuenzliToken.sol\":2831:2838  spender */\n      dup8\n        /* \"contracts/BuenzliToken.sol\":2810:2839  _allowed[msg.sender][spender] */\n      0xffffffffffffffffffffffffffffffffffffffff\n      and\n      0xffffffffffffffffffffffffffffffffffffffff\n      and\n      dup2\n      mstore\n      0x20\n      add\n      swap1\n      dup2\n      mstore\n      0x20\n      add\n      0x00\n      keccak256\n      sload\n        /* \"contracts/BuenzliToken.sol\":2780:2840  Approval(msg.sender, spender, _allowed[msg.sender][spender]) */\n      mload(0x40)\n      tag_105\n      swap2\n      swap1\n      tag_34\n      jump\t// in\n    tag_105:\n      mload(0x40)\n      dup1\n      swap2\n      sub\n      swap1\n      log3\n        /* \"contracts/BuenzliToken.sol\":2857:2861  true */\n      0x01\n        /* \"contracts/BuenzliToken.sol\":2850:2861  return true */\n      swap1\n      pop\n        /* \"contracts/BuenzliToken.sol\":2551:2868  function increaseAllowance(address spender, uint256 addedValue) public returns (bool) {... */\n      swap3\n      swap2\n      pop\n      pop\n      jump\t// out\n        /* \"contracts/BuenzliToken.sol\":198:243  uint256 public constant _totalSupply = 10**13 */\n    tag_49:\n        /* \"contracts/BuenzliToken.sol\":237:243  10**13 */\n      0x09184e72a000\n        /* \"contracts/BuenzliToken.sol\":198:243  uint256 public constant _totalSupply = 10**13 */\n      dup2\n      jump\t// out\n        /* \"contracts/BuenzliToken.sol\":862:975  function balanceOf(address owner) public override view returns (uint256) {... */\n    tag_54:\n        /* \"contracts/BuenzliToken.sol\":926:933  uint256 */\n      0x00\n        /* \"contracts/BuenzliToken.sol\":952:961  _balances */\n      0x01\n        /* \"contracts/BuenzliToken.sol\":952:968  _balances[owner] */\n      0x00\n        /* \"contracts/BuenzliToken.sol\":962:967  owner */\n      dup4\n        /* \"contracts/BuenzliToken.sol\":952:968  _balances[owner] */\n      0xffffffffffffffffffffffffffffffffffffffff\n      and\n      0xffffffffffffffffffffffffffffffffffffffff\n      and\n      dup2\n      mstore\n      0x20\n      add\n      swap1\n      dup2\n      mstore\n      0x20\n      add\n      0x00\n      keccak256\n      sload\n        /* \"contracts/BuenzliToken.sol\":945:968  return _balances[owner] */\n      swap1\n      pop\n        /* \"contracts/BuenzliToken.sol\":862:975  function balanceOf(address owner) public override view returns (uint256) {... */\n      swap2\n      swap1\n      pop\n      jump\t// out\n        /* \"contracts/BuenzliToken.sol\":3207:3287  function getOwner() public view returns (address) {... */\n    tag_57:\n        /* \"contracts/BuenzliToken.sol\":3248:3255  address */\n      0x00\n        /* \"contracts/BuenzliToken.sol\":3274:3280  _owner */\n      0x03\n      0x00\n      swap1\n      sload\n      swap1\n      0x0100\n      exp\n      swap1\n      div\n      0xffffffffffffffffffffffffffffffffffffffff\n      and\n        /* \"contracts/BuenzliToken.sol\":3267:3280  return _owner */\n      swap1\n      pop\n        /* \"contracts/BuenzliToken.sol\":3207:3287  function getOwner() public view returns (address) {... */\n      swap1\n      jump\t// out\n        /* \"contracts/BuenzliToken.sol\":332:371  string public constant symbol = 'BUENZ' */\n    tag_61:\n      mload(0x40)\n      dup1\n      0x40\n      add\n      0x40\n      mstore\n      dup1\n      0x05\n      dup2\n      mstore\n      0x20\n      add\n      0x4255454e5a000000000000000000000000000000000000000000000000000000\n      dup2\n      mstore\n      pop\n      dup2\n      jump\t// out\n        /* \"contracts/BuenzliToken.sol\":3293:3573  function renameToken(string memory newName) public {... */\n    tag_66:\n        /* \"contracts/BuenzliToken.sol\":3363:3374  _isRenaming */\n      0x05\n      0x00\n      swap1\n      sload\n      swap1\n      0x0100\n      exp\n      swap1\n      div\n      0xff\n      and\n        /* \"contracts/BuenzliToken.sol\":3362:3374  !_isRenaming */\n      iszero\n        /* \"contracts/BuenzliToken.sol\":3354:3421  require(!_isRenaming, \"A renaming process is already in progress.\") */\n      tag_109\n      jumpi\n      mload(0x40)\n      0x08c379a000000000000000000000000000000000000000000000000000000000\n      dup2\n      mstore\n      0x04\n      add\n      tag_110\n      swap1\n      tag_111\n      jump\t// in\n    tag_110:\n      mload(0x40)\n      dup1\n      swap2\n      sub\n      swap1\n      revert\n    tag_109:\n        /* \"contracts/BuenzliToken.sol\":3453:3459  _owner */\n      0x03\n      0x00\n      swap1\n      sload\n      swap1\n      0x0100\n      exp\n      swap1\n      div\n      0xffffffffffffffffffffffffffffffffffffffff\n      and\n        /* \"contracts/BuenzliToken.sol\":3439:3459  msg.sender == _owner */\n      0xffffffffffffffffffffffffffffffffffffffff\n      and\n        /* \"contracts/BuenzliToken.sol\":3439:3449  msg.sender */\n      caller\n        /* \"contracts/BuenzliToken.sol\":3439:3459  msg.sender == _owner */\n      0xffffffffffffffffffffffffffffffffffffffff\n      and\n      eq\n        /* \"contracts/BuenzliToken.sol\":3431:3501  require(msg.sender == _owner, \"Only the owner can initiate renaming.\") */\n      tag_112\n      jumpi\n      mload(0x40)\n      0x08c379a000000000000000000000000000000000000000000000000000000000\n      dup2\n      mstore\n      0x04\n      add\n      tag_113\n      swap1\n      tag_114\n      jump\t// in\n    tag_113:\n      mload(0x40)\n      dup1\n      swap2\n      sub\n      swap1\n      revert\n    tag_112:\n        /* \"contracts/BuenzliToken.sol\":3534:3538  true */\n      0x01\n        /* \"contracts/BuenzliToken.sol\":3520:3531  _isRenaming */\n      0x05\n      0x00\n        /* \"contracts/BuenzliToken.sol\":3520:3538  _isRenaming = true */\n      0x0100\n      exp\n      dup2\n      sload\n      dup2\n      0xff\n      mul\n      not\n      and\n      swap1\n      dup4\n      iszero\n      iszero\n      mul\n      or\n      swap1\n      sstore\n      pop\n        /* \"contracts/BuenzliToken.sol\":3559:3566  newName */\n      dup1\n        /* \"contracts/BuenzliToken.sol\":3548:3556  _newName */\n      0x04\n        /* \"contracts/BuenzliToken.sol\":3548:3566  _newName = newName */\n      swap1\n      dup1\n      mload\n      swap1\n      0x20\n      add\n      swap1\n      tag_115\n      swap3\n      swap2\n      swap1\n      tag_116\n      jump\t// in\n    tag_115:\n      pop\n        /* \"contracts/BuenzliToken.sol\":3293:3573  function renameToken(string memory newName) public {... */\n      pop\n      jump\t// out\n        /* \"contracts/BuenzliToken.sol\":2874:3201  function decreaseAllowance(address spender, uint256 subtractedValue) public returns (bool) {... */\n    tag_69:\n        /* \"contracts/BuenzliToken.sol\":2959:2963  bool */\n      0x00\n        /* \"contracts/BuenzliToken.sol\":3002:3003  0 */\n      dup1\n        /* \"contracts/BuenzliToken.sol\":2983:3004  spender != address(0) */\n      0xffffffffffffffffffffffffffffffffffffffff\n      and\n        /* \"contracts/BuenzliToken.sol\":2983:2990  spender */\n      dup4\n        /* \"contracts/BuenzliToken.sol\":2983:3004  spender != address(0) */\n      0xffffffffffffffffffffffffffffffffffffffff\n      and\n      eq\n      iszero\n        /* \"contracts/BuenzliToken.sol\":2975:3005  require(spender != address(0)) */\n      tag_118\n      jumpi\n      0x00\n      dup1\n      revert\n    tag_118:\n        /* \"contracts/BuenzliToken.sol\":3048:3098  _allowed[msg.sender][spender].sub(subtractedValue) */\n      tag_119\n        /* \"contracts/BuenzliToken.sol\":3082:3097  subtractedValue */\n      dup3\n        /* \"contracts/BuenzliToken.sol\":3048:3056  _allowed */\n      0x02\n        /* \"contracts/BuenzliToken.sol\":3048:3068  _allowed[msg.sender] */\n      0x00\n        /* \"contracts/BuenzliToken.sol\":3057:3067  msg.sender */\n      caller\n        /* \"contracts/BuenzliToken.sol\":3048:3068  _allowed[msg.sender] */\n      0xffffffffffffffffffffffffffffffffffffffff\n      and\n      0xffffffffffffffffffffffffffffffffffffffff\n      and\n      dup2\n      mstore\n      0x20\n      add\n      swap1\n      dup2\n      mstore\n      0x20\n      add\n      0x00\n      keccak256\n        /* \"contracts/BuenzliToken.sol\":3048:3077  _allowed[msg.sender][spender] */\n      0x00\n        /* \"contracts/BuenzliToken.sol\":3069:3076  spender */\n      dup7\n        /* \"contracts/BuenzliToken.sol\":3048:3077  _allowed[msg.sender][spender] */\n      0xffffffffffffffffffffffffffffffffffffffff\n      and\n      0xffffffffffffffffffffffffffffffffffffffff\n      and\n      dup2\n      mstore\n      0x20\n      add\n      swap1\n      dup2\n      mstore\n      0x20\n      add\n      0x00\n      keccak256\n      sload\n        /* \"contracts/BuenzliToken.sol\":3048:3081  _allowed[msg.sender][spender].sub */\n      tag_97\n      swap1\n        /* \"contracts/BuenzliToken.sol\":3048:3098  _allowed[msg.sender][spender].sub(subtractedValue) */\n      swap2\n      swap1\n      0xffffffff\n      and\n      jump\t// in\n    tag_119:\n        /* \"contracts/BuenzliToken.sol\":3016:3024  _allowed */\n      0x02\n        /* \"contracts/BuenzliToken.sol\":3016:3036  _allowed[msg.sender] */\n      0x00\n        /* \"contracts/BuenzliToken.sol\":3025:3035  msg.sender */\n      caller\n        /* \"contracts/BuenzliToken.sol\":3016:3036  _allowed[msg.sender] */\n      0xffffffffffffffffffffffffffffffffffffffff\n      and\n      0xffffffffffffffffffffffffffffffffffffffff\n      and\n      dup2\n      mstore\n      0x20\n      add\n      swap1\n      dup2\n      mstore\n      0x20\n      add\n      0x00\n      keccak256\n        /* \"contracts/BuenzliToken.sol\":3016:3045  _allowed[msg.sender][spender] */\n      0x00\n        /* \"contracts/BuenzliToken.sol\":3037:3044  spender */\n      dup6\n        /* \"contracts/BuenzliToken.sol\":3016:3045  _allowed[msg.sender][spender] */\n      0xffffffffffffffffffffffffffffffffffffffff\n      and\n      0xffffffffffffffffffffffffffffffffffffffff\n      and\n      dup2\n      mstore\n      0x20\n      add\n      swap1\n      dup2\n      mstore\n      0x20\n      add\n      0x00\n      keccak256\n        /* \"contracts/BuenzliToken.sol\":3016:3098  _allowed[msg.sender][spender] = _allowed[msg.sender][spender].sub(subtractedValue) */\n      dup2\n      swap1\n      sstore\n      pop\n        /* \"contracts/BuenzliToken.sol\":3134:3141  spender */\n      dup3\n        /* \"contracts/BuenzliToken.sol\":3113:3173  Approval(msg.sender, spender, _allowed[msg.sender][spender]) */\n      0xffffffffffffffffffffffffffffffffffffffff\n      and\n        /* \"contracts/BuenzliToken.sol\":3122:3132  msg.sender */\n      caller\n        /* \"contracts/BuenzliToken.sol\":3113:3173  Approval(msg.sender, spender, _allowed[msg.sender][spender]) */\n      0xffffffffffffffffffffffffffffffffffffffff\n      and\n      0x8c5be1e5ebec7d5bd14f71427d1e84f3dd0314c0f7b2291e5b200ac8c7c3b925\n        /* \"contracts/BuenzliToken.sol\":3143:3151  _allowed */\n      0x02\n        /* \"contracts/BuenzliToken.sol\":3143:3163  _allowed[msg.sender] */\n      0x00\n        /* \"contracts/BuenzliToken.sol\":3152:3162  msg.sender */\n      caller\n        /* \"contracts/BuenzliToken.sol\":3143:3163  _allowed[msg.sender] */\n      0xffffffffffffffffffffffffffffffffffffffff\n      and\n      0xffffffffffffffffffffffffffffffffffffffff\n      and\n      dup2\n      mstore\n      0x20\n      add\n      swap1\n      dup2\n      mstore\n      0x20\n      add\n      0x00\n      keccak256\n        /* \"contracts/BuenzliToken.sol\":3143:3172  _allowed[msg.sender][spender] */\n      0x00\n        /* \"contracts/BuenzliToken.sol\":3164:3171  spender */\n      dup8\n        /* \"contracts/BuenzliToken.sol\":3143:3172  _allowed[msg.sender][spender] */\n      0xffffffffffffffffffffffffffffffffffffffff\n      and\n      0xffffffffffffffffffffffffffffffffffffffff\n      and\n      dup2\n      mstore\n      0x20\n      add\n      swap1\n      dup2\n      mstore\n      0x20\n      add\n      0x00\n      keccak256\n      sload\n        /* \"contracts/BuenzliToken.sol\":3113:3173  Approval(msg.sender, spender, _allowed[msg.sender][spender]) */\n      mload(0x40)\n      tag_120\n      swap2\n      swap1\n      tag_34\n      jump\t// in\n    tag_120:\n      mload(0x40)\n      dup1\n      swap2\n      sub\n      swap1\n      log3\n        /* \"contracts/BuenzliToken.sol\":3190:3194  true */\n      0x01\n        /* \"contracts/BuenzliToken.sol\":3183:3194  return true */\n      swap1\n      pop\n        /* \"contracts/BuenzliToken.sol\":2874:3201  function decreaseAllowance(address spender, uint256 subtractedValue) public returns (bool) {... */\n      swap3\n      swap2\n      pop\n      pop\n      jump\t// out\n        /* \"contracts/BuenzliToken.sol\":1124:1593  function transfer(address to, uint256 value) public override returns (bool) {... */\n    tag_73:\n        /* \"contracts/BuenzliToken.sol\":1194:1198  bool */\n      0x00\n        /* \"contracts/BuenzliToken.sol\":1227:1236  _balances */\n      0x01\n        /* \"contracts/BuenzliToken.sol\":1227:1248  _balances[msg.sender] */\n      0x00\n        /* \"contracts/BuenzliToken.sol\":1237:1247  msg.sender */\n      caller\n        /* \"contracts/BuenzliToken.sol\":1227:1248  _balances[msg.sender] */\n      0xffffffffffffffffffffffffffffffffffffffff\n      and\n      0xffffffffffffffffffffffffffffffffffffffff\n      and\n      dup2\n      mstore\n      0x20\n      add\n      swap1\n      dup2\n      mstore\n      0x20\n      add\n      0x00\n      keccak256\n      sload\n        /* \"contracts/BuenzliToken.sol\":1218:1223  value */\n      dup3\n        /* \"contracts/BuenzliToken.sol\":1218:1248  value <= _balances[msg.sender] */\n      gt\n      iszero\n        /* \"contracts/BuenzliToken.sol\":1210:1249  require(value <= _balances[msg.sender]) */\n      tag_122\n      jumpi\n      0x00\n      dup1\n      revert\n    tag_122:\n        /* \"contracts/BuenzliToken.sol\":1281:1282  0 */\n      0x00\n        /* \"contracts/BuenzliToken.sol\":1267:1283  to != address(0) */\n      0xffffffffffffffffffffffffffffffffffffffff\n      and\n        /* \"contracts/BuenzliToken.sol\":1267:1269  to */\n      dup4\n        /* \"contracts/BuenzliToken.sol\":1267:1283  to != address(0) */\n      0xffffffffffffffffffffffffffffffffffffffff\n      and\n      eq\n      iszero\n        /* \"contracts/BuenzliToken.sol\":1259:1284  require(to != address(0)) */\n      tag_123\n      jumpi\n      0x00\n      dup1\n      revert\n    tag_123:\n        /* \"contracts/BuenzliToken.sol\":1319:1351  _balances[msg.sender].sub(value) */\n      tag_124\n        /* \"contracts/BuenzliToken.sol\":1345:1350  value */\n      dup3\n        /* \"contracts/BuenzliToken.sol\":1319:1328  _balances */\n      0x01\n        /* \"contracts/BuenzliToken.sol\":1319:1340  _balances[msg.sender] */\n      0x00\n        /* \"contracts/BuenzliToken.sol\":1329:1339  msg.sender */\n      caller\n        /* \"contracts/BuenzliToken.sol\":1319:1340  _balances[msg.sender] */\n      0xffffffffffffffffffffffffffffffffffffffff\n      and\n      0xffffffffffffffffffffffffffffffffffffffff\n      and\n      dup2\n      mstore\n      0x20\n      add\n      swap1\n      dup2\n      mstore\n      0x20\n      add\n      0x00\n      keccak256\n      sload\n        /* \"contracts/BuenzliToken.sol\":1319:1344  _balances[msg.sender].sub */\n      tag_97\n      swap1\n        /* \"contracts/BuenzliToken.sol\":1319:1351  _balances[msg.sender].sub(value) */\n      swap2\n      swap1\n      0xffffffff\n      and\n      jump\t// in\n    tag_124:\n        /* \"contracts/BuenzliToken.sol\":1295:1304  _balances */\n      0x01\n        /* \"contracts/BuenzliToken.sol\":1295:1316  _balances[msg.sender] */\n      0x00\n        /* \"contracts/BuenzliToken.sol\":1305:1315  msg.sender */\n      caller\n        /* \"contracts/BuenzliToken.sol\":1295:1316  _balances[msg.sender] */\n      0xffffffffffffffffffffffffffffffffffffffff\n      and\n      0xffffffffffffffffffffffffffffffffffffffff\n      and\n      dup2\n      mstore\n      0x20\n      add\n      swap1\n      dup2\n      mstore\n      0x20\n      add\n      0x00\n      keccak256\n        /* \"contracts/BuenzliToken.sol\":1295:1351  _balances[msg.sender] = _balances[msg.sender].sub(value) */\n      dup2\n      swap1\n      sstore\n      pop\n        /* \"contracts/BuenzliToken.sol\":1377:1401  _balances[to].add(value) */\n      tag_125\n        /* \"contracts/BuenzliToken.sol\":1395:1400  value */\n      dup3\n        /* \"contracts/BuenzliToken.sol\":1377:1386  _balances */\n      0x01\n        /* \"contracts/BuenzliToken.sol\":1377:1390  _balances[to] */\n      0x00\n        /* \"contracts/BuenzliToken.sol\":1387:1389  to */\n      dup7\n        /* \"contracts/BuenzliToken.sol\":1377:1390  _balances[to] */\n      0xffffffffffffffffffffffffffffffffffffffff\n      and\n      0xffffffffffffffffffffffffffffffffffffffff\n      and\n      dup2\n      mstore\n      0x20\n      add\n      swap1\n      dup2\n      mstore\n      0x20\n      add\n      0x00\n      keccak256\n      sload\n        /* \"contracts/BuenzliToken.sol\":1377:1394  _balances[to].add */\n      tag_104\n      swap1\n        /* \"contracts/BuenzliToken.sol\":1377:1401  _balances[to].add(value) */\n      swap2\n      swap1\n      0xffffffff\n      and\n      jump\t// in\n    tag_125:\n        /* \"contracts/BuenzliToken.sol\":1361:1370  _balances */\n      0x01\n        /* \"contracts/BuenzliToken.sol\":1361:1374  _balances[to] */\n      0x00\n        /* \"contracts/BuenzliToken.sol\":1371:1373  to */\n      dup6\n        /* \"contracts/BuenzliToken.sol\":1361:1374  _balances[to] */\n      0xffffffffffffffffffffffffffffffffffffffff\n      and\n      0xffffffffffffffffffffffffffffffffffffffff\n      and\n      dup2\n      mstore\n      0x20\n      add\n      swap1\n      dup2\n      mstore\n      0x20\n      add\n      0x00\n      keccak256\n        /* \"contracts/BuenzliToken.sol\":1361:1401  _balances[to] = _balances[to].add(value) */\n      dup2\n      swap1\n      sstore\n      pop\n        /* \"contracts/BuenzliToken.sol\":1437:1439  to */\n      dup3\n        /* \"contracts/BuenzliToken.sol\":1416:1447  Transfer(msg.sender, to, value) */\n      0xffffffffffffffffffffffffffffffffffffffff\n      and\n        /* \"contracts/BuenzliToken.sol\":1425:1435  msg.sender */\n      caller\n        /* \"contracts/BuenzliToken.sol\":1416:1447  Transfer(msg.sender, to, value) */\n      0xffffffffffffffffffffffffffffffffffffffff\n      and\n      0xddf252ad1be2c89b69c2b068fc378daa952ba7f163c4a11628f55a4df523b3ef\n        /* \"contracts/BuenzliToken.sol\":1441:1446  value */\n      dup5\n        /* \"contracts/BuenzliToken.sol\":1416:1447  Transfer(msg.sender, to, value) */\n      mload(0x40)\n      tag_126\n      swap2\n      swap1\n      tag_34\n      jump\t// in\n    tag_126:\n      mload(0x40)\n      dup1\n      swap2\n      sub\n      swap1\n      log3\n        /* \"contracts/BuenzliToken.sol\":1494:1503  _balances */\n      0x01\n        /* \"contracts/BuenzliToken.sol\":1494:1511  _balances[_owner] */\n      0x00\n        /* \"contracts/BuenzliToken.sol\":1504:1510  _owner */\n      0x03\n      0x00\n      swap1\n      sload\n      swap1\n      0x0100\n      exp\n      swap1\n      div\n      0xffffffffffffffffffffffffffffffffffffffff\n      and\n        /* \"contracts/BuenzliToken.sol\":1494:1511  _balances[_owner] */\n      0xffffffffffffffffffffffffffffffffffffffff\n      and\n      0xffffffffffffffffffffffffffffffffffffffff\n      and\n      dup2\n      mstore\n      0x20\n      add\n      swap1\n      dup2\n      mstore\n      0x20\n      add\n      0x00\n      keccak256\n      sload\n        /* \"contracts/BuenzliToken.sol\":1470:1479  _balances */\n      0x01\n        /* \"contracts/BuenzliToken.sol\":1470:1491  _balances[msg.sender] */\n      0x00\n        /* \"contracts/BuenzliToken.sol\":1480:1490  msg.sender */\n      caller\n        /* \"contracts/BuenzliToken.sol\":1470:1491  _balances[msg.sender] */\n      0xffffffffffffffffffffffffffffffffffffffff\n      and\n      0xffffffffffffffffffffffffffffffffffffffff\n      and\n      dup2\n      mstore\n      0x20\n      add\n      swap1\n      dup2\n      mstore\n      0x20\n      add\n      0x00\n      keccak256\n      sload\n        /* \"contracts/BuenzliToken.sol\":1470:1511  _balances[msg.sender] > _balances[_owner] */\n      gt\n        /* \"contracts/BuenzliToken.sol\":1466:1557  if (_balances[msg.sender] > _balances[_owner]) {... */\n      iszero\n      tag_127\n      jumpi\n        /* \"contracts/BuenzliToken.sol\":1536:1546  msg.sender */\n      caller\n        /* \"contracts/BuenzliToken.sol\":1527:1533  _owner */\n      0x03\n      0x00\n        /* \"contracts/BuenzliToken.sol\":1527:1546  _owner = msg.sender */\n      0x0100\n      exp\n      dup2\n      sload\n      dup2\n      0xffffffffffffffffffffffffffffffffffffffff\n      mul\n      not\n      and\n      swap1\n      dup4\n      0xffffffffffffffffffffffffffffffffffffffff\n      and\n      mul\n      or\n      swap1\n      sstore\n      pop\n        /* \"contracts/BuenzliToken.sol\":1466:1557  if (_balances[msg.sender] > _balances[_owner]) {... */\n    tag_127:\n        /* \"contracts/BuenzliToken.sol\":1582:1586  true */\n      0x01\n        /* \"contracts/BuenzliToken.sol\":1575:1586  return true */\n      swap1\n      pop\n        /* \"contracts/BuenzliToken.sol\":1124:1593  function transfer(address to, uint256 value) public override returns (bool) {... */\n      swap3\n      swap2\n      pop\n      pop\n      jump\t// out\n        /* \"contracts/BuenzliToken.sol\":981:1118  function allowance(address owner,address spender) public override view returns (uint256) {... */\n    tag_78:\n        /* \"contracts/BuenzliToken.sol\":1061:1068  uint256 */\n      0x00\n        /* \"contracts/BuenzliToken.sol\":1087:1095  _allowed */\n      0x02\n        /* \"contracts/BuenzliToken.sol\":1087:1102  _allowed[owner] */\n      0x00\n        /* \"contracts/BuenzliToken.sol\":1096:1101  owner */\n      dup5\n        /* \"contracts/BuenzliToken.sol\":1087:1102  _allowed[owner] */\n      0xffffffffffffffffffffffffffffffffffffffff\n      and\n      0xffffffffffffffffffffffffffffffffffffffff\n      and\n      dup2\n      mstore\n      0x20\n      add\n      swap1\n      dup2\n      mstore\n      0x20\n      add\n      0x00\n      keccak256\n        /* \"contracts/BuenzliToken.sol\":1087:1111  _allowed[owner][spender] */\n      0x00\n        /* \"contracts/BuenzliToken.sol\":1103:1110  spender */\n      dup4\n        /* \"contracts/BuenzliToken.sol\":1087:1111  _allowed[owner][spender] */\n      0xffffffffffffffffffffffffffffffffffffffff\n      and\n      0xffffffffffffffffffffffffffffffffffffffff\n      and\n      dup2\n      mstore\n      0x20\n      add\n      swap1\n      dup2\n      mstore\n      0x20\n      add\n      0x00\n      keccak256\n      sload\n        /* \"contracts/BuenzliToken.sol\":1080:1111  return _allowed[owner][spender] */\n      swap1\n      pop\n        /* \"contracts/BuenzliToken.sol\":981:1118  function allowance(address owner,address spender) public override view returns (uint256) {... */\n      swap3\n      swap2\n      pop\n      pop\n      jump\t// out\n        /* \"contracts/BuenzliToken.sol\":3579:3852  function confirmRename() public {... */\n    tag_81:\n        /* \"contracts/BuenzliToken.sol\":3643:3649  _owner */\n      0x03\n      0x00\n      swap1\n      sload\n      swap1\n      0x0100\n      exp\n      swap1\n      div\n      0xffffffffffffffffffffffffffffffffffffffff\n      and\n        /* \"contracts/BuenzliToken.sol\":3629:3649  msg.sender == _owner */\n      0xffffffffffffffffffffffffffffffffffffffff\n      and\n        /* \"contracts/BuenzliToken.sol\":3629:3639  msg.sender */\n      caller\n        /* \"contracts/BuenzliToken.sol\":3629:3649  msg.sender == _owner */\n      0xffffffffffffffffffffffffffffffffffffffff\n      and\n      eq\n        /* \"contracts/BuenzliToken.sol\":3621:3690  require(msg.sender == _owner, \"Only the owner can confirm renaming.\") */\n      tag_130\n      jumpi\n      mload(0x40)\n      0x08c379a000000000000000000000000000000000000000000000000000000000\n      dup2\n      mstore\n      0x04\n      add\n      tag_131\n      swap1\n      tag_132\n      jump\t// in\n    tag_131:\n      mload(0x40)\n      dup1\n      swap2\n      sub\n      swap1\n      revert\n    tag_130:\n        /* \"contracts/BuenzliToken.sol\":3708:3719  _isRenaming */\n      0x05\n      0x00\n      swap1\n      sload\n      swap1\n      0x0100\n      exp\n      swap1\n      div\n      0xff\n      and\n        /* \"contracts/BuenzliToken.sol\":3700:3759  require(_isRenaming, \"No renaming process is in progress.\") */\n      tag_133\n      jumpi\n      mload(0x40)\n      0x08c379a000000000000000000000000000000000000000000000000000000000\n      dup2\n      mstore\n      0x04\n      add\n      tag_134\n      swap1\n      tag_135\n      jump\t// in\n    tag_134:\n      mload(0x40)\n      dup1\n      swap2\n      sub\n      swap1\n      revert\n    tag_133:\n        /* \"contracts/BuenzliToken.sol\":3785:3793  _newName */\n      0x04\n        /* \"contracts/BuenzliToken.sol\":3778:3782  name */\n      0x00\n        /* \"contracts/BuenzliToken.sol\":3778:3793  name = _newName */\n      swap1\n      dup1\n      sload\n      tag_136\n      swap1\n      tag_83\n      jump\t// in\n    tag_136:\n      tag_137\n      swap3\n      swap2\n      swap1\n      tag_138\n      jump\t// in\n    tag_137:\n      pop\n        /* \"contracts/BuenzliToken.sol\":3803:3816  _newName = \"\" */\n      mload(0x40)\n      dup1\n      0x20\n      add\n      0x40\n      mstore\n      dup1\n      0x00\n      dup2\n      mstore\n      pop\n        /* \"contracts/BuenzliToken.sol\":3803:3811  _newName */\n      0x04\n        /* \"contracts/BuenzliToken.sol\":3803:3816  _newName = \"\" */\n      swap1\n      dup1\n      mload\n      swap1\n      0x20\n      add\n      swap1\n      tag_139\n      swap3\n      swap2\n      swap1\n      tag_116\n      jump\t// in\n    tag_139:\n      pop\n        /* \"contracts/BuenzliToken.sol\":3840:3845  false */\n      0x00\n        /* \"contracts/BuenzliToken.sol\":3826:3837  _isRenaming */\n      0x05\n      0x00\n        /* \"contracts/BuenzliToken.sol\":3826:3845  _isRenaming = false */\n      0x0100\n      exp\n      dup2\n      sload\n      dup2\n      0xff\n      mul\n      not\n      and\n      swap1\n      dup4\n      iszero\n      iszero\n      mul\n      or\n      swap1\n      sstore\n      pop\n        /* \"contracts/BuenzliToken.sol\":3579:3852  function confirmRename() public {... */\n      jump\t// out\n        /* \"contracts/libraries/SafeMath.sol\":318:445  function sub(uint x, uint y) internal pure returns (uint z) {... */\n    tag_97:\n        /* \"contracts/libraries/SafeMath.sol\":370:376  uint z */\n      0x00\n        /* \"contracts/libraries/SafeMath.sol\":411:412  x */\n      dup3\n        /* \"contracts/libraries/SafeMath.sol\":405:406  y */\n      dup3\n        /* \"contracts/libraries/SafeMath.sol\":401:402  x */\n      dup5\n        /* \"contracts/libraries/SafeMath.sol\":401:406  x - y */\n      tag_141\n      swap2\n      swap1\n      tag_142\n      jump\t// in\n    tag_141:\n        /* \"contracts/libraries/SafeMath.sol\":397:406  z = x - y */\n      swap2\n      pop\n      dup2\n        /* \"contracts/libraries/SafeMath.sol\":396:412  (z = x - y) <= x */\n      gt\n      iszero\n        /* \"contracts/libraries/SafeMath.sol\":388:438  require((z = x - y) <= x, 'ds-math-sub-underflow') */\n      tag_143\n      jumpi\n      mload(0x40)\n      0x08c379a000000000000000000000000000000000000000000000000000000000\n      dup2\n      mstore\n      0x04\n      add\n      tag_144\n      swap1\n      tag_145\n      jump\t// in\n    tag_144:\n      mload(0x40)\n      dup1\n      swap2\n      sub\n      swap1\n      revert\n    tag_143:\n        /* \"contracts/libraries/SafeMath.sol\":318:445  function sub(uint x, uint y) internal pure returns (uint z) {... */\n      swap3\n      swap2\n      pop\n      pop\n      jump\t// out\n        /* \"contracts/BuenzliToken.sol\":1851:2067  function _transfer(address from, address to, uint value) private {... */\n    tag_99:\n        /* \"contracts/BuenzliToken.sol\":1944:1970  _balances[from].sub(value) */\n      tag_147\n        /* \"contracts/BuenzliToken.sol\":1964:1969  value */\n      dup2\n        /* \"contracts/BuenzliToken.sol\":1944:1953  _balances */\n      0x01\n        /* \"contracts/BuenzliToken.sol\":1944:1959  _balances[from] */\n      0x00\n        /* \"contracts/BuenzliToken.sol\":1954:1958  from */\n      dup7\n        /* \"contracts/BuenzliToken.sol\":1944:1959  _balances[from] */\n      0xffffffffffffffffffffffffffffffffffffffff\n      and\n      0xffffffffffffffffffffffffffffffffffffffff\n      and\n      dup2\n      mstore\n      0x20\n      add\n      swap1\n      dup2\n      mstore\n      0x20\n      add\n      0x00\n      keccak256\n      sload\n        /* \"contracts/BuenzliToken.sol\":1944:1963  _balances[from].sub */\n      tag_97\n      swap1\n        /* \"contracts/BuenzliToken.sol\":1944:1970  _balances[from].sub(value) */\n      swap2\n      swap1\n      0xffffffff\n      and\n      jump\t// in\n    tag_147:\n        /* \"contracts/BuenzliToken.sol\":1926:1935  _balances */\n      0x01\n        /* \"contracts/BuenzliToken.sol\":1926:1941  _balances[from] */\n      0x00\n        /* \"contracts/BuenzliToken.sol\":1936:1940  from */\n      dup6\n        /* \"contracts/BuenzliToken.sol\":1926:1941  _balances[from] */\n      0xffffffffffffffffffffffffffffffffffffffff\n      and\n      0xffffffffffffffffffffffffffffffffffffffff\n      and\n      dup2\n      mstore\n      0x20\n      add\n      swap1\n      dup2\n      mstore\n      0x20\n      add\n      0x00\n      keccak256\n        /* \"contracts/BuenzliToken.sol\":1926:1970  _balances[from] = _balances[from].sub(value) */\n      dup2\n      swap1\n      sstore\n      pop\n        /* \"contracts/BuenzliToken.sol\":1996:2020  _balances[to].add(value) */\n      tag_148\n        /* \"contracts/BuenzliToken.sol\":2014:2019  value */\n      dup2\n        /* \"contracts/BuenzliToken.sol\":1996:2005  _balances */\n      0x01\n        /* \"contracts/BuenzliToken.sol\":1996:2009  _balances[to] */\n      0x00\n        /* \"contracts/BuenzliToken.sol\":2006:2008  to */\n      dup6\n        /* \"contracts/BuenzliToken.sol\":1996:2009  _balances[to] */\n      0xffffffffffffffffffffffffffffffffffffffff\n      and\n      0xffffffffffffffffffffffffffffffffffffffff\n      and\n      dup2\n      mstore\n      0x20\n      add\n      swap1\n      dup2\n      mstore\n      0x20\n      add\n      0x00\n      keccak256\n      sload\n        /* \"contracts/BuenzliToken.sol\":1996:2013  _balances[to].add */\n      tag_104\n      swap1\n        /* \"contracts/BuenzliToken.sol\":1996:2020  _balances[to].add(value) */\n      swap2\n      swap1\n      0xffffffff\n      and\n      jump\t// in\n    tag_148:\n        /* \"contracts/BuenzliToken.sol\":1980:1989  _balances */\n      0x01\n        /* \"contracts/BuenzliToken.sol\":1980:1993  _balances[to] */\n      0x00\n        /* \"contracts/BuenzliToken.sol\":1990:1992  to */\n      dup5\n        /* \"contracts/BuenzliToken.sol\":1980:1993  _balances[to] */\n      0xffffffffffffffffffffffffffffffffffffffff\n      and\n      0xffffffffffffffffffffffffffffffffffffffff\n      and\n      dup2\n      mstore\n      0x20\n      add\n      swap1\n      dup2\n      mstore\n      0x20\n      add\n      0x00\n      keccak256\n        /* \"contracts/BuenzliToken.sol\":1980:2020  _balances[to] = _balances[to].add(value) */\n      dup2\n      swap1\n      sstore\n      pop\n        /* \"contracts/BuenzliToken.sol\":2050:2052  to */\n      dup2\n        /* \"contracts/BuenzliToken.sol\":2035:2060  Transfer(from, to, value) */\n      0xffffffffffffffffffffffffffffffffffffffff\n      and\n        /* \"contracts/BuenzliToken.sol\":2044:2048  from */\n      dup4\n        /* \"contracts/BuenzliToken.sol\":2035:2060  Transfer(from, to, value) */\n      0xffffffffffffffffffffffffffffffffffffffff\n      and\n      0xddf252ad1be2c89b69c2b068fc378daa952ba7f163c4a11628f55a4df523b3ef\n        /* \"contracts/BuenzliToken.sol\":2054:2059  value */\n      dup4\n        /* \"contracts/BuenzliToken.sol\":2035:2060  Transfer(from, to, value) */\n      mload(0x40)\n      tag_149\n      swap2\n      swap1\n      tag_34\n      jump\t// in\n    tag_149:\n      mload(0x40)\n      dup1\n      swap2\n      sub\n      swap1\n      log3\n        /* \"contracts/BuenzliToken.sol\":1851:2067  function _transfer(address from, address to, uint value) private {... */\n      pop\n      pop\n      pop\n      jump\t// out\n        /* \"contracts/libraries/SafeMath.sol\":190:312  function add(uint x, uint y) internal pure returns (uint z) {... */\n    tag_104:\n        /* \"contracts/libraries/SafeMath.sol\":242:248  uint z */\n      0x00\n        /* \"contracts/libraries/SafeMath.sol\":279:280  x */\n      dup3\n        /* \"contracts/libraries/SafeMath.sol\":273:274  y */\n      dup3\n        /* \"contracts/libraries/SafeMath.sol\":269:270  x */\n      dup5\n        /* \"contracts/libraries/SafeMath.sol\":269:274  x + y */\n      tag_151\n      swap2\n      swap1\n      tag_152\n      jump\t// in\n    tag_151:\n        /* \"contracts/libraries/SafeMath.sol\":265:274  z = x + y */\n      swap2\n      pop\n      dup2\n        /* \"contracts/libraries/SafeMath.sol\":264:280  (z = x + y) >= x */\n      lt\n      iszero\n        /* \"contracts/libraries/SafeMath.sol\":256:305  require((z = x + y) >= x, 'ds-math-add-overflow') */\n      tag_153\n      jumpi\n      mload(0x40)\n      0x08c379a000000000000000000000000000000000000000000000000000000000\n      dup2\n      mstore\n      0x04\n      add\n      tag_154\n      swap1\n      tag_155\n      jump\t// in\n    tag_154:\n      mload(0x40)\n      dup1\n      swap2\n      sub\n      swap1\n      revert\n    tag_153:\n        /* \"contracts/libraries/SafeMath.sol\":190:312  function add(uint x, uint y) internal pure returns (uint z) {... */\n      swap3\n      swap2\n      pop\n      pop\n      jump\t// out\n    tag_116:\n      dup3\n      dup1\n      sload\n      tag_156\n      swap1\n      tag_83\n      jump\t// in\n    tag_156:\n      swap1\n      0x00\n      mstore\n      keccak256(0x00, 0x20)\n      swap1\n      0x1f\n      add\n      0x20\n      swap1\n      div\n      dup2\n      add\n      swap3\n      dup3\n      tag_158\n      jumpi\n      0x00\n      dup6\n      sstore\n      jump(tag_157)\n    tag_158:\n      dup3\n      0x1f\n      lt\n      tag_159\n      jumpi\n      dup1\n      mload\n      not(0xff)\n      and\n      dup4\n      dup1\n      add\n      or\n      dup6\n      sstore\n      jump(tag_157)\n    tag_159:\n      dup3\n      dup1\n      add\n      0x01\n      add\n      dup6\n      sstore\n      dup3\n      iszero\n      tag_157\n      jumpi\n      swap2\n      dup3\n      add\n    tag_160:\n      dup3\n      dup2\n      gt\n      iszero\n      tag_161\n      jumpi\n      dup3\n      mload\n      dup3\n      sstore\n      swap2\n      0x20\n      add\n      swap2\n      swap1\n      0x01\n      add\n      swap1\n      jump(tag_160)\n    tag_161:\n    tag_157:\n      pop\n      swap1\n      pop\n      tag_162\n      swap2\n      swap1\n      tag_163\n      jump\t// in\n    tag_162:\n      pop\n      swap1\n      jump\t// out\n    tag_138:\n      dup3\n      dup1\n      sload\n      tag_164\n      swap1\n      tag_83\n      jump\t// in\n    tag_164:\n      swap1\n      0x00\n      mstore\n      keccak256(0x00, 0x20)\n      swap1\n      0x1f\n      add\n      0x20\n      swap1\n      div\n      dup2\n      add\n      swap3\n      dup3\n      tag_166\n      jumpi\n      0x00\n      dup6\n      sstore\n      jump(tag_165)\n    tag_166:\n      dup3\n      0x1f\n      lt\n      tag_167\n      jumpi\n      dup1\n      sload\n      dup6\n      sstore\n      jump(tag_165)\n    tag_167:\n      dup3\n      dup1\n      add\n      0x01\n      add\n      dup6\n      sstore\n      dup3\n      iszero\n      tag_165\n      jumpi\n      0x00\n      mstore\n      keccak256(0x00, 0x20)\n      swap2\n      0x1f\n      add\n      0x20\n      swap1\n      div\n      dup3\n      add\n    tag_168:\n      dup3\n      dup2\n      gt\n      iszero\n      tag_169\n      jumpi\n      dup3\n      sload\n      dup3\n      sstore\n      swap2\n      0x01\n      add\n      swap2\n      swap1\n      0x01\n      add\n      swap1\n      jump(tag_168)\n    tag_169:\n    tag_165:\n      pop\n      swap1\n      pop\n      tag_170\n      swap2\n      swap1\n      tag_163\n      jump\t// in\n    tag_170:\n      pop\n      swap1\n      jump\t// out\n    tag_163:\n    tag_171:\n      dup1\n      dup3\n      gt\n      iszero\n      tag_172\n      jumpi\n      0x00\n      dup2\n      0x00\n      swap1\n      sstore\n      pop\n      0x01\n      add\n      jump(tag_171)\n    tag_172:\n      pop\n      swap1\n      jump\t// out\n        /* \"#utility.yul\":7:106   */\n    tag_173:\n        /* \"#utility.yul\":59:65   */\n      0x00\n        /* \"#utility.yul\":93:98   */\n      dup2\n        /* \"#utility.yul\":87:99   */\n      mload\n        /* \"#utility.yul\":77:99   */\n      swap1\n      pop\n        /* \"#utility.yul\":7:106   */\n      swap2\n      swap1\n      pop\n      jump\t// out\n        /* \"#utility.yul\":112:281   */\n    tag_174:\n        /* \"#utility.yul\":196:207   */\n      0x00\n        /* \"#utility.yul\":230:236   */\n      dup3\n        /* \"#utility.yul\":225:228   */\n      dup3\n        /* \"#utility.yul\":218:237   */\n      mstore\n        /* \"#utility.yul\":270:274   */\n      0x20\n        /* \"#utility.yul\":265:268   */\n      dup3\n        /* \"#utility.yul\":261:275   */\n      add\n        /* \"#utility.yul\":246:275   */\n      swap1\n      pop\n        /* \"#utility.yul\":112:281   */\n      swap3\n      swap2\n      pop\n      pop\n      jump\t// out\n        /* \"#utility.yul\":287:594   */\n    tag_175:\n        /* \"#utility.yul\":355:356   */\n      0x00\n        /* \"#utility.yul\":365:478   */\n    tag_221:\n        /* \"#utility.yul\":379:385   */\n      dup4\n        /* \"#utility.yul\":376:377   */\n      dup2\n        /* \"#utility.yul\":373:386   */\n      lt\n        /* \"#utility.yul\":365:478   */\n      iszero\n      tag_223\n      jumpi\n        /* \"#utility.yul\":464:465   */\n      dup1\n        /* \"#utility.yul\":459:462   */\n      dup3\n        /* \"#utility.yul\":455:466   */\n      add\n        /* \"#utility.yul\":449:467   */\n      mload\n        /* \"#utility.yul\":445:446   */\n      dup2\n        /* \"#utility.yul\":440:443   */\n      dup5\n        /* \"#utility.yul\":436:447   */\n      add\n        /* \"#utility.yul\":429:468   */\n      mstore\n        /* \"#utility.yul\":401:403   */\n      0x20\n        /* \"#utility.yul\":398:399   */\n      dup2\n        /* \"#utility.yul\":394:404   */\n      add\n        /* \"#utility.yul\":389:404   */\n      swap1\n      pop\n        /* \"#utility.yul\":365:478   */\n      jump(tag_221)\n    tag_223:\n        /* \"#utility.yul\":496:502   */\n      dup4\n        /* \"#utility.yul\":493:494   */\n      dup2\n        /* \"#utility.yul\":490:503   */\n      gt\n        /* \"#utility.yul\":487:588   */\n      iszero\n      tag_224\n      jumpi\n        /* \"#utility.yul\":576:577   */\n      0x00\n        /* \"#utility.yul\":567:573   */\n      dup5\n        /* \"#utility.yul\":562:565   */\n      dup5\n        /* \"#utility.yul\":558:574   */\n      add\n        /* \"#utility.yul\":551:578   */\n      mstore\n        /* \"#utility.yul\":487:588   */\n    tag_224:\n        /* \"#utility.yul\":336:594   */\n      pop\n        /* \"#utility.yul\":287:594   */\n      pop\n      pop\n      pop\n      jump\t// out\n        /* \"#utility.yul\":600:702   */\n    tag_176:\n        /* \"#utility.yul\":641:647   */\n      0x00\n        /* \"#utility.yul\":692:694   */\n      0x1f\n        /* \"#utility.yul\":688:695   */\n      not\n        /* \"#utility.yul\":683:685   */\n      0x1f\n        /* \"#utility.yul\":676:681   */\n      dup4\n        /* \"#utility.yul\":672:686   */\n      add\n        /* \"#utility.yul\":668:696   */\n      and\n        /* \"#utility.yul\":658:696   */\n      swap1\n      pop\n        /* \"#utility.yul\":600:702   */\n      swap2\n      swap1\n      pop\n      jump\t// out\n        /* \"#utility.yul\":708:1072   */\n    tag_177:\n        /* \"#utility.yul\":796:799   */\n      0x00\n        /* \"#utility.yul\":824:863   */\n      tag_227\n        /* \"#utility.yul\":857:862   */\n      dup3\n        /* \"#utility.yul\":824:863   */\n      tag_173\n      jump\t// in\n    tag_227:\n        /* \"#utility.yul\":879:950   */\n      tag_228\n        /* \"#utility.yul\":943:949   */\n      dup2\n        /* \"#utility.yul\":938:941   */\n      dup6\n        /* \"#utility.yul\":879:950   */\n      tag_174\n      jump\t// in\n    tag_228:\n        /* \"#utility.yul\":872:950   */\n      swap4\n      pop\n        /* \"#utility.yul\":959:1011   */\n      tag_229\n        /* \"#utility.yul\":1004:1010   */\n      dup2\n        /* \"#utility.yul\":999:1002   */\n      dup6\n        /* \"#utility.yul\":992:996   */\n      0x20\n        /* \"#utility.yul\":985:990   */\n      dup7\n        /* \"#utility.yul\":981:997   */\n      add\n        /* \"#utility.yul\":959:1011   */\n      tag_175\n      jump\t// in\n    tag_229:\n        /* \"#utility.yul\":1036:1065   */\n      tag_230\n        /* \"#utility.yul\":1058:1064   */\n      dup2\n        /* \"#utility.yul\":1036:1065   */\n      tag_176\n      jump\t// in\n    tag_230:\n        /* \"#utility.yul\":1031:1034   */\n      dup5\n        /* \"#utility.yul\":1027:1066   */\n      add\n        /* \"#utility.yul\":1020:1066   */\n      swap2\n      pop\n        /* \"#utility.yul\":800:1072   */\n      pop\n        /* \"#utility.yul\":708:1072   */\n      swap3\n      swap2\n      pop\n      pop\n      jump\t// out\n        /* \"#utility.yul\":1078:1391   */\n    tag_24:\n        /* \"#utility.yul\":1191:1195   */\n      0x00\n        /* \"#utility.yul\":1229:1231   */\n      0x20\n        /* \"#utility.yul\":1218:1227   */\n      dup3\n        /* \"#utility.yul\":1214:1232   */\n      add\n        /* \"#utility.yul\":1206:1232   */\n      swap1\n      pop\n        /* \"#utility.yul\":1278:1287   */\n      dup2\n        /* \"#utility.yul\":1272:1276   */\n      dup2\n        /* \"#utility.yul\":1268:1288   */\n      sub\n        /* \"#utility.yul\":1264:1265   */\n      0x00\n        /* \"#utility.yul\":1253:1262   */\n      dup4\n        /* \"#utility.yul\":1249:1266   */\n      add\n        /* \"#utility.yul\":1242:1289   */\n      mstore\n        /* \"#utility.yul\":1306:1384   */\n      tag_232\n        /* \"#utility.yul\":1379:1383   */\n      dup2\n        /* \"#utility.yul\":1370:1376   */\n      dup5\n        /* \"#utility.yul\":1306:1384   */\n      tag_177\n      jump\t// in\n    tag_232:\n        /* \"#utility.yul\":1298:1384   */\n      swap1\n      pop\n        /* \"#utility.yul\":1078:1391   */\n      swap3\n      swap2\n      pop\n      pop\n      jump\t// out\n        /* \"#utility.yul\":1397:1472   */\n    tag_178:\n        /* \"#utility.yul\":1430:1436   */\n      0x00\n        /* \"#utility.yul\":1463:1465   */\n      0x40\n        /* \"#utility.yul\":1457:1466   */\n      mload\n        /* \"#utility.yul\":1447:1466   */\n      swap1\n      pop\n        /* \"#utility.yul\":1397:1472   */\n      swap1\n      jump\t// out\n        /* \"#utility.yul\":1478:1595   */\n    tag_179:\n        /* \"#utility.yul\":1587:1588   */\n      0x00\n        /* \"#utility.yul\":1584:1585   */\n      dup1\n        /* \"#utility.yul\":1577:1589   */\n      revert\n        /* \"#utility.yul\":1601:1718   */\n    tag_180:\n        /* \"#utility.yul\":1710:1711   */\n      0x00\n        /* \"#utility.yul\":1707:1708   */\n      dup1\n        /* \"#utility.yul\":1700:1712   */\n      revert\n        /* \"#utility.yul\":1724:1850   */\n    tag_181:\n        /* \"#utility.yul\":1761:1768   */\n      0x00\n        /* \"#utility.yul\":1801:1843   */\n      0xffffffffffffffffffffffffffffffffffffffff\n        /* \"#utility.yul\":1794:1799   */\n      dup3\n        /* \"#utility.yul\":1790:1844   */\n      and\n        /* \"#utility.yul\":1779:1844   */\n      swap1\n      pop\n        /* \"#utility.yul\":1724:1850   */\n      swap2\n      swap1\n      pop\n      jump\t// out\n        /* \"#utility.yul\":1856:1952   */\n    tag_182:\n        /* \"#utility.yul\":1893:1900   */\n      0x00\n        /* \"#utility.yul\":1922:1946   */\n      tag_238\n        /* \"#utility.yul\":1940:1945   */\n      dup3\n        /* \"#utility.yul\":1922:1946   */\n      tag_181\n      jump\t// in\n    tag_238:\n        /* \"#utility.yul\":1911:1946   */\n      swap1\n      pop\n        /* \"#utility.yul\":1856:1952   */\n      swap2\n      swap1\n      pop\n      jump\t// out\n        /* \"#utility.yul\":1958:2080   */\n    tag_183:\n        /* \"#utility.yul\":2031:2055   */\n      tag_240\n        /* \"#utility.yul\":2049:2054   */\n      dup2\n        /* \"#utility.yul\":2031:2055   */\n      tag_182\n      jump\t// in\n    tag_240:\n        /* \"#utility.yul\":2024:2029   */\n      dup2\n        /* \"#utility.yul\":2021:2056   */\n      eq\n        /* \"#utility.yul\":2011:2074   */\n      tag_241\n      jumpi\n        /* \"#utility.yul\":2070:2071   */\n      0x00\n        /* \"#utility.yul\":2067:2068   */\n      dup1\n        /* \"#utility.yul\":2060:2072   */\n      revert\n        /* \"#utility.yul\":2011:2074   */\n    tag_241:\n        /* \"#utility.yul\":1958:2080   */\n      pop\n      jump\t// out\n        /* \"#utility.yul\":2086:2225   */\n    tag_184:\n        /* \"#utility.yul\":2132:2137   */\n      0x00\n        /* \"#utility.yul\":2170:2176   */\n      dup2\n        /* \"#utility.yul\":2157:2177   */\n      calldataload\n        /* \"#utility.yul\":2148:2177   */\n      swap1\n      pop\n        /* \"#utility.yul\":2186:2219   */\n      tag_243\n        /* \"#utility.yul\":2213:2218   */\n      dup2\n        /* \"#utility.yul\":2186:2219   */\n      tag_183\n      jump\t// in\n    tag_243:\n        /* \"#utility.yul\":2086:2225   */\n      swap3\n      swap2\n      pop\n      pop\n      jump\t// out\n        /* \"#utility.yul\":2231:2308   */\n    tag_185:\n        /* \"#utility.yul\":2268:2275   */\n      0x00\n        /* \"#utility.yul\":2297:2302   */\n      dup2\n        /* \"#utility.yul\":2286:2302   */\n      swap1\n      pop\n        /* \"#utility.yul\":2231:2308   */\n      swap2\n      swap1\n      pop\n      jump\t// out\n        /* \"#utility.yul\":2314:2436   */\n    tag_186:\n        /* \"#utility.yul\":2387:2411   */\n      tag_246\n        /* \"#utility.yul\":2405:2410   */\n      dup2\n        /* \"#utility.yul\":2387:2411   */\n      tag_185\n      jump\t// in\n    tag_246:\n        /* \"#utility.yul\":2380:2385   */\n      dup2\n        /* \"#utility.yul\":2377:2412   */\n      eq\n        /* \"#utility.yul\":2367:2430   */\n      tag_247\n      jumpi\n        /* \"#utility.yul\":2426:2427   */\n      0x00\n        /* \"#utility.yul\":2423:2424   */\n      dup1\n        /* \"#utility.yul\":2416:2428   */\n      revert\n        /* \"#utility.yul\":2367:2430   */\n    tag_247:\n        /* \"#utility.yul\":2314:2436   */\n      pop\n      jump\t// out\n        /* \"#utility.yul\":2442:2581   */\n    tag_187:\n        /* \"#utility.yul\":2488:2493   */\n      0x00\n        /* \"#utility.yul\":2526:2532   */\n      dup2\n        /* \"#utility.yul\":2513:2533   */\n      calldataload\n        /* \"#utility.yul\":2504:2533   */\n      swap1\n      pop\n        /* \"#utility.yul\":2542:2575   */\n      tag_249\n        /* \"#utility.yul\":2569:2574   */\n      dup2\n        /* \"#utility.yul\":2542:2575   */\n      tag_186\n      jump\t// in\n    tag_249:\n        /* \"#utility.yul\":2442:2581   */\n      swap3\n      swap2\n      pop\n      pop\n      jump\t// out\n        /* \"#utility.yul\":2587:3061   */\n    tag_27:\n        /* \"#utility.yul\":2655:2661   */\n      0x00\n        /* \"#utility.yul\":2663:2669   */\n      dup1\n        /* \"#utility.yul\":2712:2714   */\n      0x40\n        /* \"#utility.yul\":2700:2709   */\n      dup4\n        /* \"#utility.yul\":2691:2698   */\n      dup6\n        /* \"#utility.yul\":2687:2710   */\n      sub\n        /* \"#utility.yul\":2683:2715   */\n      slt\n        /* \"#utility.yul\":2680:2799   */\n      iszero\n      tag_251\n      jumpi\n        /* \"#utility.yul\":2718:2797   */\n      tag_252\n      tag_179\n      jump\t// in\n    tag_252:\n        /* \"#utility.yul\":2680:2799   */\n    tag_251:\n        /* \"#utility.yul\":2838:2839   */\n      0x00\n        /* \"#utility.yul\":2863:2916   */\n      tag_253\n        /* \"#utility.yul\":2908:2915   */\n      dup6\n        /* \"#utility.yul\":2899:2905   */\n      dup3\n        /* \"#utility.yul\":2888:2897   */\n      dup7\n        /* \"#utility.yul\":2884:2906   */\n      add\n        /* \"#utility.yul\":2863:2916   */\n      tag_184\n      jump\t// in\n    tag_253:\n        /* \"#utility.yul\":2853:2916   */\n      swap3\n      pop\n        /* \"#utility.yul\":2809:2926   */\n      pop\n        /* \"#utility.yul\":2965:2967   */\n      0x20\n        /* \"#utility.yul\":2991:3044   */\n      tag_254\n        /* \"#utility.yul\":3036:3043   */\n      dup6\n        /* \"#utility.yul\":3027:3033   */\n      dup3\n        /* \"#utility.yul\":3016:3025   */\n      dup7\n        /* \"#utility.yul\":3012:3034   */\n      add\n        /* \"#utility.yul\":2991:3044   */\n      tag_187\n      jump\t// in\n    tag_254:\n        /* \"#utility.yul\":2981:3044   */\n      swap2\n      pop\n        /* \"#utility.yul\":2936:3054   */\n      pop\n        /* \"#utility.yul\":2587:3061   */\n      swap3\n      pop\n      swap3\n      swap1\n      pop\n      jump\t// out\n        /* \"#utility.yul\":3067:3157   */\n    tag_188:\n        /* \"#utility.yul\":3101:3108   */\n      0x00\n        /* \"#utility.yul\":3144:3149   */\n      dup2\n        /* \"#utility.yul\":3137:3150   */\n      iszero\n        /* \"#utility.yul\":3130:3151   */\n      iszero\n        /* \"#utility.yul\":3119:3151   */\n      swap1\n      pop\n        /* \"#utility.yul\":3067:3157   */\n      swap2\n      swap1\n      pop\n      jump\t// out\n        /* \"#utility.yul\":3163:3272   */\n    tag_189:\n        /* \"#utility.yul\":3244:3265   */\n      tag_257\n        /* \"#utility.yul\":3259:3264   */\n      dup2\n        /* \"#utility.yul\":3244:3265   */\n      tag_188\n      jump\t// in\n    tag_257:\n        /* \"#utility.yul\":3239:3242   */\n      dup3\n        /* \"#utility.yul\":3232:3266   */\n      mstore\n        /* \"#utility.yul\":3163:3272   */\n      pop\n      pop\n      jump\t// out\n        /* \"#utility.yul\":3278:3488   */\n    tag_30:\n        /* \"#utility.yul\":3365:3369   */\n      0x00\n        /* \"#utility.yul\":3403:3405   */\n      0x20\n        /* \"#utility.yul\":3392:3401   */\n      dup3\n        /* \"#utility.yul\":3388:3406   */\n      add\n        /* \"#utility.yul\":3380:3406   */\n      swap1\n      pop\n        /* \"#utility.yul\":3416:3481   */\n      tag_259\n        /* \"#utility.yul\":3478:3479   */\n      0x00\n        /* \"#utility.yul\":3467:3476   */\n      dup4\n        /* \"#utility.yul\":3463:3480   */\n      add\n        /* \"#utility.yul\":3454:3460   */\n      dup5\n        /* \"#utility.yul\":3416:3481   */\n      tag_189\n      jump\t// in\n    tag_259:\n        /* \"#utility.yul\":3278:3488   */\n      swap3\n      swap2\n      pop\n      pop\n      jump\t// out\n        /* \"#utility.yul\":3494:3612   */\n    tag_190:\n        /* \"#utility.yul\":3581:3605   */\n      tag_261\n        /* \"#utility.yul\":3599:3604   */\n      dup2\n        /* \"#utility.yul\":3581:3605   */\n      tag_185\n      jump\t// in\n    tag_261:\n        /* \"#utility.yul\":3576:3579   */\n      dup3\n        /* \"#utility.yul\":3569:3606   */\n      mstore\n        /* \"#utility.yul\":3494:3612   */\n      pop\n      pop\n      jump\t// out\n        /* \"#utility.yul\":3618:3840   */\n    tag_34:\n        /* \"#utility.yul\":3711:3715   */\n      0x00\n        /* \"#utility.yul\":3749:3751   */\n      0x20\n        /* \"#utility.yul\":3738:3747   */\n      dup3\n        /* \"#utility.yul\":3734:3752   */\n      add\n        /* \"#utility.yul\":3726:3752   */\n      swap1\n      pop\n        /* \"#utility.yul\":3762:3833   */\n      tag_263\n        /* \"#utility.yul\":3830:3831   */\n      0x00\n        /* \"#utility.yul\":3819:3828   */\n      dup4\n        /* \"#utility.yul\":3815:3832   */\n      add\n        /* \"#utility.yul\":3806:3812   */\n      dup5\n        /* \"#utility.yul\":3762:3833   */\n      tag_190\n      jump\t// in\n    tag_263:\n        /* \"#utility.yul\":3618:3840   */\n      swap3\n      swap2\n      pop\n      pop\n      jump\t// out\n        /* \"#utility.yul\":3846:4465   */\n    tag_37:\n        /* \"#utility.yul\":3923:3929   */\n      0x00\n        /* \"#utility.yul\":3931:3937   */\n      dup1\n        /* \"#utility.yul\":3939:3945   */\n      0x00\n        /* \"#utility.yul\":3988:3990   */\n      0x60\n        /* \"#utility.yul\":3976:3985   */\n      dup5\n        /* \"#utility.yul\":3967:3974   */\n      dup7\n        /* \"#utility.yul\":3963:3986   */\n      sub\n        /* \"#utility.yul\":3959:3991   */\n      slt\n        /* \"#utility.yul\":3956:4075   */\n      iszero\n      tag_265\n      jumpi\n        /* \"#utility.yul\":3994:4073   */\n      tag_266\n      tag_179\n      jump\t// in\n    tag_266:\n        /* \"#utility.yul\":3956:4075   */\n    tag_265:\n        /* \"#utility.yul\":4114:4115   */\n      0x00\n        /* \"#utility.yul\":4139:4192   */\n      tag_267\n        /* \"#utility.yul\":4184:4191   */\n      dup7\n        /* \"#utility.yul\":4175:4181   */\n      dup3\n        /* \"#utility.yul\":4164:4173   */\n      dup8\n        /* \"#utility.yul\":4160:4182   */\n      add\n        /* \"#utility.yul\":4139:4192   */\n      tag_184\n      jump\t// in\n    tag_267:\n        /* \"#utility.yul\":4129:4192   */\n      swap4\n      pop\n        /* \"#utility.yul\":4085:4202   */\n      pop\n        /* \"#utility.yul\":4241:4243   */\n      0x20\n        /* \"#utility.yul\":4267:4320   */\n      tag_268\n        /* \"#utility.yul\":4312:4319   */\n      dup7\n        /* \"#utility.yul\":4303:4309   */\n      dup3\n        /* \"#utility.yul\":4292:4301   */\n      dup8\n        /* \"#utility.yul\":4288:4310   */\n      add\n        /* \"#utility.yul\":4267:4320   */\n      tag_184\n      jump\t// in\n    tag_268:\n        /* \"#utility.yul\":4257:4320   */\n      swap3\n      pop\n        /* \"#utility.yul\":4212:4330   */\n      pop\n        /* \"#utility.yul\":4369:4371   */\n      0x40\n        /* \"#utility.yul\":4395:4448   */\n      tag_269\n        /* \"#utility.yul\":4440:4447   */\n      dup7\n        /* \"#utility.yul\":4431:4437   */\n      dup3\n        /* \"#utility.yul\":4420:4429   */\n      dup8\n        /* \"#utility.yul\":4416:4438   */\n      add\n        /* \"#utility.yul\":4395:4448   */\n      tag_187\n      jump\t// in\n    tag_269:\n        /* \"#utility.yul\":4385:4448   */\n      swap2\n      pop\n        /* \"#utility.yul\":4340:4458   */\n      pop\n        /* \"#utility.yul\":3846:4465   */\n      swap3\n      pop\n      swap3\n      pop\n      swap3\n      jump\t// out\n        /* \"#utility.yul\":4471:4557   */\n    tag_191:\n        /* \"#utility.yul\":4506:4513   */\n      0x00\n        /* \"#utility.yul\":4546:4550   */\n      0xff\n        /* \"#utility.yul\":4539:4544   */\n      dup3\n        /* \"#utility.yul\":4535:4551   */\n      and\n        /* \"#utility.yul\":4524:4551   */\n      swap1\n      pop\n        /* \"#utility.yul\":4471:4557   */\n      swap2\n      swap1\n      pop\n      jump\t// out\n        /* \"#utility.yul\":4563:4675   */\n    tag_192:\n        /* \"#utility.yul\":4646:4668   */\n      tag_272\n        /* \"#utility.yul\":4662:4667   */\n      dup2\n        /* \"#utility.yul\":4646:4668   */\n      tag_191\n      jump\t// in\n    tag_272:\n        /* \"#utility.yul\":4641:4644   */\n      dup3\n        /* \"#utility.yul\":4634:4669   */\n      mstore\n        /* \"#utility.yul\":4563:4675   */\n      pop\n      pop\n      jump\t// out\n        /* \"#utility.yul\":4681:4895   */\n    tag_43:\n        /* \"#utility.yul\":4770:4774   */\n      0x00\n        /* \"#utility.yul\":4808:4810   */\n      0x20\n        /* \"#utility.yul\":4797:4806   */\n      dup3\n        /* \"#utility.yul\":4793:4811   */\n      add\n        /* \"#utility.yul\":4785:4811   */\n      swap1\n      pop\n        /* \"#utility.yul\":4821:4888   */\n      tag_274\n        /* \"#utility.yul\":4885:4886   */\n      0x00\n        /* \"#utility.yul\":4874:4883   */\n      dup4\n        /* \"#utility.yul\":4870:4887   */\n      add\n        /* \"#utility.yul\":4861:4867   */\n      dup5\n        /* \"#utility.yul\":4821:4888   */\n      tag_192\n      jump\t// in\n    tag_274:\n        /* \"#utility.yul\":4681:4895   */\n      swap3\n      swap2\n      pop\n      pop\n      jump\t// out\n        /* \"#utility.yul\":4901:5230   */\n    tag_53:\n        /* \"#utility.yul\":4960:4966   */\n      0x00\n        /* \"#utility.yul\":5009:5011   */\n      0x20\n        /* \"#utility.yul\":4997:5006   */\n      dup3\n        /* \"#utility.yul\":4988:4995   */\n      dup5\n        /* \"#utility.yul\":4984:5007   */\n      sub\n        /* \"#utility.yul\":4980:5012   */\n      slt\n        /* \"#utility.yul\":4977:5096   */\n      iszero\n      tag_276\n      jumpi\n        /* \"#utility.yul\":5015:5094   */\n      tag_277\n      tag_179\n      jump\t// in\n    tag_277:\n        /* \"#utility.yul\":4977:5096   */\n    tag_276:\n        /* \"#utility.yul\":5135:5136   */\n      0x00\n        /* \"#utility.yul\":5160:5213   */\n      tag_278\n        /* \"#utility.yul\":5205:5212   */\n      dup5\n        /* \"#utility.yul\":5196:5202   */\n      dup3\n        /* \"#utility.yul\":5185:5194   */\n      dup6\n        /* \"#utility.yul\":5181:5203   */\n      add\n        /* \"#utility.yul\":5160:5213   */\n      tag_184\n      jump\t// in\n    tag_278:\n        /* \"#utility.yul\":5150:5213   */\n      swap2\n      pop\n        /* \"#utility.yul\":5106:5223   */\n      pop\n        /* \"#utility.yul\":4901:5230   */\n      swap3\n      swap2\n      pop\n      pop\n      jump\t// out\n        /* \"#utility.yul\":5236:5354   */\n    tag_193:\n        /* \"#utility.yul\":5323:5347   */\n      tag_280\n        /* \"#utility.yul\":5341:5346   */\n      dup2\n        /* \"#utility.yul\":5323:5347   */\n      tag_182\n      jump\t// in\n    tag_280:\n        /* \"#utility.yul\":5318:5321   */\n      dup3\n        /* \"#utility.yul\":5311:5348   */\n      mstore\n        /* \"#utility.yul\":5236:5354   */\n      pop\n      pop\n      jump\t// out\n        /* \"#utility.yul\":5360:5582   */\n    tag_59:\n        /* \"#utility.yul\":5453:5457   */\n      0x00\n        /* \"#utility.yul\":5491:5493   */\n      0x20\n        /* \"#utility.yul\":5480:5489   */\n      dup3\n        /* \"#utility.yul\":5476:5494   */\n      add\n        /* \"#utility.yul\":5468:5494   */\n      swap1\n      pop\n        /* \"#utility.yul\":5504:5575   */\n      tag_282\n        /* \"#utility.yul\":5572:5573   */\n      0x00\n        /* \"#utility.yul\":5561:5570   */\n      dup4\n        /* \"#utility.yul\":5557:5574   */\n      add\n        /* \"#utility.yul\":5548:5554   */\n      dup5\n        /* \"#utility.yul\":5504:5575   */\n      tag_193\n      jump\t// in\n    tag_282:\n        /* \"#utility.yul\":5360:5582   */\n      swap3\n      swap2\n      pop\n      pop\n      jump\t// out\n        /* \"#utility.yul\":5588:5705   */\n    tag_194:\n        /* \"#utility.yul\":5697:5698   */\n      0x00\n        /* \"#utility.yul\":5694:5695   */\n      dup1\n        /* \"#utility.yul\":5687:5699   */\n      revert\n        /* \"#utility.yul\":5711:5828   */\n    tag_195:\n        /* \"#utility.yul\":5820:5821   */\n      0x00\n        /* \"#utility.yul\":5817:5818   */\n      dup1\n        /* \"#utility.yul\":5810:5822   */\n      revert\n        /* \"#utility.yul\":5834:6014   */\n    tag_196:\n        /* \"#utility.yul\":5882:5959   */\n      0x4e487b7100000000000000000000000000000000000000000000000000000000\n        /* \"#utility.yul\":5879:5880   */\n      0x00\n        /* \"#utility.yul\":5872:5960   */\n      mstore\n        /* \"#utility.yul\":5979:5983   */\n      0x41\n        /* \"#utility.yul\":5976:5977   */\n      0x04\n        /* \"#utility.yul\":5969:5984   */\n      mstore\n        /* \"#utility.yul\":6003:6007   */\n      0x24\n        /* \"#utility.yul\":6000:6001   */\n      0x00\n        /* \"#utility.yul\":5993:6008   */\n      revert\n        /* \"#utility.yul\":6020:6301   */\n    tag_197:\n        /* \"#utility.yul\":6103:6130   */\n      tag_287\n        /* \"#utility.yul\":6125:6129   */\n      dup3\n        /* \"#utility.yul\":6103:6130   */\n      tag_176\n      jump\t// in\n    tag_287:\n        /* \"#utility.yul\":6095:6101   */\n      dup2\n        /* \"#utility.yul\":6091:6131   */\n      add\n        /* \"#utility.yul\":6233:6239   */\n      dup2\n        /* \"#utility.yul\":6221:6231   */\n      dup2\n        /* \"#utility.yul\":6218:6240   */\n      lt\n        /* \"#utility.yul\":6197:6215   */\n      0xffffffffffffffff\n        /* \"#utility.yul\":6185:6195   */\n      dup3\n        /* \"#utility.yul\":6182:6216   */\n      gt\n        /* \"#utility.yul\":6179:6241   */\n      or\n        /* \"#utility.yul\":6176:6264   */\n      iszero\n      tag_288\n      jumpi\n        /* \"#utility.yul\":6244:6262   */\n      tag_289\n      tag_196\n      jump\t// in\n    tag_289:\n        /* \"#utility.yul\":6176:6264   */\n    tag_288:\n        /* \"#utility.yul\":6284:6294   */\n      dup1\n        /* \"#utility.yul\":6280:6282   */\n      0x40\n        /* \"#utility.yul\":6273:6295   */\n      mstore\n        /* \"#utility.yul\":6063:6301   */\n      pop\n        /* \"#utility.yul\":6020:6301   */\n      pop\n      pop\n      jump\t// out\n        /* \"#utility.yul\":6307:6436   */\n    tag_198:\n        /* \"#utility.yul\":6341:6347   */\n      0x00\n        /* \"#utility.yul\":6368:6388   */\n      tag_291\n      tag_178\n      jump\t// in\n    tag_291:\n        /* \"#utility.yul\":6358:6388   */\n      swap1\n      pop\n        /* \"#utility.yul\":6397:6430   */\n      tag_292\n        /* \"#utility.yul\":6425:6429   */\n      dup3\n        /* \"#utility.yul\":6417:6423   */\n      dup3\n        /* \"#utility.yul\":6397:6430   */\n      tag_197\n      jump\t// in\n    tag_292:\n        /* \"#utility.yul\":6307:6436   */\n      swap2\n      swap1\n      pop\n      jump\t// out\n        /* \"#utility.yul\":6442:6750   */\n    tag_199:\n        /* \"#utility.yul\":6504:6508   */\n      0x00\n        /* \"#utility.yul\":6594:6612   */\n      0xffffffffffffffff\n        /* \"#utility.yul\":6586:6592   */\n      dup3\n        /* \"#utility.yul\":6583:6613   */\n      gt\n        /* \"#utility.yul\":6580:6636   */\n      iszero\n      tag_294\n      jumpi\n        /* \"#utility.yul\":6616:6634   */\n      tag_295\n      tag_196\n      jump\t// in\n    tag_295:\n        /* \"#utility.yul\":6580:6636   */\n    tag_294:\n        /* \"#utility.yul\":6654:6683   */\n      tag_296\n        /* \"#utility.yul\":6676:6682   */\n      dup3\n        /* \"#utility.yul\":6654:6683   */\n      tag_176\n      jump\t// in\n    tag_296:\n        /* \"#utility.yul\":6646:6683   */\n      swap1\n      pop\n        /* \"#utility.yul\":6738:6742   */\n      0x20\n        /* \"#utility.yul\":6732:6736   */\n      dup2\n        /* \"#utility.yul\":6728:6743   */\n      add\n        /* \"#utility.yul\":6720:6743   */\n      swap1\n      pop\n        /* \"#utility.yul\":6442:6750   */\n      swap2\n      swap1\n      pop\n      jump\t// out\n        /* \"#utility.yul\":6756:6910   */\n    tag_200:\n        /* \"#utility.yul\":6840:6846   */\n      dup3\n        /* \"#utility.yul\":6835:6838   */\n      dup2\n        /* \"#utility.yul\":6830:6833   */\n      dup4\n        /* \"#utility.yul\":6817:6847   */\n      calldatacopy\n        /* \"#utility.yul\":6902:6903   */\n      0x00\n        /* \"#utility.yul\":6893:6899   */\n      dup4\n        /* \"#utility.yul\":6888:6891   */\n      dup4\n        /* \"#utility.yul\":6884:6900   */\n      add\n        /* \"#utility.yul\":6877:6904   */\n      mstore\n        /* \"#utility.yul\":6756:6910   */\n      pop\n      pop\n      pop\n      jump\t// out\n        /* \"#utility.yul\":6916:7328   */\n    tag_201:\n        /* \"#utility.yul\":6994:6999   */\n      0x00\n        /* \"#utility.yul\":7019:7085   */\n      tag_299\n        /* \"#utility.yul\":7035:7084   */\n      tag_300\n        /* \"#utility.yul\":7077:7083   */\n      dup5\n        /* \"#utility.yul\":7035:7084   */\n      tag_199\n      jump\t// in\n    tag_300:\n        /* \"#utility.yul\":7019:7085   */\n      tag_198\n      jump\t// in\n    tag_299:\n        /* \"#utility.yul\":7010:7085   */\n      swap1\n      pop\n        /* \"#utility.yul\":7108:7114   */\n      dup3\n        /* \"#utility.yul\":7101:7106   */\n      dup2\n        /* \"#utility.yul\":7094:7115   */\n      mstore\n        /* \"#utility.yul\":7146:7150   */\n      0x20\n        /* \"#utility.yul\":7139:7144   */\n      dup2\n        /* \"#utility.yul\":7135:7151   */\n      add\n        /* \"#utility.yul\":7184:7187   */\n      dup5\n        /* \"#utility.yul\":7175:7181   */\n      dup5\n        /* \"#utility.yul\":7170:7173   */\n      dup5\n        /* \"#utility.yul\":7166:7182   */\n      add\n        /* \"#utility.yul\":7163:7188   */\n      gt\n        /* \"#utility.yul\":7160:7272   */\n      iszero\n      tag_301\n      jumpi\n        /* \"#utility.yul\":7191:7270   */\n      tag_302\n      tag_195\n      jump\t// in\n    tag_302:\n        /* \"#utility.yul\":7160:7272   */\n    tag_301:\n        /* \"#utility.yul\":7281:7322   */\n      tag_303\n        /* \"#utility.yul\":7315:7321   */\n      dup5\n        /* \"#utility.yul\":7310:7313   */\n      dup3\n        /* \"#utility.yul\":7305:7308   */\n      dup6\n        /* \"#utility.yul\":7281:7322   */\n      tag_200\n      jump\t// in\n    tag_303:\n        /* \"#utility.yul\":7000:7328   */\n      pop\n        /* \"#utility.yul\":6916:7328   */\n      swap4\n      swap3\n      pop\n      pop\n      pop\n      jump\t// out\n        /* \"#utility.yul\":7348:7688   */\n    tag_202:\n        /* \"#utility.yul\":7404:7409   */\n      0x00\n        /* \"#utility.yul\":7453:7456   */\n      dup3\n        /* \"#utility.yul\":7446:7450   */\n      0x1f\n        /* \"#utility.yul\":7438:7444   */\n      dup4\n        /* \"#utility.yul\":7434:7451   */\n      add\n        /* \"#utility.yul\":7430:7457   */\n      slt\n        /* \"#utility.yul\":7420:7542   */\n      tag_305\n      jumpi\n        /* \"#utility.yul\":7461:7540   */\n      tag_306\n      tag_194\n      jump\t// in\n    tag_306:\n        /* \"#utility.yul\":7420:7542   */\n    tag_305:\n        /* \"#utility.yul\":7578:7584   */\n      dup2\n        /* \"#utility.yul\":7565:7585   */\n      calldataload\n        /* \"#utility.yul\":7603:7682   */\n      tag_307\n        /* \"#utility.yul\":7678:7681   */\n      dup5\n        /* \"#utility.yul\":7670:7676   */\n      dup3\n        /* \"#utility.yul\":7663:7667   */\n      0x20\n        /* \"#utility.yul\":7655:7661   */\n      dup7\n        /* \"#utility.yul\":7651:7668   */\n      add\n        /* \"#utility.yul\":7603:7682   */\n      tag_201\n      jump\t// in\n    tag_307:\n        /* \"#utility.yul\":7594:7682   */\n      swap2\n      pop\n        /* \"#utility.yul\":7410:7688   */\n      pop\n        /* \"#utility.yul\":7348:7688   */\n      swap3\n      swap2\n      pop\n      pop\n      jump\t// out\n        /* \"#utility.yul\":7694:8203   */\n    tag_65:\n        /* \"#utility.yul\":7763:7769   */\n      0x00\n        /* \"#utility.yul\":7812:7814   */\n      0x20\n        /* \"#utility.yul\":7800:7809   */\n      dup3\n        /* \"#utility.yul\":7791:7798   */\n      dup5\n        /* \"#utility.yul\":7787:7810   */\n      sub\n        /* \"#utility.yul\":7783:7815   */\n      slt\n        /* \"#utility.yul\":7780:7899   */\n      iszero\n      tag_309\n      jumpi\n        /* \"#utility.yul\":7818:7897   */\n      tag_310\n      tag_179\n      jump\t// in\n    tag_310:\n        /* \"#utility.yul\":7780:7899   */\n    tag_309:\n        /* \"#utility.yul\":7966:7967   */\n      0x00\n        /* \"#utility.yul\":7955:7964   */\n      dup3\n        /* \"#utility.yul\":7951:7968   */\n      add\n        /* \"#utility.yul\":7938:7969   */\n      calldataload\n        /* \"#utility.yul\":7996:8014   */\n      0xffffffffffffffff\n        /* \"#utility.yul\":7988:7994   */\n      dup2\n        /* \"#utility.yul\":7985:8015   */\n      gt\n        /* \"#utility.yul\":7982:8099   */\n      iszero\n      tag_311\n      jumpi\n        /* \"#utility.yul\":8018:8097   */\n      tag_312\n      tag_180\n      jump\t// in\n    tag_312:\n        /* \"#utility.yul\":7982:8099   */\n    tag_311:\n        /* \"#utility.yul\":8123:8186   */\n      tag_313\n        /* \"#utility.yul\":8178:8185   */\n      dup5\n        /* \"#utility.yul\":8169:8175   */\n      dup3\n        /* \"#utility.yul\":8158:8167   */\n      dup6\n        /* \"#utility.yul\":8154:8176   */\n      add\n        /* \"#utility.yul\":8123:8186   */\n      tag_202\n      jump\t// in\n    tag_313:\n        /* \"#utility.yul\":8113:8186   */\n      swap2\n      pop\n        /* \"#utility.yul\":7909:8196   */\n      pop\n        /* \"#utility.yul\":7694:8203   */\n      swap3\n      swap2\n      pop\n      pop\n      jump\t// out\n        /* \"#utility.yul\":8209:8683   */\n    tag_77:\n        /* \"#utility.yul\":8277:8283   */\n      0x00\n        /* \"#utility.yul\":8285:8291   */\n      dup1\n        /* \"#utility.yul\":8334:8336   */\n      0x40\n        /* \"#utility.yul\":8322:8331   */\n      dup4\n        /* \"#utility.yul\":8313:8320   */\n      dup6\n        /* \"#utility.yul\":8309:8332   */\n      sub\n        /* \"#utility.yul\":8305:8337   */\n      slt\n        /* \"#utility.yul\":8302:8421   */\n      iszero\n      tag_315\n      jumpi\n        /* \"#utility.yul\":8340:8419   */\n      tag_316\n      tag_179\n      jump\t// in\n    tag_316:\n        /* \"#utility.yul\":8302:8421   */\n    tag_315:\n        /* \"#utility.yul\":8460:8461   */\n      0x00\n        /* \"#utility.yul\":8485:8538   */\n      tag_317\n        /* \"#utility.yul\":8530:8537   */\n      dup6\n        /* \"#utility.yul\":8521:8527   */\n      dup3\n        /* \"#utility.yul\":8510:8519   */\n      dup7\n        /* \"#utility.yul\":8506:8528   */\n      add\n        /* \"#utility.yul\":8485:8538   */\n      tag_184\n      jump\t// in\n    tag_317:\n        /* \"#utility.yul\":8475:8538   */\n      swap3\n      pop\n        /* \"#utility.yul\":8431:8548   */\n      pop\n        /* \"#utility.yul\":8587:8589   */\n      0x20\n        /* \"#utility.yul\":8613:8666   */\n      tag_318\n        /* \"#utility.yul\":8658:8665   */\n      dup6\n        /* \"#utility.yul\":8649:8655   */\n      dup3\n        /* \"#utility.yul\":8638:8647   */\n      dup7\n        /* \"#utility.yul\":8634:8656   */\n      add\n        /* \"#utility.yul\":8613:8666   */\n      tag_184\n      jump\t// in\n    tag_318:\n        /* \"#utility.yul\":8603:8666   */\n      swap2\n      pop\n        /* \"#utility.yul\":8558:8676   */\n      pop\n        /* \"#utility.yul\":8209:8683   */\n      swap3\n      pop\n      swap3\n      swap1\n      pop\n      jump\t// out\n        /* \"#utility.yul\":8689:8869   */\n    tag_203:\n        /* \"#utility.yul\":8737:8814   */\n      0x4e487b7100000000000000000000000000000000000000000000000000000000\n        /* \"#utility.yul\":8734:8735   */\n      0x00\n        /* \"#utility.yul\":8727:8815   */\n      mstore\n        /* \"#utility.yul\":8834:8838   */\n      0x22\n        /* \"#utility.yul\":8831:8832   */\n      0x04\n        /* \"#utility.yul\":8824:8839   */\n      mstore\n        /* \"#utility.yul\":8858:8862   */\n      0x24\n        /* \"#utility.yul\":8855:8856   */\n      0x00\n        /* \"#utility.yul\":8848:8863   */\n      revert\n        /* \"#utility.yul\":8875:9195   */\n    tag_83:\n        /* \"#utility.yul\":8919:8925   */\n      0x00\n        /* \"#utility.yul\":8956:8957   */\n      0x02\n        /* \"#utility.yul\":8950:8954   */\n      dup3\n        /* \"#utility.yul\":8946:8958   */\n      div\n        /* \"#utility.yul\":8936:8958   */\n      swap1\n      pop\n        /* \"#utility.yul\":9003:9004   */\n      0x01\n        /* \"#utility.yul\":8997:9001   */\n      dup3\n        /* \"#utility.yul\":8993:9005   */\n      and\n        /* \"#utility.yul\":9024:9042   */\n      dup1\n        /* \"#utility.yul\":9014:9095   */\n      tag_321\n      jumpi\n        /* \"#utility.yul\":9080:9084   */\n      0x7f\n        /* \"#utility.yul\":9072:9078   */\n      dup3\n        /* \"#utility.yul\":9068:9085   */\n      and\n        /* \"#utility.yul\":9058:9085   */\n      swap2\n      pop\n        /* \"#utility.yul\":9014:9095   */\n    tag_321:\n        /* \"#utility.yul\":9142:9144   */\n      0x20\n        /* \"#utility.yul\":9134:9140   */\n      dup3\n        /* \"#utility.yul\":9131:9145   */\n      lt\n        /* \"#utility.yul\":9111:9129   */\n      dup2\n        /* \"#utility.yul\":9108:9146   */\n      eq\n        /* \"#utility.yul\":9105:9189   */\n      iszero\n      tag_322\n      jumpi\n        /* \"#utility.yul\":9161:9179   */\n      tag_323\n      tag_203\n      jump\t// in\n    tag_323:\n        /* \"#utility.yul\":9105:9189   */\n    tag_322:\n        /* \"#utility.yul\":8926:9195   */\n      pop\n        /* \"#utility.yul\":8875:9195   */\n      swap2\n      swap1\n      pop\n      jump\t// out\n        /* \"#utility.yul\":9201:9430   */\n    tag_204:\n        /* \"#utility.yul\":9341:9375   */\n      0x412072656e616d696e672070726f6365737320697320616c726561647920696e\n        /* \"#utility.yul\":9337:9338   */\n      0x00\n        /* \"#utility.yul\":9329:9335   */\n      dup3\n        /* \"#utility.yul\":9325:9339   */\n      add\n        /* \"#utility.yul\":9318:9376   */\n      mstore\n        /* \"#utility.yul\":9410:9422   */\n      0x2070726f67726573732e00000000000000000000000000000000000000000000\n        /* \"#utility.yul\":9405:9407   */\n      0x20\n        /* \"#utility.yul\":9397:9403   */\n      dup3\n        /* \"#utility.yul\":9393:9408   */\n      add\n        /* \"#utility.yul\":9386:9423   */\n      mstore\n        /* \"#utility.yul\":9201:9430   */\n      pop\n      jump\t// out\n        /* \"#utility.yul\":9436:9802   */\n    tag_205:\n        /* \"#utility.yul\":9578:9581   */\n      0x00\n        /* \"#utility.yul\":9599:9666   */\n      tag_326\n        /* \"#utility.yul\":9663:9665   */\n      0x2a\n        /* \"#utility.yul\":9658:9661   */\n      dup4\n        /* \"#utility.yul\":9599:9666   */\n      tag_174\n      jump\t// in\n    tag_326:\n        /* \"#utility.yul\":9592:9666   */\n      swap2\n      pop\n        /* \"#utility.yul\":9675:9768   */\n      tag_327\n        /* \"#utility.yul\":9764:9767   */\n      dup3\n        /* \"#utility.yul\":9675:9768   */\n      tag_204\n      jump\t// in\n    tag_327:\n        /* \"#utility.yul\":9793:9795   */\n      0x40\n        /* \"#utility.yul\":9788:9791   */\n      dup3\n        /* \"#utility.yul\":9784:9796   */\n      add\n        /* \"#utility.yul\":9777:9796   */\n      swap1\n      pop\n        /* \"#utility.yul\":9436:9802   */\n      swap2\n      swap1\n      pop\n      jump\t// out\n        /* \"#utility.yul\":9808:10227   */\n    tag_111:\n        /* \"#utility.yul\":9974:9978   */\n      0x00\n        /* \"#utility.yul\":10012:10014   */\n      0x20\n        /* \"#utility.yul\":10001:10010   */\n      dup3\n        /* \"#utility.yul\":9997:10015   */\n      add\n        /* \"#utility.yul\":9989:10015   */\n      swap1\n      pop\n        /* \"#utility.yul\":10061:10070   */\n      dup2\n        /* \"#utility.yul\":10055:10059   */\n      dup2\n        /* \"#utility.yul\":10051:10071   */\n      sub\n        /* \"#utility.yul\":10047:10048   */\n      0x00\n        /* \"#utility.yul\":10036:10045   */\n      dup4\n        /* \"#utility.yul\":10032:10049   */\n      add\n        /* \"#utility.yul\":10025:10072   */\n      mstore\n        /* \"#utility.yul\":10089:10220   */\n      tag_329\n        /* \"#utility.yul\":10215:10219   */\n      dup2\n        /* \"#utility.yul\":10089:10220   */\n      tag_205\n      jump\t// in\n    tag_329:\n        /* \"#utility.yul\":10081:10220   */\n      swap1\n      pop\n        /* \"#utility.yul\":9808:10227   */\n      swap2\n      swap1\n      pop\n      jump\t// out\n        /* \"#utility.yul\":10233:10457   */\n    tag_206:\n        /* \"#utility.yul\":10373:10407   */\n      0x4f6e6c7920746865206f776e65722063616e20696e6974696174652072656e61\n        /* \"#utility.yul\":10369:10370   */\n      0x00\n        /* \"#utility.yul\":10361:10367   */\n      dup3\n        /* \"#utility.yul\":10357:10371   */\n      add\n        /* \"#utility.yul\":10350:10408   */\n      mstore\n        /* \"#utility.yul\":10442:10449   */\n      0x6d696e672e000000000000000000000000000000000000000000000000000000\n        /* \"#utility.yul\":10437:10439   */\n      0x20\n        /* \"#utility.yul\":10429:10435   */\n      dup3\n        /* \"#utility.yul\":10425:10440   */\n      add\n        /* \"#utility.yul\":10418:10450   */\n      mstore\n        /* \"#utility.yul\":10233:10457   */\n      pop\n      jump\t// out\n        /* \"#utility.yul\":10463:10829   */\n    tag_207:\n        /* \"#utility.yul\":10605:10608   */\n      0x00\n        /* \"#utility.yul\":10626:10693   */\n      tag_332\n        /* \"#utility.yul\":10690:10692   */\n      0x25\n        /* \"#utility.yul\":10685:10688   */\n      dup4\n        /* \"#utility.yul\":10626:10693   */\n      tag_174\n      jump\t// in\n    tag_332:\n        /* \"#utility.yul\":10619:10693   */\n      swap2\n      pop\n        /* \"#utility.yul\":10702:10795   */\n      tag_333\n        /* \"#utility.yul\":10791:10794   */\n      dup3\n        /* \"#utility.yul\":10702:10795   */\n      tag_206\n      jump\t// in\n    tag_333:\n        /* \"#utility.yul\":10820:10822   */\n      0x40\n        /* \"#utility.yul\":10815:10818   */\n      dup3\n        /* \"#utility.yul\":10811:10823   */\n      add\n        /* \"#utility.yul\":10804:10823   */\n      swap1\n      pop\n        /* \"#utility.yul\":10463:10829   */\n      swap2\n      swap1\n      pop\n      jump\t// out\n        /* \"#utility.yul\":10835:11254   */\n    tag_114:\n        /* \"#utility.yul\":11001:11005   */\n      0x00\n        /* \"#utility.yul\":11039:11041   */\n      0x20\n        /* \"#utility.yul\":11028:11037   */\n      dup3\n        /* \"#utility.yul\":11024:11042   */\n      add\n        /* \"#utility.yul\":11016:11042   */\n      swap1\n      pop\n        /* \"#utility.yul\":11088:11097   */\n      dup2\n        /* \"#utility.yul\":11082:11086   */\n      dup2\n        /* \"#utility.yul\":11078:11098   */\n      sub\n        /* \"#utility.yul\":11074:11075   */\n      0x00\n        /* \"#utility.yul\":11063:11072   */\n      dup4\n        /* \"#utility.yul\":11059:11076   */\n      add\n        /* \"#utility.yul\":11052:11099   */\n      mstore\n        /* \"#utility.yul\":11116:11247   */\n      tag_335\n        /* \"#utility.yul\":11242:11246   */\n      dup2\n        /* \"#utility.yul\":11116:11247   */\n      tag_207\n      jump\t// in\n    tag_335:\n        /* \"#utility.yul\":11108:11247   */\n      swap1\n      pop\n        /* \"#utility.yul\":10835:11254   */\n      swap2\n      swap1\n      pop\n      jump\t// out\n        /* \"#utility.yul\":11260:11483   */\n    tag_208:\n        /* \"#utility.yul\":11400:11434   */\n      0x4f6e6c7920746865206f776e65722063616e20636f6e6669726d2072656e616d\n        /* \"#utility.yul\":11396:11397   */\n      0x00\n        /* \"#utility.yul\":11388:11394   */\n      dup3\n        /* \"#utility.yul\":11384:11398   */\n      add\n        /* \"#utility.yul\":11377:11435   */\n      mstore\n        /* \"#utility.yul\":11469:11475   */\n      0x696e672e00000000000000000000000000000000000000000000000000000000\n        /* \"#utility.yul\":11464:11466   */\n      0x20\n        /* \"#utility.yul\":11456:11462   */\n      dup3\n        /* \"#utility.yul\":11452:11467   */\n      add\n        /* \"#utility.yul\":11445:11476   */\n      mstore\n        /* \"#utility.yul\":11260:11483   */\n      pop\n      jump\t// out\n        /* \"#utility.yul\":11489:11855   */\n    tag_209:\n        /* \"#utility.yul\":11631:11634   */\n      0x00\n        /* \"#utility.yul\":11652:11719   */\n      tag_338\n        /* \"#utility.yul\":11716:11718   */\n      0x24\n        /* \"#utility.yul\":11711:11714   */\n      dup4\n        /* \"#utility.yul\":11652:11719   */\n      tag_174\n      jump\t// in\n    tag_338:\n        /* \"#utility.yul\":11645:11719   */\n      swap2\n      pop\n        /* \"#utility.yul\":11728:11821   */\n      tag_339\n        /* \"#utility.yul\":11817:11820   */\n      dup3\n        /* \"#utility.yul\":11728:11821   */\n      tag_208\n      jump\t// in\n    tag_339:\n        /* \"#utility.yul\":11846:11848   */\n      0x40\n        /* \"#utility.yul\":11841:11844   */\n      dup3\n        /* \"#utility.yul\":11837:11849   */\n      add\n        /* \"#utility.yul\":11830:11849   */\n      swap1\n      pop\n        /* \"#utility.yul\":11489:11855   */\n      swap2\n      swap1\n      pop\n      jump\t// out\n        /* \"#utility.yul\":11861:12280   */\n    tag_132:\n        /* \"#utility.yul\":12027:12031   */\n      0x00\n        /* \"#utility.yul\":12065:12067   */\n      0x20\n        /* \"#utility.yul\":12054:12063   */\n      dup3\n        /* \"#utility.yul\":12050:12068   */\n      add\n        /* \"#utility.yul\":12042:12068   */\n      swap1\n      pop\n        /* \"#utility.yul\":12114:12123   */\n      dup2\n        /* \"#utility.yul\":12108:12112   */\n      dup2\n        /* \"#utility.yul\":12104:12124   */\n      sub\n        /* \"#utility.yul\":12100:12101   */\n      0x00\n        /* \"#utility.yul\":12089:12098   */\n      dup4\n        /* \"#utility.yul\":12085:12102   */\n      add\n        /* \"#utility.yul\":12078:12125   */\n      mstore\n        /* \"#utility.yul\":12142:12273   */\n      tag_341\n        /* \"#utility.yul\":12268:12272   */\n      dup2\n        /* \"#utility.yul\":12142:12273   */\n      tag_209\n      jump\t// in\n    tag_341:\n        /* \"#utility.yul\":12134:12273   */\n      swap1\n      pop\n        /* \"#utility.yul\":11861:12280   */\n      swap2\n      swap1\n      pop\n      jump\t// out\n        /* \"#utility.yul\":12286:12508   */\n    tag_210:\n        /* \"#utility.yul\":12426:12460   */\n      0x4e6f2072656e616d696e672070726f6365737320697320696e2070726f677265\n        /* \"#utility.yul\":12422:12423   */\n      0x00\n        /* \"#utility.yul\":12414:12420   */\n      dup3\n        /* \"#utility.yul\":12410:12424   */\n      add\n        /* \"#utility.yul\":12403:12461   */\n      mstore\n        /* \"#utility.yul\":12495:12500   */\n      0x73732e0000000000000000000000000000000000000000000000000000000000\n        /* \"#utility.yul\":12490:12492   */\n      0x20\n        /* \"#utility.yul\":12482:12488   */\n      dup3\n        /* \"#utility.yul\":12478:12493   */\n      add\n        /* \"#utility.yul\":12471:12501   */\n      mstore\n        /* \"#utility.yul\":12286:12508   */\n      pop\n      jump\t// out\n        /* \"#utility.yul\":12514:12880   */\n    tag_211:\n        /* \"#utility.yul\":12656:12659   */\n      0x00\n        /* \"#utility.yul\":12677:12744   */\n      tag_344\n        /* \"#utility.yul\":12741:12743   */\n      0x23\n        /* \"#utility.yul\":12736:12739   */\n      dup4\n        /* \"#utility.yul\":12677:12744   */\n      tag_174\n      jump\t// in\n    tag_344:\n        /* \"#utility.yul\":12670:12744   */\n      swap2\n      pop\n        /* \"#utility.yul\":12753:12846   */\n      tag_345\n        /* \"#utility.yul\":12842:12845   */\n      dup3\n        /* \"#utility.yul\":12753:12846   */\n      tag_210\n      jump\t// in\n    tag_345:\n        /* \"#utility.yul\":12871:12873   */\n      0x40\n        /* \"#utility.yul\":12866:12869   */\n      dup3\n        /* \"#utility.yul\":12862:12874   */\n      add\n        /* \"#utility.yul\":12855:12874   */\n      swap1\n      pop\n        /* \"#utility.yul\":12514:12880   */\n      swap2\n      swap1\n      pop\n      jump\t// out\n        /* \"#utility.yul\":12886:13305   */\n    tag_135:\n        /* \"#utility.yul\":13052:13056   */\n      0x00\n        /* \"#utility.yul\":13090:13092   */\n      0x20\n        /* \"#utility.yul\":13079:13088   */\n      dup3\n        /* \"#utility.yul\":13075:13093   */\n      add\n        /* \"#utility.yul\":13067:13093   */\n      swap1\n      pop\n        /* \"#utility.yul\":13139:13148   */\n      dup2\n        /* \"#utility.yul\":13133:13137   */\n      dup2\n        /* \"#utility.yul\":13129:13149   */\n      sub\n        /* \"#utility.yul\":13125:13126   */\n      0x00\n        /* \"#utility.yul\":13114:13123   */\n      dup4\n        /* \"#utility.yul\":13110:13127   */\n      add\n        /* \"#utility.yul\":13103:13150   */\n      mstore\n        /* \"#utility.yul\":13167:13298   */\n      tag_347\n        /* \"#utility.yul\":13293:13297   */\n      dup2\n        /* \"#utility.yul\":13167:13298   */\n      tag_211\n      jump\t// in\n    tag_347:\n        /* \"#utility.yul\":13159:13298   */\n      swap1\n      pop\n        /* \"#utility.yul\":12886:13305   */\n      swap2\n      swap1\n      pop\n      jump\t// out\n        /* \"#utility.yul\":13311:13491   */\n    tag_212:\n        /* \"#utility.yul\":13359:13436   */\n      0x4e487b7100000000000000000000000000000000000000000000000000000000\n        /* \"#utility.yul\":13356:13357   */\n      0x00\n        /* \"#utility.yul\":13349:13437   */\n      mstore\n        /* \"#utility.yul\":13456:13460   */\n      0x11\n        /* \"#utility.yul\":13453:13454   */\n      0x04\n        /* \"#utility.yul\":13446:13461   */\n      mstore\n        /* \"#utility.yul\":13480:13484   */\n      0x24\n        /* \"#utility.yul\":13477:13478   */\n      0x00\n        /* \"#utility.yul\":13470:13485   */\n      revert\n        /* \"#utility.yul\":13497:13688   */\n    tag_142:\n        /* \"#utility.yul\":13537:13541   */\n      0x00\n        /* \"#utility.yul\":13557:13577   */\n      tag_350\n        /* \"#utility.yul\":13575:13576   */\n      dup3\n        /* \"#utility.yul\":13557:13577   */\n      tag_185\n      jump\t// in\n    tag_350:\n        /* \"#utility.yul\":13552:13577   */\n      swap2\n      pop\n        /* \"#utility.yul\":13591:13611   */\n      tag_351\n        /* \"#utility.yul\":13609:13610   */\n      dup4\n        /* \"#utility.yul\":13591:13611   */\n      tag_185\n      jump\t// in\n    tag_351:\n        /* \"#utility.yul\":13586:13611   */\n      swap3\n      pop\n        /* \"#utility.yul\":13630:13631   */\n      dup3\n        /* \"#utility.yul\":13627:13628   */\n      dup3\n        /* \"#utility.yul\":13624:13632   */\n      lt\n        /* \"#utility.yul\":13621:13655   */\n      iszero\n      tag_352\n      jumpi\n        /* \"#utility.yul\":13635:13653   */\n      tag_353\n      tag_212\n      jump\t// in\n    tag_353:\n        /* \"#utility.yul\":13621:13655   */\n    tag_352:\n        /* \"#utility.yul\":13680:13681   */\n      dup3\n        /* \"#utility.yul\":13677:13678   */\n      dup3\n        /* \"#utility.yul\":13673:13682   */\n      sub\n        /* \"#utility.yul\":13665:13682   */\n      swap1\n      pop\n        /* \"#utility.yul\":13497:13688   */\n      swap3\n      swap2\n      pop\n      pop\n      jump\t// out\n        /* \"#utility.yul\":13694:13865   */\n    tag_213:\n        /* \"#utility.yul\":13834:13857   */\n      0x64732d6d6174682d7375622d756e646572666c6f770000000000000000000000\n        /* \"#utility.yul\":13830:13831   */\n      0x00\n        /* \"#utility.yul\":13822:13828   */\n      dup3\n        /* \"#utility.yul\":13818:13832   */\n      add\n        /* \"#utility.yul\":13811:13858   */\n      mstore\n        /* \"#utility.yul\":13694:13865   */\n      pop\n      jump\t// out\n        /* \"#utility.yul\":13871:14237   */\n    tag_214:\n        /* \"#utility.yul\":14013:14016   */\n      0x00\n        /* \"#utility.yul\":14034:14101   */\n      tag_356\n        /* \"#utility.yul\":14098:14100   */\n      0x15\n        /* \"#utility.yul\":14093:14096   */\n      dup4\n        /* \"#utility.yul\":14034:14101   */\n      tag_174\n      jump\t// in\n    tag_356:\n        /* \"#utility.yul\":14027:14101   */\n      swap2\n      pop\n        /* \"#utility.yul\":14110:14203   */\n      tag_357\n        /* \"#utility.yul\":14199:14202   */\n      dup3\n        /* \"#utility.yul\":14110:14203   */\n      tag_213\n      jump\t// in\n    tag_357:\n        /* \"#utility.yul\":14228:14230   */\n      0x20\n        /* \"#utility.yul\":14223:14226   */\n      dup3\n        /* \"#utility.yul\":14219:14231   */\n      add\n        /* \"#utility.yul\":14212:14231   */\n      swap1\n      pop\n        /* \"#utility.yul\":13871:14237   */\n      swap2\n      swap1\n      pop\n      jump\t// out\n        /* \"#utility.yul\":14243:14662   */\n    tag_145:\n        /* \"#utility.yul\":14409:14413   */\n      0x00\n        /* \"#utility.yul\":14447:14449   */\n      0x20\n        /* \"#utility.yul\":14436:14445   */\n      dup3\n        /* \"#utility.yul\":14432:14450   */\n      add\n        /* \"#utility.yul\":14424:14450   */\n      swap1\n      pop\n        /* \"#utility.yul\":14496:14505   */\n      dup2\n        /* \"#utility.yul\":14490:14494   */\n      dup2\n        /* \"#utility.yul\":14486:14506   */\n      sub\n        /* \"#utility.yul\":14482:14483   */\n      0x00\n        /* \"#utility.yul\":14471:14480   */\n      dup4\n        /* \"#utility.yul\":14467:14484   */\n      add\n        /* \"#utility.yul\":14460:14507   */\n      mstore\n        /* \"#utility.yul\":14524:14655   */\n      tag_359\n        /* \"#utility.yul\":14650:14654   */\n      dup2\n        /* \"#utility.yul\":14524:14655   */\n      tag_214\n      jump\t// in\n    tag_359:\n        /* \"#utility.yul\":14516:14655   */\n      swap1\n      pop\n        /* \"#utility.yul\":14243:14662   */\n      swap2\n      swap1\n      pop\n      jump\t// out\n        /* \"#utility.yul\":14668:14973   */\n    tag_152:\n        /* \"#utility.yul\":14708:14711   */\n      0x00\n        /* \"#utility.yul\":14727:14747   */\n      tag_361\n        /* \"#utility.yul\":14745:14746   */\n      dup3\n        /* \"#utility.yul\":14727:14747   */\n      tag_185\n      jump\t// in\n    tag_361:\n        /* \"#utility.yul\":14722:14747   */\n      swap2\n      pop\n        /* \"#utility.yul\":14761:14781   */\n      tag_362\n        /* \"#utility.yul\":14779:14780   */\n      dup4\n        /* \"#utility.yul\":14761:14781   */\n      tag_185\n      jump\t// in\n    tag_362:\n        /* \"#utility.yul\":14756:14781   */\n      swap3\n      pop\n        /* \"#utility.yul\":14915:14916   */\n      dup3\n        /* \"#utility.yul\":14847:14913   */\n      0xffffffffffffffffffffffffffffffffffffffffffffffffffffffffffffffff\n        /* \"#utility.yul\":14843:14917   */\n      sub\n        /* \"#utility.yul\":14840:14841   */\n      dup3\n        /* \"#utility.yul\":14837:14918   */\n      gt\n        /* \"#utility.yul\":14834:14941   */\n      iszero\n      tag_363\n      jumpi\n        /* \"#utility.yul\":14921:14939   */\n      tag_364\n      tag_212\n      jump\t// in\n    tag_364:\n        /* \"#utility.yul\":14834:14941   */\n    tag_363:\n        /* \"#utility.yul\":14965:14966   */\n      dup3\n        /* \"#utility.yul\":14962:14963   */\n      dup3\n        /* \"#utility.yul\":14958:14967   */\n      add\n        /* \"#utility.yul\":14951:14967   */\n      swap1\n      pop\n        /* \"#utility.yul\":14668:14973   */\n      swap3\n      swap2\n      pop\n      pop\n      jump\t// out\n        /* \"#utility.yul\":14979:15149   */\n    tag_215:\n        /* \"#utility.yul\":15119:15141   */\n      0x64732d6d6174682d6164642d6f766572666c6f77000000000000000000000000\n        /* \"#utility.yul\":15115:15116   */\n      0x00\n        /* \"#utility.yul\":15107:15113   */\n      dup3\n        /* \"#utility.yul\":15103:15117   */\n      add\n        /* \"#utility.yul\":15096:15142   */\n      mstore\n        /* \"#utility.yul\":14979:15149   */\n      pop\n      jump\t// out\n        /* \"#utility.yul\":15155:15521   */\n    tag_216:\n        /* \"#utility.yul\":15297:15300   */\n      0x00\n        /* \"#utility.yul\":15318:15385   */\n      tag_367\n        /* \"#utility.yul\":15382:15384   */\n      0x14\n        /* \"#utility.yul\":15377:15380   */\n      dup4\n        /* \"#utility.yul\":15318:15385   */\n      tag_174\n      jump\t// in\n    tag_367:\n        /* \"#utility.yul\":15311:15385   */\n      swap2\n      pop\n        /* \"#utility.yul\":15394:15487   */\n      tag_368\n        /* \"#utility.yul\":15483:15486   */\n      dup3\n        /* \"#utility.yul\":15394:15487   */\n      tag_215\n      jump\t// in\n    tag_368:\n        /* \"#utility.yul\":15512:15514   */\n      0x20\n        /* \"#utility.yul\":15507:15510   */\n      dup3\n        /* \"#utility.yul\":15503:15515   */\n      add\n        /* \"#utility.yul\":15496:15515   */\n      swap1\n      pop\n        /* \"#utility.yul\":15155:15521   */\n      swap2\n      swap1\n      pop\n      jump\t// out\n        /* \"#utility.yul\":15527:15946   */\n    tag_155:\n        /* \"#utility.yul\":15693:15697   */\n      0x00\n        /* \"#utility.yul\":15731:15733   */\n      0x20\n        /* \"#utility.yul\":15720:15729   */\n      dup3\n        /* \"#utility.yul\":15716:15734   */\n      add\n        /* \"#utility.yul\":15708:15734   */\n      swap1\n      pop\n        /* \"#utility.yul\":15780:15789   */\n      dup2\n        /* \"#utility.yul\":15774:15778   */\n      dup2\n        /* \"#utility.yul\":15770:15790   */\n      sub\n        /* \"#utility.yul\":15766:15767   */\n      0x00\n        /* \"#utility.yul\":15755:15764   */\n      dup4\n        /* \"#utility.yul\":15751:15768   */\n      add\n        /* \"#utility.yul\":15744:15791   */\n      mstore\n        /* \"#utility.yul\":15808:15939   */\n      tag_370\n        /* \"#utility.yul\":15934:15938   */\n      dup2\n        /* \"#utility.yul\":15808:15939   */\n      tag_216\n      jump\t// in\n    tag_370:\n        /* \"#utility.yul\":15800:15939   */\n      swap1\n      pop\n        /* \"#utility.yul\":15527:15946   */\n      swap2\n      swap1\n      pop\n      jump\t// out\n\n    auxdata: 0xa264697066735822122095a2f1656c229314bc8515904162b083a4047c56c76c64b457b415a5a04ee21264736f6c634300080c0033\n}\n",
				"bytecode": {
					"linkReferences": {},
					"object": "60806040526040518060400160405280600d81526020017f4275656e7a6c6920546f6b656e0000000000000000000000000000000000000081525060009080519060200190620000519291906200015f565b503480156200005f57600080fd5b5033600360006101000a81548173ffffffffffffffffffffffffffffffffffffffff021916908373ffffffffffffffffffffffffffffffffffffffff1602179055506509184e72a000600160003373ffffffffffffffffffffffffffffffffffffffff1673ffffffffffffffffffffffffffffffffffffffff168152602001908152602001600020819055503373ffffffffffffffffffffffffffffffffffffffff16600073ffffffffffffffffffffffffffffffffffffffff167fddf252ad1be2c89b69c2b068fc378daa952ba7f163c4a11628f55a4df523b3ef6509184e72a0006040516200015191906200022a565b60405180910390a3620002ac565b8280546200016d9062000276565b90600052602060002090601f016020900481019282620001915760008555620001dd565b82601f10620001ac57805160ff1916838001178555620001dd565b82800160010185558215620001dd579182015b82811115620001dc578251825591602001919060010190620001bf565b5b509050620001ec9190620001f0565b5090565b5b808211156200020b576000816000905550600101620001f1565b5090565b6000819050919050565b62000224816200020f565b82525050565b600060208201905062000241600083018462000219565b92915050565b7f4e487b7100000000000000000000000000000000000000000000000000000000600052602260045260246000fd5b600060028204905060018216806200028f57607f821691505b60208210811415620002a657620002a562000247565b5b50919050565b611f9d80620002bc6000396000f3fe608060405234801561001057600080fd5b50600436106100f55760003560e01c806370a0823111610097578063a457c2d711610066578063a457c2d71461028a578063a9059cbb146102ba578063dd62ed3e146102ea578063f8cf94191461031a576100f5565b806370a0823114610202578063893d20e81461023257806395d89b41146102505780639a3ea2eb1461026e576100f5565b806323b872dd116100d357806323b872dd14610166578063313ce5671461019657806339509351146101b45780633eaaf86b146101e4576100f5565b806306fdde03146100fa578063095ea7b31461011857806318160ddd14610148575b600080fd5b610102610324565b60405161010f9190611724565b60405180910390f35b610132600480360381019061012d91906117ee565b6103b2565b60405161013f9190611849565b60405180910390f35b6101506104dd565b60405161015d9190611873565b60405180910390f35b610180600480360381019061017b919061188e565b6104eb565b60405161018d9190611849565b60405180910390f35b61019e61080b565b6040516101ab91906118fd565b60405180910390f35b6101ce60048036038101906101c991906117ee565b610810565b6040516101db9190611849565b60405180910390f35b6101ec610a45565b6040516101f99190611873565b60405180910390f35b61021c60048036038101906102179190611918565b610a4f565b6040516102299190611873565b60405180910390f35b61023a610a98565b6040516102479190611954565b60405180910390f35b610258610ac2565b6040516102659190611724565b60405180910390f35b61028860048036038101906102839190611aa4565b610afb565b005b6102a4600480360381019061029f91906117ee565b610c10565b6040516102b19190611849565b60405180910390f35b6102d460048036038101906102cf91906117ee565b610e45565b6040516102e19190611849565b60405180910390f35b61030460048036038101906102ff9190611aed565b611150565b6040516103119190611873565b60405180910390f35b6103226111d7565b005b6000805461033190611b5c565b80601f016020809104026020016040519081016040528092919081815260200182805461035d90611b5c565b80156103aa5780601f1061037f576101008083540402835291602001916103aa565b820191906000526020600020905b81548152906001019060200180831161038d57829003601f168201915b505050505081565b60008073ffffffffffffffffffffffffffffffffffffffff168373ffffffffffffffffffffffffffffffffffffffff1614156103ed57600080fd5b81600260003373ffffffffffffffffffffffffffffffffffffffff1673ffffffffffffffffffffffffffffffffffffffff16815260200190815260200160002060008573ffffffffffffffffffffffffffffffffffffffff1673ffffffffffffffffffffffffffffffffffffffff168152602001908152602001600020819055508273ffffffffffffffffffffffffffffffffffffffff163373ffffffffffffffffffffffffffffffffffffffff167f8c5be1e5ebec7d5bd14f71427d1e84f3dd0314c0f7b2291e5b200ac8c7c3b925846040516104cb9190611873565b60405180910390a36001905092915050565b60006509184e72a000905090565b6000600160008573ffffffffffffffffffffffffffffffffffffffff1673ffffffffffffffffffffffffffffffffffffffff1681526020019081526020016000205482111561053957600080fd5b600260008573ffffffffffffffffffffffffffffffffffffffff1673ffffffffffffffffffffffffffffffffffffffff16815260200190815260200160002060003373ffffffffffffffffffffffffffffffffffffffff1673ffffffffffffffffffffffffffffffffffffffff168152602001908152602001600020548211156105c257600080fd5b600073ffffffffffffffffffffffffffffffffffffffff168373ffffffffffffffffffffffffffffffffffffffff1614156105fc57600080fd5b61068b82600260008773ffffffffffffffffffffffffffffffffffffffff1673ffffffffffffffffffffffffffffffffffffffff16815260200190815260200160002060003373ffffffffffffffffffffffffffffffffffffffff1673ffffffffffffffffffffffffffffffffffffffff1681526020019081526020016000205461131590919063ffffffff16565b600260008673ffffffffffffffffffffffffffffffffffffffff1673ffffffffffffffffffffffffffffffffffffffff16815260200190815260200160002060003373ffffffffffffffffffffffffffffffffffffffff1673ffffffffffffffffffffffffffffffffffffffff1681526020019081526020016000208190555061071684848461136e565b60016000600360009054906101000a900473ffffffffffffffffffffffffffffffffffffffff1673ffffffffffffffffffffffffffffffffffffffff1673ffffffffffffffffffffffffffffffffffffffff16815260200190815260200160002054600160008673ffffffffffffffffffffffffffffffffffffffff1673ffffffffffffffffffffffffffffffffffffffff1681526020019081526020016000205411156108005783600360006101000a81548173ffffffffffffffffffffffffffffffffffffffff021916908373ffffffffffffffffffffffffffffffffffffffff1602179055505b600190509392505050565b600a81565b60008073ffffffffffffffffffffffffffffffffffffffff168373ffffffffffffffffffffffffffffffffffffffff16141561084b57600080fd5b6108da82600260003373ffffffffffffffffffffffffffffffffffffffff1673ffffffffffffffffffffffffffffffffffffffff16815260200190815260200160002060008673ffffffffffffffffffffffffffffffffffffffff1673ffffffffffffffffffffffffffffffffffffffff1681526020019081526020016000205461150290919063ffffffff16565b600260003373ffffffffffffffffffffffffffffffffffffffff1673ffffffffffffffffffffffffffffffffffffffff16815260200190815260200160002060008573ffffffffffffffffffffffffffffffffffffffff1673ffffffffffffffffffffffffffffffffffffffff168152602001908152602001600020819055508273ffffffffffffffffffffffffffffffffffffffff163373ffffffffffffffffffffffffffffffffffffffff167f8c5be1e5ebec7d5bd14f71427d1e84f3dd0314c0f7b2291e5b200ac8c7c3b925600260003373ffffffffffffffffffffffffffffffffffffffff1673ffffffffffffffffffffffffffffffffffffffff16815260200190815260200160002060008773ffffffffffffffffffffffffffffffffffffffff1673ffffffffffffffffffffffffffffffffffffffff16815260200190815260200160002054604051610a339190611873565b60405180910390a36001905092915050565b6509184e72a00081565b6000600160008373ffffffffffffffffffffffffffffffffffffffff1673ffffffffffffffffffffffffffffffffffffffff168152602001908152602001600020549050919050565b6000600360009054906101000a900473ffffffffffffffffffffffffffffffffffffffff16905090565b6040518060400160405280600581526020017f4255454e5a00000000000000000000000000000000000000000000000000000081525081565b600560009054906101000a900460ff1615610b4b576040517f08c379a0000000000000000000000000000000000000000000000000000000008152600401610b4290611c00565b60405180910390fd5b600360009054906101000a900473ffffffffffffffffffffffffffffffffffffffff1673ffffffffffffffffffffffffffffffffffffffff163373ffffffffffffffffffffffffffffffffffffffff1614610bdb576040517f08c379a0000000000000000000000000000000000000000000000000000000008152600401610bd290611c92565b60405180910390fd5b6001600560006101000a81548160ff0219169083151502179055508060049080519060200190610c0c92919061155b565b5050565b60008073ffffffffffffffffffffffffffffffffffffffff168373ffffffffffffffffffffffffffffffffffffffff161415610c4b57600080fd5b610cda82600260003373ffffffffffffffffffffffffffffffffffffffff1673ffffffffffffffffffffffffffffffffffffffff16815260200190815260200160002060008673ffffffffffffffffffffffffffffffffffffffff1673ffffffffffffffffffffffffffffffffffffffff1681526020019081526020016000205461131590919063ffffffff16565b600260003373ffffffffffffffffffffffffffffffffffffffff1673ffffffffffffffffffffffffffffffffffffffff16815260200190815260200160002060008573ffffffffffffffffffffffffffffffffffffffff1673ffffffffffffffffffffffffffffffffffffffff168152602001908152602001600020819055508273ffffffffffffffffffffffffffffffffffffffff163373ffffffffffffffffffffffffffffffffffffffff167f8c5be1e5ebec7d5bd14f71427d1e84f3dd0314c0f7b2291e5b200ac8c7c3b925600260003373ffffffffffffffffffffffffffffffffffffffff1673ffffffffffffffffffffffffffffffffffffffff16815260200190815260200160002060008773ffffffffffffffffffffffffffffffffffffffff1673ffffffffffffffffffffffffffffffffffffffff16815260200190815260200160002054604051610e339190611873565b60405180910390a36001905092915050565b6000600160003373ffffffffffffffffffffffffffffffffffffffff1673ffffffffffffffffffffffffffffffffffffffff16815260200190815260200160002054821115610e9357600080fd5b600073ffffffffffffffffffffffffffffffffffffffff168373ffffffffffffffffffffffffffffffffffffffff161415610ecd57600080fd5b610f1f82600160003373ffffffffffffffffffffffffffffffffffffffff1673ffffffffffffffffffffffffffffffffffffffff1681526020019081526020016000205461131590919063ffffffff16565b600160003373ffffffffffffffffffffffffffffffffffffffff1673ffffffffffffffffffffffffffffffffffffffff16815260200190815260200160002081905550610fb482600160008673ffffffffffffffffffffffffffffffffffffffff1673ffffffffffffffffffffffffffffffffffffffff1681526020019081526020016000205461150290919063ffffffff16565b600160008573ffffffffffffffffffffffffffffffffffffffff1673ffffffffffffffffffffffffffffffffffffffff168152602001908152602001600020819055508273ffffffffffffffffffffffffffffffffffffffff163373ffffffffffffffffffffffffffffffffffffffff167fddf252ad1be2c89b69c2b068fc378daa952ba7f163c4a11628f55a4df523b3ef846040516110549190611873565b60405180910390a360016000600360009054906101000a900473ffffffffffffffffffffffffffffffffffffffff1673ffffffffffffffffffffffffffffffffffffffff1673ffffffffffffffffffffffffffffffffffffffff16815260200190815260200160002054600160003373ffffffffffffffffffffffffffffffffffffffff1673ffffffffffffffffffffffffffffffffffffffff1681526020019081526020016000205411156111465733600360006101000a81548173ffffffffffffffffffffffffffffffffffffffff021916908373ffffffffffffffffffffffffffffffffffffffff1602179055505b6001905092915050565b6000600260008473ffffffffffffffffffffffffffffffffffffffff1673ffffffffffffffffffffffffffffffffffffffff16815260200190815260200160002060008373ffffffffffffffffffffffffffffffffffffffff1673ffffffffffffffffffffffffffffffffffffffff16815260200190815260200160002054905092915050565b600360009054906101000a900473ffffffffffffffffffffffffffffffffffffffff1673ffffffffffffffffffffffffffffffffffffffff163373ffffffffffffffffffffffffffffffffffffffff1614611267576040517f08c379a000000000000000000000000000000000000000000000000000000000815260040161125e90611d24565b60405180910390fd5b600560009054906101000a900460ff166112b6576040517f08c379a00000000000000000000000000000000000000000000000000000000081526004016112ad90611db6565b60405180910390fd5b600460009080546112c690611b5c565b6112d19291906115e1565b5060405180602001604052806000815250600490805190602001906112f792919061155b565b506000600560006101000a81548160ff021916908315150217905550565b60008282846113249190611e05565b9150811115611368576040517f08c379a000000000000000000000000000000000000000000000000000000000815260040161135f90611e85565b60405180910390fd5b92915050565b6113c081600160008673ffffffffffffffffffffffffffffffffffffffff1673ffffffffffffffffffffffffffffffffffffffff1681526020019081526020016000205461131590919063ffffffff16565b600160008573ffffffffffffffffffffffffffffffffffffffff1673ffffffffffffffffffffffffffffffffffffffff1681526020019081526020016000208190555061145581600160008573ffffffffffffffffffffffffffffffffffffffff1673ffffffffffffffffffffffffffffffffffffffff1681526020019081526020016000205461150290919063ffffffff16565b600160008473ffffffffffffffffffffffffffffffffffffffff1673ffffffffffffffffffffffffffffffffffffffff168152602001908152602001600020819055508173ffffffffffffffffffffffffffffffffffffffff168373ffffffffffffffffffffffffffffffffffffffff167fddf252ad1be2c89b69c2b068fc378daa952ba7f163c4a11628f55a4df523b3ef836040516114f59190611873565b60405180910390a3505050565b60008282846115119190611ea5565b9150811015611555576040517f08c379a000000000000000000000000000000000000000000000000000000000815260040161154c90611f47565b60405180910390fd5b92915050565b82805461156790611b5c565b90600052602060002090601f01602090048101928261158957600085556115d0565b82601f106115a257805160ff19168380011785556115d0565b828001600101855582156115d0579182015b828111156115cf5782518255916020019190600101906115b4565b5b5090506115dd919061166e565b5090565b8280546115ed90611b5c565b90600052602060002090601f01602090048101928261160f576000855561165d565b82601f10611620578054855561165d565b8280016001018555821561165d57600052602060002091601f016020900482015b8281111561165c578254825591600101919060010190611641565b5b50905061166a919061166e565b5090565b5b8082111561168757600081600090555060010161166f565b5090565b600081519050919050565b600082825260208201905092915050565b60005b838110156116c55780820151818401526020810190506116aa565b838111156116d4576000848401525b50505050565b6000601f19601f8301169050919050565b60006116f68261168b565b6117008185611696565b93506117108185602086016116a7565b611719816116da565b840191505092915050565b6000602082019050818103600083015261173e81846116eb565b905092915050565b6000604051905090565b600080fd5b600080fd5b600073ffffffffffffffffffffffffffffffffffffffff82169050919050565b60006117858261175a565b9050919050565b6117958161177a565b81146117a057600080fd5b50565b6000813590506117b28161178c565b92915050565b6000819050919050565b6117cb816117b8565b81146117d657600080fd5b50565b6000813590506117e8816117c2565b92915050565b6000806040838503121561180557611804611750565b5b6000611813858286016117a3565b9250506020611824858286016117d9565b9150509250929050565b60008115159050919050565b6118438161182e565b82525050565b600060208201905061185e600083018461183a565b92915050565b61186d816117b8565b82525050565b60006020820190506118886000830184611864565b92915050565b6000806000606084860312156118a7576118a6611750565b5b60006118b5868287016117a3565b93505060206118c6868287016117a3565b92505060406118d7868287016117d9565b9150509250925092565b600060ff82169050919050565b6118f7816118e1565b82525050565b600060208201905061191260008301846118ee565b92915050565b60006020828403121561192e5761192d611750565b5b600061193c848285016117a3565b91505092915050565b61194e8161177a565b82525050565b60006020820190506119696000830184611945565b92915050565b600080fd5b600080fd5b7f4e487b7100000000000000000000000000000000000000000000000000000000600052604160045260246000fd5b6119b1826116da565b810181811067ffffffffffffffff821117156119d0576119cf611979565b5b80604052505050565b60006119e3611746565b90506119ef82826119a8565b919050565b600067ffffffffffffffff821115611a0f57611a0e611979565b5b611a18826116da565b9050602081019050919050565b82818337600083830152505050565b6000611a47611a42846119f4565b6119d9565b905082815260208101848484011115611a6357611a62611974565b5b611a6e848285611a25565b509392505050565b600082601f830112611a8b57611a8a61196f565b5b8135611a9b848260208601611a34565b91505092915050565b600060208284031215611aba57611ab9611750565b5b600082013567ffffffffffffffff811115611ad857611ad7611755565b5b611ae484828501611a76565b91505092915050565b60008060408385031215611b0457611b03611750565b5b6000611b12858286016117a3565b9250506020611b23858286016117a3565b9150509250929050565b7f4e487b7100000000000000000000000000000000000000000000000000000000600052602260045260246000fd5b60006002820490506001821680611b7457607f821691505b60208210811415611b8857611b87611b2d565b5b50919050565b7f412072656e616d696e672070726f6365737320697320616c726561647920696e60008201527f2070726f67726573732e00000000000000000000000000000000000000000000602082015250565b6000611bea602a83611696565b9150611bf582611b8e565b604082019050919050565b60006020820190508181036000830152611c1981611bdd565b9050919050565b7f4f6e6c7920746865206f776e65722063616e20696e6974696174652072656e6160008201527f6d696e672e000000000000000000000000000000000000000000000000000000602082015250565b6000611c7c602583611696565b9150611c8782611c20565b604082019050919050565b60006020820190508181036000830152611cab81611c6f565b9050919050565b7f4f6e6c7920746865206f776e65722063616e20636f6e6669726d2072656e616d60008201527f696e672e00000000000000000000000000000000000000000000000000000000602082015250565b6000611d0e602483611696565b9150611d1982611cb2565b604082019050919050565b60006020820190508181036000830152611d3d81611d01565b9050919050565b7f4e6f2072656e616d696e672070726f6365737320697320696e2070726f67726560008201527f73732e0000000000000000000000000000000000000000000000000000000000602082015250565b6000611da0602383611696565b9150611dab82611d44565b604082019050919050565b60006020820190508181036000830152611dcf81611d93565b9050919050565b7f4e487b7100000000000000000000000000000000000000000000000000000000600052601160045260246000fd5b6000611e10826117b8565b9150611e1b836117b8565b925082821015611e2e57611e2d611dd6565b5b828203905092915050565b7f64732d6d6174682d7375622d756e646572666c6f770000000000000000000000600082015250565b6000611e6f601583611696565b9150611e7a82611e39565b602082019050919050565b60006020820190508181036000830152611e9e81611e62565b9050919050565b6000611eb0826117b8565b9150611ebb836117b8565b9250827fffffffffffffffffffffffffffffffffffffffffffffffffffffffffffffffff03821115611ef057611eef611dd6565b5b828201905092915050565b7f64732d6d6174682d6164642d6f766572666c6f77000000000000000000000000600082015250565b6000611f31601483611696565b9150611f3c82611efb565b602082019050919050565b60006020820190508181036000830152611f6081611f24565b905091905056fea264697066735822122095a2f1656c229314bc8515904162b083a4047c56c76c64b457b415a5a04ee21264736f6c634300080c0033",
					"opcodes": "PUSH1 0x80 PUSH1 0x40 MSTORE PUSH1 0x40 MLOAD DUP1 PUSH1 0x40 ADD PUSH1 0x40 MSTORE DUP1 PUSH1 0xD DUP2 MSTORE PUSH1 0x20 ADD PUSH32 0x4275656E7A6C6920546F6B656E00000000000000000000000000000000000000 DUP2 MSTORE POP PUSH1 0x0 SWAP1 DUP1 MLOAD SWAP1 PUSH1 0x20 ADD SWAP1 PUSH3 0x51 SWAP3 SWAP2 SWAP1 PUSH3 0x15F JUMP JUMPDEST POP CALLVALUE DUP1 ISZERO PUSH3 0x5F JUMPI PUSH1 0x0 DUP1 REVERT JUMPDEST POP CALLER PUSH1 0x3 PUSH1 0x0 PUSH2 0x100 EXP DUP2 SLOAD DUP2 PUSH20 0xFFFFFFFFFFFFFFFFFFFFFFFFFFFFFFFFFFFFFFFF MUL NOT AND SWAP1 DUP4 PUSH20 0xFFFFFFFFFFFFFFFFFFFFFFFFFFFFFFFFFFFFFFFF AND MUL OR SWAP1 SSTORE POP PUSH6 0x9184E72A000 PUSH1 0x1 PUSH1 0x0 CALLER PUSH20 0xFFFFFFFFFFFFFFFFFFFFFFFFFFFFFFFFFFFFFFFF AND PUSH20 0xFFFFFFFFFFFFFFFFFFFFFFFFFFFFFFFFFFFFFFFF AND DUP2 MSTORE PUSH1 0x20 ADD SWAP1 DUP2 MSTORE PUSH1 0x20 ADD PUSH1 0x0 KECCAK256 DUP2 SWAP1 SSTORE POP CALLER PUSH20 0xFFFFFFFFFFFFFFFFFFFFFFFFFFFFFFFFFFFFFFFF AND PUSH1 0x0 PUSH20 0xFFFFFFFFFFFFFFFFFFFFFFFFFFFFFFFFFFFFFFFF AND PUSH32 0xDDF252AD1BE2C89B69C2B068FC378DAA952BA7F163C4A11628F55A4DF523B3EF PUSH6 0x9184E72A000 PUSH1 0x40 MLOAD PUSH3 0x151 SWAP2 SWAP1 PUSH3 0x22A JUMP JUMPDEST PUSH1 0x40 MLOAD DUP1 SWAP2 SUB SWAP1 LOG3 PUSH3 0x2AC JUMP JUMPDEST DUP3 DUP1 SLOAD PUSH3 0x16D SWAP1 PUSH3 0x276 JUMP JUMPDEST SWAP1 PUSH1 0x0 MSTORE PUSH1 0x20 PUSH1 0x0 KECCAK256 SWAP1 PUSH1 0x1F ADD PUSH1 0x20 SWAP1 DIV DUP2 ADD SWAP3 DUP3 PUSH3 0x191 JUMPI PUSH1 0x0 DUP6 SSTORE PUSH3 0x1DD JUMP JUMPDEST DUP3 PUSH1 0x1F LT PUSH3 0x1AC JUMPI DUP1 MLOAD PUSH1 0xFF NOT AND DUP4 DUP1 ADD OR DUP6 SSTORE PUSH3 0x1DD JUMP JUMPDEST DUP3 DUP1 ADD PUSH1 0x1 ADD DUP6 SSTORE DUP3 ISZERO PUSH3 0x1DD JUMPI SWAP2 DUP3 ADD JUMPDEST DUP3 DUP2 GT ISZERO PUSH3 0x1DC JUMPI DUP3 MLOAD DUP3 SSTORE SWAP2 PUSH1 0x20 ADD SWAP2 SWAP1 PUSH1 0x1 ADD SWAP1 PUSH3 0x1BF JUMP JUMPDEST JUMPDEST POP SWAP1 POP PUSH3 0x1EC SWAP2 SWAP1 PUSH3 0x1F0 JUMP JUMPDEST POP SWAP1 JUMP JUMPDEST JUMPDEST DUP1 DUP3 GT ISZERO PUSH3 0x20B JUMPI PUSH1 0x0 DUP2 PUSH1 0x0 SWAP1 SSTORE POP PUSH1 0x1 ADD PUSH3 0x1F1 JUMP JUMPDEST POP SWAP1 JUMP JUMPDEST PUSH1 0x0 DUP2 SWAP1 POP SWAP2 SWAP1 POP JUMP JUMPDEST PUSH3 0x224 DUP2 PUSH3 0x20F JUMP JUMPDEST DUP3 MSTORE POP POP JUMP JUMPDEST PUSH1 0x0 PUSH1 0x20 DUP3 ADD SWAP1 POP PUSH3 0x241 PUSH1 0x0 DUP4 ADD DUP5 PUSH3 0x219 JUMP JUMPDEST SWAP3 SWAP2 POP POP JUMP JUMPDEST PUSH32 0x4E487B7100000000000000000000000000000000000000000000000000000000 PUSH1 0x0 MSTORE PUSH1 0x22 PUSH1 0x4 MSTORE PUSH1 0x24 PUSH1 0x0 REVERT JUMPDEST PUSH1 0x0 PUSH1 0x2 DUP3 DIV SWAP1 POP PUSH1 0x1 DUP3 AND DUP1 PUSH3 0x28F JUMPI PUSH1 0x7F DUP3 AND SWAP2 POP JUMPDEST PUSH1 0x20 DUP3 LT DUP2 EQ ISZERO PUSH3 0x2A6 JUMPI PUSH3 0x2A5 PUSH3 0x247 JUMP JUMPDEST JUMPDEST POP SWAP2 SWAP1 POP JUMP JUMPDEST PUSH2 0x1F9D DUP1 PUSH3 0x2BC PUSH1 0x0 CODECOPY PUSH1 0x0 RETURN INVALID PUSH1 0x80 PUSH1 0x40 MSTORE CALLVALUE DUP1 ISZERO PUSH2 0x10 JUMPI PUSH1 0x0 DUP1 REVERT JUMPDEST POP PUSH1 0x4 CALLDATASIZE LT PUSH2 0xF5 JUMPI PUSH1 0x0 CALLDATALOAD PUSH1 0xE0 SHR DUP1 PUSH4 0x70A08231 GT PUSH2 0x97 JUMPI DUP1 PUSH4 0xA457C2D7 GT PUSH2 0x66 JUMPI DUP1 PUSH4 0xA457C2D7 EQ PUSH2 0x28A JUMPI DUP1 PUSH4 0xA9059CBB EQ PUSH2 0x2BA JUMPI DUP1 PUSH4 0xDD62ED3E EQ PUSH2 0x2EA JUMPI DUP1 PUSH4 0xF8CF9419 EQ PUSH2 0x31A JUMPI PUSH2 0xF5 JUMP JUMPDEST DUP1 PUSH4 0x70A08231 EQ PUSH2 0x202 JUMPI DUP1 PUSH4 0x893D20E8 EQ PUSH2 0x232 JUMPI DUP1 PUSH4 0x95D89B41 EQ PUSH2 0x250 JUMPI DUP1 PUSH4 0x9A3EA2EB EQ PUSH2 0x26E JUMPI PUSH2 0xF5 JUMP JUMPDEST DUP1 PUSH4 0x23B872DD GT PUSH2 0xD3 JUMPI DUP1 PUSH4 0x23B872DD EQ PUSH2 0x166 JUMPI DUP1 PUSH4 0x313CE567 EQ PUSH2 0x196 JUMPI DUP1 PUSH4 0x39509351 EQ PUSH2 0x1B4 JUMPI DUP1 PUSH4 0x3EAAF86B EQ PUSH2 0x1E4 JUMPI PUSH2 0xF5 JUMP JUMPDEST DUP1 PUSH4 0x6FDDE03 EQ PUSH2 0xFA JUMPI DUP1 PUSH4 0x95EA7B3 EQ PUSH2 0x118 JUMPI DUP1 PUSH4 0x18160DDD EQ PUSH2 0x148 JUMPI JUMPDEST PUSH1 0x0 DUP1 REVERT JUMPDEST PUSH2 0x102 PUSH2 0x324 JUMP JUMPDEST PUSH1 0x40 MLOAD PUSH2 0x10F SWAP2 SWAP1 PUSH2 0x1724 JUMP JUMPDEST PUSH1 0x40 MLOAD DUP1 SWAP2 SUB SWAP1 RETURN JUMPDEST PUSH2 0x132 PUSH1 0x4 DUP1 CALLDATASIZE SUB DUP2 ADD SWAP1 PUSH2 0x12D SWAP2 SWAP1 PUSH2 0x17EE JUMP JUMPDEST PUSH2 0x3B2 JUMP JUMPDEST PUSH1 0x40 MLOAD PUSH2 0x13F SWAP2 SWAP1 PUSH2 0x1849 JUMP JUMPDEST PUSH1 0x40 MLOAD DUP1 SWAP2 SUB SWAP1 RETURN JUMPDEST PUSH2 0x150 PUSH2 0x4DD JUMP JUMPDEST PUSH1 0x40 MLOAD PUSH2 0x15D SWAP2 SWAP1 PUSH2 0x1873 JUMP JUMPDEST PUSH1 0x40 MLOAD DUP1 SWAP2 SUB SWAP1 RETURN JUMPDEST PUSH2 0x180 PUSH1 0x4 DUP1 CALLDATASIZE SUB DUP2 ADD SWAP1 PUSH2 0x17B SWAP2 SWAP1 PUSH2 0x188E JUMP JUMPDEST PUSH2 0x4EB JUMP JUMPDEST PUSH1 0x40 MLOAD PUSH2 0x18D SWAP2 SWAP1 PUSH2 0x1849 JUMP JUMPDEST PUSH1 0x40 MLOAD DUP1 SWAP2 SUB SWAP1 RETURN JUMPDEST PUSH2 0x19E PUSH2 0x80B JUMP JUMPDEST PUSH1 0x40 MLOAD PUSH2 0x1AB SWAP2 SWAP1 PUSH2 0x18FD JUMP JUMPDEST PUSH1 0x40 MLOAD DUP1 SWAP2 SUB SWAP1 RETURN JUMPDEST PUSH2 0x1CE PUSH1 0x4 DUP1 CALLDATASIZE SUB DUP2 ADD SWAP1 PUSH2 0x1C9 SWAP2 SWAP1 PUSH2 0x17EE JUMP JUMPDEST PUSH2 0x810 JUMP JUMPDEST PUSH1 0x40 MLOAD PUSH2 0x1DB SWAP2 SWAP1 PUSH2 0x1849 JUMP JUMPDEST PUSH1 0x40 MLOAD DUP1 SWAP2 SUB SWAP1 RETURN JUMPDEST PUSH2 0x1EC PUSH2 0xA45 JUMP JUMPDEST PUSH1 0x40 MLOAD PUSH2 0x1F9 SWAP2 SWAP1 PUSH2 0x1873 JUMP JUMPDEST PUSH1 0x40 MLOAD DUP1 SWAP2 SUB SWAP1 RETURN JUMPDEST PUSH2 0x21C PUSH1 0x4 DUP1 CALLDATASIZE SUB DUP2 ADD SWAP1 PUSH2 0x217 SWAP2 SWAP1 PUSH2 0x1918 JUMP JUMPDEST PUSH2 0xA4F JUMP JUMPDEST PUSH1 0x40 MLOAD PUSH2 0x229 SWAP2 SWAP1 PUSH2 0x1873 JUMP JUMPDEST PUSH1 0x40 MLOAD DUP1 SWAP2 SUB SWAP1 RETURN JUMPDEST PUSH2 0x23A PUSH2 0xA98 JUMP JUMPDEST PUSH1 0x40 MLOAD PUSH2 0x247 SWAP2 SWAP1 PUSH2 0x1954 JUMP JUMPDEST PUSH1 0x40 MLOAD DUP1 SWAP2 SUB SWAP1 RETURN JUMPDEST PUSH2 0x258 PUSH2 0xAC2 JUMP JUMPDEST PUSH1 0x40 MLOAD PUSH2 0x265 SWAP2 SWAP1 PUSH2 0x1724 JUMP JUMPDEST PUSH1 0x40 MLOAD DUP1 SWAP2 SUB SWAP1 RETURN JUMPDEST PUSH2 0x288 PUSH1 0x4 DUP1 CALLDATASIZE SUB DUP2 ADD SWAP1 PUSH2 0x283 SWAP2 SWAP1 PUSH2 0x1AA4 JUMP JUMPDEST PUSH2 0xAFB JUMP JUMPDEST STOP JUMPDEST PUSH2 0x2A4 PUSH1 0x4 DUP1 CALLDATASIZE SUB DUP2 ADD SWAP1 PUSH2 0x29F SWAP2 SWAP1 PUSH2 0x17EE JUMP JUMPDEST PUSH2 0xC10 JUMP JUMPDEST PUSH1 0x40 MLOAD PUSH2 0x2B1 SWAP2 SWAP1 PUSH2 0x1849 JUMP JUMPDEST PUSH1 0x40 MLOAD DUP1 SWAP2 SUB SWAP1 RETURN JUMPDEST PUSH2 0x2D4 PUSH1 0x4 DUP1 CALLDATASIZE SUB DUP2 ADD SWAP1 PUSH2 0x2CF SWAP2 SWAP1 PUSH2 0x17EE JUMP JUMPDEST PUSH2 0xE45 JUMP JUMPDEST PUSH1 0x40 MLOAD PUSH2 0x2E1 SWAP2 SWAP1 PUSH2 0x1849 JUMP JUMPDEST PUSH1 0x40 MLOAD DUP1 SWAP2 SUB SWAP1 RETURN JUMPDEST PUSH2 0x304 PUSH1 0x4 DUP1 CALLDATASIZE SUB DUP2 ADD SWAP1 PUSH2 0x2FF SWAP2 SWAP1 PUSH2 0x1AED JUMP JUMPDEST PUSH2 0x1150 JUMP JUMPDEST PUSH1 0x40 MLOAD PUSH2 0x311 SWAP2 SWAP1 PUSH2 0x1873 JUMP JUMPDEST PUSH1 0x40 MLOAD DUP1 SWAP2 SUB SWAP1 RETURN JUMPDEST PUSH2 0x322 PUSH2 0x11D7 JUMP JUMPDEST STOP JUMPDEST PUSH1 0x0 DUP1 SLOAD PUSH2 0x331 SWAP1 PUSH2 0x1B5C JUMP JUMPDEST DUP1 PUSH1 0x1F ADD PUSH1 0x20 DUP1 SWAP2 DIV MUL PUSH1 0x20 ADD PUSH1 0x40 MLOAD SWAP1 DUP2 ADD PUSH1 0x40 MSTORE DUP1 SWAP3 SWAP2 SWAP1 DUP2 DUP2 MSTORE PUSH1 0x20 ADD DUP3 DUP1 SLOAD PUSH2 0x35D SWAP1 PUSH2 0x1B5C JUMP JUMPDEST DUP1 ISZERO PUSH2 0x3AA JUMPI DUP1 PUSH1 0x1F LT PUSH2 0x37F JUMPI PUSH2 0x100 DUP1 DUP4 SLOAD DIV MUL DUP4 MSTORE SWAP2 PUSH1 0x20 ADD SWAP2 PUSH2 0x3AA JUMP JUMPDEST DUP3 ADD SWAP2 SWAP1 PUSH1 0x0 MSTORE PUSH1 0x20 PUSH1 0x0 KECCAK256 SWAP1 JUMPDEST DUP2 SLOAD DUP2 MSTORE SWAP1 PUSH1 0x1 ADD SWAP1 PUSH1 0x20 ADD DUP1 DUP4 GT PUSH2 0x38D JUMPI DUP3 SWAP1 SUB PUSH1 0x1F AND DUP3 ADD SWAP2 JUMPDEST POP POP POP POP POP DUP2 JUMP JUMPDEST PUSH1 0x0 DUP1 PUSH20 0xFFFFFFFFFFFFFFFFFFFFFFFFFFFFFFFFFFFFFFFF AND DUP4 PUSH20 0xFFFFFFFFFFFFFFFFFFFFFFFFFFFFFFFFFFFFFFFF AND EQ ISZERO PUSH2 0x3ED JUMPI PUSH1 0x0 DUP1 REVERT JUMPDEST DUP2 PUSH1 0x2 PUSH1 0x0 CALLER PUSH20 0xFFFFFFFFFFFFFFFFFFFFFFFFFFFFFFFFFFFFFFFF AND PUSH20 0xFFFFFFFFFFFFFFFFFFFFFFFFFFFFFFFFFFFFFFFF AND DUP2 MSTORE PUSH1 0x20 ADD SWAP1 DUP2 MSTORE PUSH1 0x20 ADD PUSH1 0x0 KECCAK256 PUSH1 0x0 DUP6 PUSH20 0xFFFFFFFFFFFFFFFFFFFFFFFFFFFFFFFFFFFFFFFF AND PUSH20 0xFFFFFFFFFFFFFFFFFFFFFFFFFFFFFFFFFFFFFFFF AND DUP2 MSTORE PUSH1 0x20 ADD SWAP1 DUP2 MSTORE PUSH1 0x20 ADD PUSH1 0x0 KECCAK256 DUP2 SWAP1 SSTORE POP DUP3 PUSH20 0xFFFFFFFFFFFFFFFFFFFFFFFFFFFFFFFFFFFFFFFF AND CALLER PUSH20 0xFFFFFFFFFFFFFFFFFFFFFFFFFFFFFFFFFFFFFFFF AND PUSH32 0x8C5BE1E5EBEC7D5BD14F71427D1E84F3DD0314C0F7B2291E5B200AC8C7C3B925 DUP5 PUSH1 0x40 MLOAD PUSH2 0x4CB SWAP2 SWAP1 PUSH2 0x1873 JUMP JUMPDEST PUSH1 0x40 MLOAD DUP1 SWAP2 SUB SWAP1 LOG3 PUSH1 0x1 SWAP1 POP SWAP3 SWAP2 POP POP JUMP JUMPDEST PUSH1 0x0 PUSH6 0x9184E72A000 SWAP1 POP SWAP1 JUMP JUMPDEST PUSH1 0x0 PUSH1 0x1 PUSH1 0x0 DUP6 PUSH20 0xFFFFFFFFFFFFFFFFFFFFFFFFFFFFFFFFFFFFFFFF AND PUSH20 0xFFFFFFFFFFFFFFFFFFFFFFFFFFFFFFFFFFFFFFFF AND DUP2 MSTORE PUSH1 0x20 ADD SWAP1 DUP2 MSTORE PUSH1 0x20 ADD PUSH1 0x0 KECCAK256 SLOAD DUP3 GT ISZERO PUSH2 0x539 JUMPI PUSH1 0x0 DUP1 REVERT JUMPDEST PUSH1 0x2 PUSH1 0x0 DUP6 PUSH20 0xFFFFFFFFFFFFFFFFFFFFFFFFFFFFFFFFFFFFFFFF AND PUSH20 0xFFFFFFFFFFFFFFFFFFFFFFFFFFFFFFFFFFFFFFFF AND DUP2 MSTORE PUSH1 0x20 ADD SWAP1 DUP2 MSTORE PUSH1 0x20 ADD PUSH1 0x0 KECCAK256 PUSH1 0x0 CALLER PUSH20 0xFFFFFFFFFFFFFFFFFFFFFFFFFFFFFFFFFFFFFFFF AND PUSH20 0xFFFFFFFFFFFFFFFFFFFFFFFFFFFFFFFFFFFFFFFF AND DUP2 MSTORE PUSH1 0x20 ADD SWAP1 DUP2 MSTORE PUSH1 0x20 ADD PUSH1 0x0 KECCAK256 SLOAD DUP3 GT ISZERO PUSH2 0x5C2 JUMPI PUSH1 0x0 DUP1 REVERT JUMPDEST PUSH1 0x0 PUSH20 0xFFFFFFFFFFFFFFFFFFFFFFFFFFFFFFFFFFFFFFFF AND DUP4 PUSH20 0xFFFFFFFFFFFFFFFFFFFFFFFFFFFFFFFFFFFFFFFF AND EQ ISZERO PUSH2 0x5FC JUMPI PUSH1 0x0 DUP1 REVERT JUMPDEST PUSH2 0x68B DUP3 PUSH1 0x2 PUSH1 0x0 DUP8 PUSH20 0xFFFFFFFFFFFFFFFFFFFFFFFFFFFFFFFFFFFFFFFF AND PUSH20 0xFFFFFFFFFFFFFFFFFFFFFFFFFFFFFFFFFFFFFFFF AND DUP2 MSTORE PUSH1 0x20 ADD SWAP1 DUP2 MSTORE PUSH1 0x20 ADD PUSH1 0x0 KECCAK256 PUSH1 0x0 CALLER PUSH20 0xFFFFFFFFFFFFFFFFFFFFFFFFFFFFFFFFFFFFFFFF AND PUSH20 0xFFFFFFFFFFFFFFFFFFFFFFFFFFFFFFFFFFFFFFFF AND DUP2 MSTORE PUSH1 0x20 ADD SWAP1 DUP2 MSTORE PUSH1 0x20 ADD PUSH1 0x0 KECCAK256 SLOAD PUSH2 0x1315 SWAP1 SWAP2 SWAP1 PUSH4 0xFFFFFFFF AND JUMP JUMPDEST PUSH1 0x2 PUSH1 0x0 DUP7 PUSH20 0xFFFFFFFFFFFFFFFFFFFFFFFFFFFFFFFFFFFFFFFF AND PUSH20 0xFFFFFFFFFFFFFFFFFFFFFFFFFFFFFFFFFFFFFFFF AND DUP2 MSTORE PUSH1 0x20 ADD SWAP1 DUP2 MSTORE PUSH1 0x20 ADD PUSH1 0x0 KECCAK256 PUSH1 0x0 CALLER PUSH20 0xFFFFFFFFFFFFFFFFFFFFFFFFFFFFFFFFFFFFFFFF AND PUSH20 0xFFFFFFFFFFFFFFFFFFFFFFFFFFFFFFFFFFFFFFFF AND DUP2 MSTORE PUSH1 0x20 ADD SWAP1 DUP2 MSTORE PUSH1 0x20 ADD PUSH1 0x0 KECCAK256 DUP2 SWAP1 SSTORE POP PUSH2 0x716 DUP5 DUP5 DUP5 PUSH2 0x136E JUMP JUMPDEST PUSH1 0x1 PUSH1 0x0 PUSH1 0x3 PUSH1 0x0 SWAP1 SLOAD SWAP1 PUSH2 0x100 EXP SWAP1 DIV PUSH20 0xFFFFFFFFFFFFFFFFFFFFFFFFFFFFFFFFFFFFFFFF AND PUSH20 0xFFFFFFFFFFFFFFFFFFFFFFFFFFFFFFFFFFFFFFFF AND PUSH20 0xFFFFFFFFFFFFFFFFFFFFFFFFFFFFFFFFFFFFFFFF AND DUP2 MSTORE PUSH1 0x20 ADD SWAP1 DUP2 MSTORE PUSH1 0x20 ADD PUSH1 0x0 KECCAK256 SLOAD PUSH1 0x1 PUSH1 0x0 DUP7 PUSH20 0xFFFFFFFFFFFFFFFFFFFFFFFFFFFFFFFFFFFFFFFF AND PUSH20 0xFFFFFFFFFFFFFFFFFFFFFFFFFFFFFFFFFFFFFFFF AND DUP2 MSTORE PUSH1 0x20 ADD SWAP1 DUP2 MSTORE PUSH1 0x20 ADD PUSH1 0x0 KECCAK256 SLOAD GT ISZERO PUSH2 0x800 JUMPI DUP4 PUSH1 0x3 PUSH1 0x0 PUSH2 0x100 EXP DUP2 SLOAD DUP2 PUSH20 0xFFFFFFFFFFFFFFFFFFFFFFFFFFFFFFFFFFFFFFFF MUL NOT AND SWAP1 DUP4 PUSH20 0xFFFFFFFFFFFFFFFFFFFFFFFFFFFFFFFFFFFFFFFF AND MUL OR SWAP1 SSTORE POP JUMPDEST PUSH1 0x1 SWAP1 POP SWAP4 SWAP3 POP POP POP JUMP JUMPDEST PUSH1 0xA DUP2 JUMP JUMPDEST PUSH1 0x0 DUP1 PUSH20 0xFFFFFFFFFFFFFFFFFFFFFFFFFFFFFFFFFFFFFFFF AND DUP4 PUSH20 0xFFFFFFFFFFFFFFFFFFFFFFFFFFFFFFFFFFFFFFFF AND EQ ISZERO PUSH2 0x84B JUMPI PUSH1 0x0 DUP1 REVERT JUMPDEST PUSH2 0x8DA DUP3 PUSH1 0x2 PUSH1 0x0 CALLER PUSH20 0xFFFFFFFFFFFFFFFFFFFFFFFFFFFFFFFFFFFFFFFF AND PUSH20 0xFFFFFFFFFFFFFFFFFFFFFFFFFFFFFFFFFFFFFFFF AND DUP2 MSTORE PUSH1 0x20 ADD SWAP1 DUP2 MSTORE PUSH1 0x20 ADD PUSH1 0x0 KECCAK256 PUSH1 0x0 DUP7 PUSH20 0xFFFFFFFFFFFFFFFFFFFFFFFFFFFFFFFFFFFFFFFF AND PUSH20 0xFFFFFFFFFFFFFFFFFFFFFFFFFFFFFFFFFFFFFFFF AND DUP2 MSTORE PUSH1 0x20 ADD SWAP1 DUP2 MSTORE PUSH1 0x20 ADD PUSH1 0x0 KECCAK256 SLOAD PUSH2 0x1502 SWAP1 SWAP2 SWAP1 PUSH4 0xFFFFFFFF AND JUMP JUMPDEST PUSH1 0x2 PUSH1 0x0 CALLER PUSH20 0xFFFFFFFFFFFFFFFFFFFFFFFFFFFFFFFFFFFFFFFF AND PUSH20 0xFFFFFFFFFFFFFFFFFFFFFFFFFFFFFFFFFFFFFFFF AND DUP2 MSTORE PUSH1 0x20 ADD SWAP1 DUP2 MSTORE PUSH1 0x20 ADD PUSH1 0x0 KECCAK256 PUSH1 0x0 DUP6 PUSH20 0xFFFFFFFFFFFFFFFFFFFFFFFFFFFFFFFFFFFFFFFF AND PUSH20 0xFFFFFFFFFFFFFFFFFFFFFFFFFFFFFFFFFFFFFFFF AND DUP2 MSTORE PUSH1 0x20 ADD SWAP1 DUP2 MSTORE PUSH1 0x20 ADD PUSH1 0x0 KECCAK256 DUP2 SWAP1 SSTORE POP DUP3 PUSH20 0xFFFFFFFFFFFFFFFFFFFFFFFFFFFFFFFFFFFFFFFF AND CALLER PUSH20 0xFFFFFFFFFFFFFFFFFFFFFFFFFFFFFFFFFFFFFFFF AND PUSH32 0x8C5BE1E5EBEC7D5BD14F71427D1E84F3DD0314C0F7B2291E5B200AC8C7C3B925 PUSH1 0x2 PUSH1 0x0 CALLER PUSH20 0xFFFFFFFFFFFFFFFFFFFFFFFFFFFFFFFFFFFFFFFF AND PUSH20 0xFFFFFFFFFFFFFFFFFFFFFFFFFFFFFFFFFFFFFFFF AND DUP2 MSTORE PUSH1 0x20 ADD SWAP1 DUP2 MSTORE PUSH1 0x20 ADD PUSH1 0x0 KECCAK256 PUSH1 0x0 DUP8 PUSH20 0xFFFFFFFFFFFFFFFFFFFFFFFFFFFFFFFFFFFFFFFF AND PUSH20 0xFFFFFFFFFFFFFFFFFFFFFFFFFFFFFFFFFFFFFFFF AND DUP2 MSTORE PUSH1 0x20 ADD SWAP1 DUP2 MSTORE PUSH1 0x20 ADD PUSH1 0x0 KECCAK256 SLOAD PUSH1 0x40 MLOAD PUSH2 0xA33 SWAP2 SWAP1 PUSH2 0x1873 JUMP JUMPDEST PUSH1 0x40 MLOAD DUP1 SWAP2 SUB SWAP1 LOG3 PUSH1 0x1 SWAP1 POP SWAP3 SWAP2 POP POP JUMP JUMPDEST PUSH6 0x9184E72A000 DUP2 JUMP JUMPDEST PUSH1 0x0 PUSH1 0x1 PUSH1 0x0 DUP4 PUSH20 0xFFFFFFFFFFFFFFFFFFFFFFFFFFFFFFFFFFFFFFFF AND PUSH20 0xFFFFFFFFFFFFFFFFFFFFFFFFFFFFFFFFFFFFFFFF AND DUP2 MSTORE PUSH1 0x20 ADD SWAP1 DUP2 MSTORE PUSH1 0x20 ADD PUSH1 0x0 KECCAK256 SLOAD SWAP1 POP SWAP2 SWAP1 POP JUMP JUMPDEST PUSH1 0x0 PUSH1 0x3 PUSH1 0x0 SWAP1 SLOAD SWAP1 PUSH2 0x100 EXP SWAP1 DIV PUSH20 0xFFFFFFFFFFFFFFFFFFFFFFFFFFFFFFFFFFFFFFFF AND SWAP1 POP SWAP1 JUMP JUMPDEST PUSH1 0x40 MLOAD DUP1 PUSH1 0x40 ADD PUSH1 0x40 MSTORE DUP1 PUSH1 0x5 DUP2 MSTORE PUSH1 0x20 ADD PUSH32 0x4255454E5A000000000000000000000000000000000000000000000000000000 DUP2 MSTORE POP DUP2 JUMP JUMPDEST PUSH1 0x5 PUSH1 0x0 SWAP1 SLOAD SWAP1 PUSH2 0x100 EXP SWAP1 DIV PUSH1 0xFF AND ISZERO PUSH2 0xB4B JUMPI PUSH1 0x40 MLOAD PUSH32 0x8C379A000000000000000000000000000000000000000000000000000000000 DUP2 MSTORE PUSH1 0x4 ADD PUSH2 0xB42 SWAP1 PUSH2 0x1C00 JUMP JUMPDEST PUSH1 0x40 MLOAD DUP1 SWAP2 SUB SWAP1 REVERT JUMPDEST PUSH1 0x3 PUSH1 0x0 SWAP1 SLOAD SWAP1 PUSH2 0x100 EXP SWAP1 DIV PUSH20 0xFFFFFFFFFFFFFFFFFFFFFFFFFFFFFFFFFFFFFFFF AND PUSH20 0xFFFFFFFFFFFFFFFFFFFFFFFFFFFFFFFFFFFFFFFF AND CALLER PUSH20 0xFFFFFFFFFFFFFFFFFFFFFFFFFFFFFFFFFFFFFFFF AND EQ PUSH2 0xBDB JUMPI PUSH1 0x40 MLOAD PUSH32 0x8C379A000000000000000000000000000000000000000000000000000000000 DUP2 MSTORE PUSH1 0x4 ADD PUSH2 0xBD2 SWAP1 PUSH2 0x1C92 JUMP JUMPDEST PUSH1 0x40 MLOAD DUP1 SWAP2 SUB SWAP1 REVERT JUMPDEST PUSH1 0x1 PUSH1 0x5 PUSH1 0x0 PUSH2 0x100 EXP DUP2 SLOAD DUP2 PUSH1 0xFF MUL NOT AND SWAP1 DUP4 ISZERO ISZERO MUL OR SWAP1 SSTORE POP DUP1 PUSH1 0x4 SWAP1 DUP1 MLOAD SWAP1 PUSH1 0x20 ADD SWAP1 PUSH2 0xC0C SWAP3 SWAP2 SWAP1 PUSH2 0x155B JUMP JUMPDEST POP POP JUMP JUMPDEST PUSH1 0x0 DUP1 PUSH20 0xFFFFFFFFFFFFFFFFFFFFFFFFFFFFFFFFFFFFFFFF AND DUP4 PUSH20 0xFFFFFFFFFFFFFFFFFFFFFFFFFFFFFFFFFFFFFFFF AND EQ ISZERO PUSH2 0xC4B JUMPI PUSH1 0x0 DUP1 REVERT JUMPDEST PUSH2 0xCDA DUP3 PUSH1 0x2 PUSH1 0x0 CALLER PUSH20 0xFFFFFFFFFFFFFFFFFFFFFFFFFFFFFFFFFFFFFFFF AND PUSH20 0xFFFFFFFFFFFFFFFFFFFFFFFFFFFFFFFFFFFFFFFF AND DUP2 MSTORE PUSH1 0x20 ADD SWAP1 DUP2 MSTORE PUSH1 0x20 ADD PUSH1 0x0 KECCAK256 PUSH1 0x0 DUP7 PUSH20 0xFFFFFFFFFFFFFFFFFFFFFFFFFFFFFFFFFFFFFFFF AND PUSH20 0xFFFFFFFFFFFFFFFFFFFFFFFFFFFFFFFFFFFFFFFF AND DUP2 MSTORE PUSH1 0x20 ADD SWAP1 DUP2 MSTORE PUSH1 0x20 ADD PUSH1 0x0 KECCAK256 SLOAD PUSH2 0x1315 SWAP1 SWAP2 SWAP1 PUSH4 0xFFFFFFFF AND JUMP JUMPDEST PUSH1 0x2 PUSH1 0x0 CALLER PUSH20 0xFFFFFFFFFFFFFFFFFFFFFFFFFFFFFFFFFFFFFFFF AND PUSH20 0xFFFFFFFFFFFFFFFFFFFFFFFFFFFFFFFFFFFFFFFF AND DUP2 MSTORE PUSH1 0x20 ADD SWAP1 DUP2 MSTORE PUSH1 0x20 ADD PUSH1 0x0 KECCAK256 PUSH1 0x0 DUP6 PUSH20 0xFFFFFFFFFFFFFFFFFFFFFFFFFFFFFFFFFFFFFFFF AND PUSH20 0xFFFFFFFFFFFFFFFFFFFFFFFFFFFFFFFFFFFFFFFF AND DUP2 MSTORE PUSH1 0x20 ADD SWAP1 DUP2 MSTORE PUSH1 0x20 ADD PUSH1 0x0 KECCAK256 DUP2 SWAP1 SSTORE POP DUP3 PUSH20 0xFFFFFFFFFFFFFFFFFFFFFFFFFFFFFFFFFFFFFFFF AND CALLER PUSH20 0xFFFFFFFFFFFFFFFFFFFFFFFFFFFFFFFFFFFFFFFF AND PUSH32 0x8C5BE1E5EBEC7D5BD14F71427D1E84F3DD0314C0F7B2291E5B200AC8C7C3B925 PUSH1 0x2 PUSH1 0x0 CALLER PUSH20 0xFFFFFFFFFFFFFFFFFFFFFFFFFFFFFFFFFFFFFFFF AND PUSH20 0xFFFFFFFFFFFFFFFFFFFFFFFFFFFFFFFFFFFFFFFF AND DUP2 MSTORE PUSH1 0x20 ADD SWAP1 DUP2 MSTORE PUSH1 0x20 ADD PUSH1 0x0 KECCAK256 PUSH1 0x0 DUP8 PUSH20 0xFFFFFFFFFFFFFFFFFFFFFFFFFFFFFFFFFFFFFFFF AND PUSH20 0xFFFFFFFFFFFFFFFFFFFFFFFFFFFFFFFFFFFFFFFF AND DUP2 MSTORE PUSH1 0x20 ADD SWAP1 DUP2 MSTORE PUSH1 0x20 ADD PUSH1 0x0 KECCAK256 SLOAD PUSH1 0x40 MLOAD PUSH2 0xE33 SWAP2 SWAP1 PUSH2 0x1873 JUMP JUMPDEST PUSH1 0x40 MLOAD DUP1 SWAP2 SUB SWAP1 LOG3 PUSH1 0x1 SWAP1 POP SWAP3 SWAP2 POP POP JUMP JUMPDEST PUSH1 0x0 PUSH1 0x1 PUSH1 0x0 CALLER PUSH20 0xFFFFFFFFFFFFFFFFFFFFFFFFFFFFFFFFFFFFFFFF AND PUSH20 0xFFFFFFFFFFFFFFFFFFFFFFFFFFFFFFFFFFFFFFFF AND DUP2 MSTORE PUSH1 0x20 ADD SWAP1 DUP2 MSTORE PUSH1 0x20 ADD PUSH1 0x0 KECCAK256 SLOAD DUP3 GT ISZERO PUSH2 0xE93 JUMPI PUSH1 0x0 DUP1 REVERT JUMPDEST PUSH1 0x0 PUSH20 0xFFFFFFFFFFFFFFFFFFFFFFFFFFFFFFFFFFFFFFFF AND DUP4 PUSH20 0xFFFFFFFFFFFFFFFFFFFFFFFFFFFFFFFFFFFFFFFF AND EQ ISZERO PUSH2 0xECD JUMPI PUSH1 0x0 DUP1 REVERT JUMPDEST PUSH2 0xF1F DUP3 PUSH1 0x1 PUSH1 0x0 CALLER PUSH20 0xFFFFFFFFFFFFFFFFFFFFFFFFFFFFFFFFFFFFFFFF AND PUSH20 0xFFFFFFFFFFFFFFFFFFFFFFFFFFFFFFFFFFFFFFFF AND DUP2 MSTORE PUSH1 0x20 ADD SWAP1 DUP2 MSTORE PUSH1 0x20 ADD PUSH1 0x0 KECCAK256 SLOAD PUSH2 0x1315 SWAP1 SWAP2 SWAP1 PUSH4 0xFFFFFFFF AND JUMP JUMPDEST PUSH1 0x1 PUSH1 0x0 CALLER PUSH20 0xFFFFFFFFFFFFFFFFFFFFFFFFFFFFFFFFFFFFFFFF AND PUSH20 0xFFFFFFFFFFFFFFFFFFFFFFFFFFFFFFFFFFFFFFFF AND DUP2 MSTORE PUSH1 0x20 ADD SWAP1 DUP2 MSTORE PUSH1 0x20 ADD PUSH1 0x0 KECCAK256 DUP2 SWAP1 SSTORE POP PUSH2 0xFB4 DUP3 PUSH1 0x1 PUSH1 0x0 DUP7 PUSH20 0xFFFFFFFFFFFFFFFFFFFFFFFFFFFFFFFFFFFFFFFF AND PUSH20 0xFFFFFFFFFFFFFFFFFFFFFFFFFFFFFFFFFFFFFFFF AND DUP2 MSTORE PUSH1 0x20 ADD SWAP1 DUP2 MSTORE PUSH1 0x20 ADD PUSH1 0x0 KECCAK256 SLOAD PUSH2 0x1502 SWAP1 SWAP2 SWAP1 PUSH4 0xFFFFFFFF AND JUMP JUMPDEST PUSH1 0x1 PUSH1 0x0 DUP6 PUSH20 0xFFFFFFFFFFFFFFFFFFFFFFFFFFFFFFFFFFFFFFFF AND PUSH20 0xFFFFFFFFFFFFFFFFFFFFFFFFFFFFFFFFFFFFFFFF AND DUP2 MSTORE PUSH1 0x20 ADD SWAP1 DUP2 MSTORE PUSH1 0x20 ADD PUSH1 0x0 KECCAK256 DUP2 SWAP1 SSTORE POP DUP3 PUSH20 0xFFFFFFFFFFFFFFFFFFFFFFFFFFFFFFFFFFFFFFFF AND CALLER PUSH20 0xFFFFFFFFFFFFFFFFFFFFFFFFFFFFFFFFFFFFFFFF AND PUSH32 0xDDF252AD1BE2C89B69C2B068FC378DAA952BA7F163C4A11628F55A4DF523B3EF DUP5 PUSH1 0x40 MLOAD PUSH2 0x1054 SWAP2 SWAP1 PUSH2 0x1873 JUMP JUMPDEST PUSH1 0x40 MLOAD DUP1 SWAP2 SUB SWAP1 LOG3 PUSH1 0x1 PUSH1 0x0 PUSH1 0x3 PUSH1 0x0 SWAP1 SLOAD SWAP1 PUSH2 0x100 EXP SWAP1 DIV PUSH20 0xFFFFFFFFFFFFFFFFFFFFFFFFFFFFFFFFFFFFFFFF AND PUSH20 0xFFFFFFFFFFFFFFFFFFFFFFFFFFFFFFFFFFFFFFFF AND PUSH20 0xFFFFFFFFFFFFFFFFFFFFFFFFFFFFFFFFFFFFFFFF AND DUP2 MSTORE PUSH1 0x20 ADD SWAP1 DUP2 MSTORE PUSH1 0x20 ADD PUSH1 0x0 KECCAK256 SLOAD PUSH1 0x1 PUSH1 0x0 CALLER PUSH20 0xFFFFFFFFFFFFFFFFFFFFFFFFFFFFFFFFFFFFFFFF AND PUSH20 0xFFFFFFFFFFFFFFFFFFFFFFFFFFFFFFFFFFFFFFFF AND DUP2 MSTORE PUSH1 0x20 ADD SWAP1 DUP2 MSTORE PUSH1 0x20 ADD PUSH1 0x0 KECCAK256 SLOAD GT ISZERO PUSH2 0x1146 JUMPI CALLER PUSH1 0x3 PUSH1 0x0 PUSH2 0x100 EXP DUP2 SLOAD DUP2 PUSH20 0xFFFFFFFFFFFFFFFFFFFFFFFFFFFFFFFFFFFFFFFF MUL NOT AND SWAP1 DUP4 PUSH20 0xFFFFFFFFFFFFFFFFFFFFFFFFFFFFFFFFFFFFFFFF AND MUL OR SWAP1 SSTORE POP JUMPDEST PUSH1 0x1 SWAP1 POP SWAP3 SWAP2 POP POP JUMP JUMPDEST PUSH1 0x0 PUSH1 0x2 PUSH1 0x0 DUP5 PUSH20 0xFFFFFFFFFFFFFFFFFFFFFFFFFFFFFFFFFFFFFFFF AND PUSH20 0xFFFFFFFFFFFFFFFFFFFFFFFFFFFFFFFFFFFFFFFF AND DUP2 MSTORE PUSH1 0x20 ADD SWAP1 DUP2 MSTORE PUSH1 0x20 ADD PUSH1 0x0 KECCAK256 PUSH1 0x0 DUP4 PUSH20 0xFFFFFFFFFFFFFFFFFFFFFFFFFFFFFFFFFFFFFFFF AND PUSH20 0xFFFFFFFFFFFFFFFFFFFFFFFFFFFFFFFFFFFFFFFF AND DUP2 MSTORE PUSH1 0x20 ADD SWAP1 DUP2 MSTORE PUSH1 0x20 ADD PUSH1 0x0 KECCAK256 SLOAD SWAP1 POP SWAP3 SWAP2 POP POP JUMP JUMPDEST PUSH1 0x3 PUSH1 0x0 SWAP1 SLOAD SWAP1 PUSH2 0x100 EXP SWAP1 DIV PUSH20 0xFFFFFFFFFFFFFFFFFFFFFFFFFFFFFFFFFFFFFFFF AND PUSH20 0xFFFFFFFFFFFFFFFFFFFFFFFFFFFFFFFFFFFFFFFF AND CALLER PUSH20 0xFFFFFFFFFFFFFFFFFFFFFFFFFFFFFFFFFFFFFFFF AND EQ PUSH2 0x1267 JUMPI PUSH1 0x40 MLOAD PUSH32 0x8C379A000000000000000000000000000000000000000000000000000000000 DUP2 MSTORE PUSH1 0x4 ADD PUSH2 0x125E SWAP1 PUSH2 0x1D24 JUMP JUMPDEST PUSH1 0x40 MLOAD DUP1 SWAP2 SUB SWAP1 REVERT JUMPDEST PUSH1 0x5 PUSH1 0x0 SWAP1 SLOAD SWAP1 PUSH2 0x100 EXP SWAP1 DIV PUSH1 0xFF AND PUSH2 0x12B6 JUMPI PUSH1 0x40 MLOAD PUSH32 0x8C379A000000000000000000000000000000000000000000000000000000000 DUP2 MSTORE PUSH1 0x4 ADD PUSH2 0x12AD SWAP1 PUSH2 0x1DB6 JUMP JUMPDEST PUSH1 0x40 MLOAD DUP1 SWAP2 SUB SWAP1 REVERT JUMPDEST PUSH1 0x4 PUSH1 0x0 SWAP1 DUP1 SLOAD PUSH2 0x12C6 SWAP1 PUSH2 0x1B5C JUMP JUMPDEST PUSH2 0x12D1 SWAP3 SWAP2 SWAP1 PUSH2 0x15E1 JUMP JUMPDEST POP PUSH1 0x40 MLOAD DUP1 PUSH1 0x20 ADD PUSH1 0x40 MSTORE DUP1 PUSH1 0x0 DUP2 MSTORE POP PUSH1 0x4 SWAP1 DUP1 MLOAD SWAP1 PUSH1 0x20 ADD SWAP1 PUSH2 0x12F7 SWAP3 SWAP2 SWAP1 PUSH2 0x155B JUMP JUMPDEST POP PUSH1 0x0 PUSH1 0x5 PUSH1 0x0 PUSH2 0x100 EXP DUP2 SLOAD DUP2 PUSH1 0xFF MUL NOT AND SWAP1 DUP4 ISZERO ISZERO MUL OR SWAP1 SSTORE POP JUMP JUMPDEST PUSH1 0x0 DUP3 DUP3 DUP5 PUSH2 0x1324 SWAP2 SWAP1 PUSH2 0x1E05 JUMP JUMPDEST SWAP2 POP DUP2 GT ISZERO PUSH2 0x1368 JUMPI PUSH1 0x40 MLOAD PUSH32 0x8C379A000000000000000000000000000000000000000000000000000000000 DUP2 MSTORE PUSH1 0x4 ADD PUSH2 0x135F SWAP1 PUSH2 0x1E85 JUMP JUMPDEST PUSH1 0x40 MLOAD DUP1 SWAP2 SUB SWAP1 REVERT JUMPDEST SWAP3 SWAP2 POP POP JUMP JUMPDEST PUSH2 0x13C0 DUP2 PUSH1 0x1 PUSH1 0x0 DUP7 PUSH20 0xFFFFFFFFFFFFFFFFFFFFFFFFFFFFFFFFFFFFFFFF AND PUSH20 0xFFFFFFFFFFFFFFFFFFFFFFFFFFFFFFFFFFFFFFFF AND DUP2 MSTORE PUSH1 0x20 ADD SWAP1 DUP2 MSTORE PUSH1 0x20 ADD PUSH1 0x0 KECCAK256 SLOAD PUSH2 0x1315 SWAP1 SWAP2 SWAP1 PUSH4 0xFFFFFFFF AND JUMP JUMPDEST PUSH1 0x1 PUSH1 0x0 DUP6 PUSH20 0xFFFFFFFFFFFFFFFFFFFFFFFFFFFFFFFFFFFFFFFF AND PUSH20 0xFFFFFFFFFFFFFFFFFFFFFFFFFFFFFFFFFFFFFFFF AND DUP2 MSTORE PUSH1 0x20 ADD SWAP1 DUP2 MSTORE PUSH1 0x20 ADD PUSH1 0x0 KECCAK256 DUP2 SWAP1 SSTORE POP PUSH2 0x1455 DUP2 PUSH1 0x1 PUSH1 0x0 DUP6 PUSH20 0xFFFFFFFFFFFFFFFFFFFFFFFFFFFFFFFFFFFFFFFF AND PUSH20 0xFFFFFFFFFFFFFFFFFFFFFFFFFFFFFFFFFFFFFFFF AND DUP2 MSTORE PUSH1 0x20 ADD SWAP1 DUP2 MSTORE PUSH1 0x20 ADD PUSH1 0x0 KECCAK256 SLOAD PUSH2 0x1502 SWAP1 SWAP2 SWAP1 PUSH4 0xFFFFFFFF AND JUMP JUMPDEST PUSH1 0x1 PUSH1 0x0 DUP5 PUSH20 0xFFFFFFFFFFFFFFFFFFFFFFFFFFFFFFFFFFFFFFFF AND PUSH20 0xFFFFFFFFFFFFFFFFFFFFFFFFFFFFFFFFFFFFFFFF AND DUP2 MSTORE PUSH1 0x20 ADD SWAP1 DUP2 MSTORE PUSH1 0x20 ADD PUSH1 0x0 KECCAK256 DUP2 SWAP1 SSTORE POP DUP2 PUSH20 0xFFFFFFFFFFFFFFFFFFFFFFFFFFFFFFFFFFFFFFFF AND DUP4 PUSH20 0xFFFFFFFFFFFFFFFFFFFFFFFFFFFFFFFFFFFFFFFF AND PUSH32 0xDDF252AD1BE2C89B69C2B068FC378DAA952BA7F163C4A11628F55A4DF523B3EF DUP4 PUSH1 0x40 MLOAD PUSH2 0x14F5 SWAP2 SWAP1 PUSH2 0x1873 JUMP JUMPDEST PUSH1 0x40 MLOAD DUP1 SWAP2 SUB SWAP1 LOG3 POP POP POP JUMP JUMPDEST PUSH1 0x0 DUP3 DUP3 DUP5 PUSH2 0x1511 SWAP2 SWAP1 PUSH2 0x1EA5 JUMP JUMPDEST SWAP2 POP DUP2 LT ISZERO PUSH2 0x1555 JUMPI PUSH1 0x40 MLOAD PUSH32 0x8C379A000000000000000000000000000000000000000000000000000000000 DUP2 MSTORE PUSH1 0x4 ADD PUSH2 0x154C SWAP1 PUSH2 0x1F47 JUMP JUMPDEST PUSH1 0x40 MLOAD DUP1 SWAP2 SUB SWAP1 REVERT JUMPDEST SWAP3 SWAP2 POP POP JUMP JUMPDEST DUP3 DUP1 SLOAD PUSH2 0x1567 SWAP1 PUSH2 0x1B5C JUMP JUMPDEST SWAP1 PUSH1 0x0 MSTORE PUSH1 0x20 PUSH1 0x0 KECCAK256 SWAP1 PUSH1 0x1F ADD PUSH1 0x20 SWAP1 DIV DUP2 ADD SWAP3 DUP3 PUSH2 0x1589 JUMPI PUSH1 0x0 DUP6 SSTORE PUSH2 0x15D0 JUMP JUMPDEST DUP3 PUSH1 0x1F LT PUSH2 0x15A2 JUMPI DUP1 MLOAD PUSH1 0xFF NOT AND DUP4 DUP1 ADD OR DUP6 SSTORE PUSH2 0x15D0 JUMP JUMPDEST DUP3 DUP1 ADD PUSH1 0x1 ADD DUP6 SSTORE DUP3 ISZERO PUSH2 0x15D0 JUMPI SWAP2 DUP3 ADD JUMPDEST DUP3 DUP2 GT ISZERO PUSH2 0x15CF JUMPI DUP3 MLOAD DUP3 SSTORE SWAP2 PUSH1 0x20 ADD SWAP2 SWAP1 PUSH1 0x1 ADD SWAP1 PUSH2 0x15B4 JUMP JUMPDEST JUMPDEST POP SWAP1 POP PUSH2 0x15DD SWAP2 SWAP1 PUSH2 0x166E JUMP JUMPDEST POP SWAP1 JUMP JUMPDEST DUP3 DUP1 SLOAD PUSH2 0x15ED SWAP1 PUSH2 0x1B5C JUMP JUMPDEST SWAP1 PUSH1 0x0 MSTORE PUSH1 0x20 PUSH1 0x0 KECCAK256 SWAP1 PUSH1 0x1F ADD PUSH1 0x20 SWAP1 DIV DUP2 ADD SWAP3 DUP3 PUSH2 0x160F JUMPI PUSH1 0x0 DUP6 SSTORE PUSH2 0x165D JUMP JUMPDEST DUP3 PUSH1 0x1F LT PUSH2 0x1620 JUMPI DUP1 SLOAD DUP6 SSTORE PUSH2 0x165D JUMP JUMPDEST DUP3 DUP1 ADD PUSH1 0x1 ADD DUP6 SSTORE DUP3 ISZERO PUSH2 0x165D JUMPI PUSH1 0x0 MSTORE PUSH1 0x20 PUSH1 0x0 KECCAK256 SWAP2 PUSH1 0x1F ADD PUSH1 0x20 SWAP1 DIV DUP3 ADD JUMPDEST DUP3 DUP2 GT ISZERO PUSH2 0x165C JUMPI DUP3 SLOAD DUP3 SSTORE SWAP2 PUSH1 0x1 ADD SWAP2 SWAP1 PUSH1 0x1 ADD SWAP1 PUSH2 0x1641 JUMP JUMPDEST JUMPDEST POP SWAP1 POP PUSH2 0x166A SWAP2 SWAP1 PUSH2 0x166E JUMP JUMPDEST POP SWAP1 JUMP JUMPDEST JUMPDEST DUP1 DUP3 GT ISZERO PUSH2 0x1687 JUMPI PUSH1 0x0 DUP2 PUSH1 0x0 SWAP1 SSTORE POP PUSH1 0x1 ADD PUSH2 0x166F JUMP JUMPDEST POP SWAP1 JUMP JUMPDEST PUSH1 0x0 DUP2 MLOAD SWAP1 POP SWAP2 SWAP1 POP JUMP JUMPDEST PUSH1 0x0 DUP3 DUP3 MSTORE PUSH1 0x20 DUP3 ADD SWAP1 POP SWAP3 SWAP2 POP POP JUMP JUMPDEST PUSH1 0x0 JUMPDEST DUP4 DUP2 LT ISZERO PUSH2 0x16C5 JUMPI DUP1 DUP3 ADD MLOAD DUP2 DUP5 ADD MSTORE PUSH1 0x20 DUP2 ADD SWAP1 POP PUSH2 0x16AA JUMP JUMPDEST DUP4 DUP2 GT ISZERO PUSH2 0x16D4 JUMPI PUSH1 0x0 DUP5 DUP5 ADD MSTORE JUMPDEST POP POP POP POP JUMP JUMPDEST PUSH1 0x0 PUSH1 0x1F NOT PUSH1 0x1F DUP4 ADD AND SWAP1 POP SWAP2 SWAP1 POP JUMP JUMPDEST PUSH1 0x0 PUSH2 0x16F6 DUP3 PUSH2 0x168B JUMP JUMPDEST PUSH2 0x1700 DUP2 DUP6 PUSH2 0x1696 JUMP JUMPDEST SWAP4 POP PUSH2 0x1710 DUP2 DUP6 PUSH1 0x20 DUP7 ADD PUSH2 0x16A7 JUMP JUMPDEST PUSH2 0x1719 DUP2 PUSH2 0x16DA JUMP JUMPDEST DUP5 ADD SWAP2 POP POP SWAP3 SWAP2 POP POP JUMP JUMPDEST PUSH1 0x0 PUSH1 0x20 DUP3 ADD SWAP1 POP DUP2 DUP2 SUB PUSH1 0x0 DUP4 ADD MSTORE PUSH2 0x173E DUP2 DUP5 PUSH2 0x16EB JUMP JUMPDEST SWAP1 POP SWAP3 SWAP2 POP POP JUMP JUMPDEST PUSH1 0x0 PUSH1 0x40 MLOAD SWAP1 POP SWAP1 JUMP JUMPDEST PUSH1 0x0 DUP1 REVERT JUMPDEST PUSH1 0x0 DUP1 REVERT JUMPDEST PUSH1 0x0 PUSH20 0xFFFFFFFFFFFFFFFFFFFFFFFFFFFFFFFFFFFFFFFF DUP3 AND SWAP1 POP SWAP2 SWAP1 POP JUMP JUMPDEST PUSH1 0x0 PUSH2 0x1785 DUP3 PUSH2 0x175A JUMP JUMPDEST SWAP1 POP SWAP2 SWAP1 POP JUMP JUMPDEST PUSH2 0x1795 DUP2 PUSH2 0x177A JUMP JUMPDEST DUP2 EQ PUSH2 0x17A0 JUMPI PUSH1 0x0 DUP1 REVERT JUMPDEST POP JUMP JUMPDEST PUSH1 0x0 DUP2 CALLDATALOAD SWAP1 POP PUSH2 0x17B2 DUP2 PUSH2 0x178C JUMP JUMPDEST SWAP3 SWAP2 POP POP JUMP JUMPDEST PUSH1 0x0 DUP2 SWAP1 POP SWAP2 SWAP1 POP JUMP JUMPDEST PUSH2 0x17CB DUP2 PUSH2 0x17B8 JUMP JUMPDEST DUP2 EQ PUSH2 0x17D6 JUMPI PUSH1 0x0 DUP1 REVERT JUMPDEST POP JUMP JUMPDEST PUSH1 0x0 DUP2 CALLDATALOAD SWAP1 POP PUSH2 0x17E8 DUP2 PUSH2 0x17C2 JUMP JUMPDEST SWAP3 SWAP2 POP POP JUMP JUMPDEST PUSH1 0x0 DUP1 PUSH1 0x40 DUP4 DUP6 SUB SLT ISZERO PUSH2 0x1805 JUMPI PUSH2 0x1804 PUSH2 0x1750 JUMP JUMPDEST JUMPDEST PUSH1 0x0 PUSH2 0x1813 DUP6 DUP3 DUP7 ADD PUSH2 0x17A3 JUMP JUMPDEST SWAP3 POP POP PUSH1 0x20 PUSH2 0x1824 DUP6 DUP3 DUP7 ADD PUSH2 0x17D9 JUMP JUMPDEST SWAP2 POP POP SWAP3 POP SWAP3 SWAP1 POP JUMP JUMPDEST PUSH1 0x0 DUP2 ISZERO ISZERO SWAP1 POP SWAP2 SWAP1 POP JUMP JUMPDEST PUSH2 0x1843 DUP2 PUSH2 0x182E JUMP JUMPDEST DUP3 MSTORE POP POP JUMP JUMPDEST PUSH1 0x0 PUSH1 0x20 DUP3 ADD SWAP1 POP PUSH2 0x185E PUSH1 0x0 DUP4 ADD DUP5 PUSH2 0x183A JUMP JUMPDEST SWAP3 SWAP2 POP POP JUMP JUMPDEST PUSH2 0x186D DUP2 PUSH2 0x17B8 JUMP JUMPDEST DUP3 MSTORE POP POP JUMP JUMPDEST PUSH1 0x0 PUSH1 0x20 DUP3 ADD SWAP1 POP PUSH2 0x1888 PUSH1 0x0 DUP4 ADD DUP5 PUSH2 0x1864 JUMP JUMPDEST SWAP3 SWAP2 POP POP JUMP JUMPDEST PUSH1 0x0 DUP1 PUSH1 0x0 PUSH1 0x60 DUP5 DUP7 SUB SLT ISZERO PUSH2 0x18A7 JUMPI PUSH2 0x18A6 PUSH2 0x1750 JUMP JUMPDEST JUMPDEST PUSH1 0x0 PUSH2 0x18B5 DUP7 DUP3 DUP8 ADD PUSH2 0x17A3 JUMP JUMPDEST SWAP4 POP POP PUSH1 0x20 PUSH2 0x18C6 DUP7 DUP3 DUP8 ADD PUSH2 0x17A3 JUMP JUMPDEST SWAP3 POP POP PUSH1 0x40 PUSH2 0x18D7 DUP7 DUP3 DUP8 ADD PUSH2 0x17D9 JUMP JUMPDEST SWAP2 POP POP SWAP3 POP SWAP3 POP SWAP3 JUMP JUMPDEST PUSH1 0x0 PUSH1 0xFF DUP3 AND SWAP1 POP SWAP2 SWAP1 POP JUMP JUMPDEST PUSH2 0x18F7 DUP2 PUSH2 0x18E1 JUMP JUMPDEST DUP3 MSTORE POP POP JUMP JUMPDEST PUSH1 0x0 PUSH1 0x20 DUP3 ADD SWAP1 POP PUSH2 0x1912 PUSH1 0x0 DUP4 ADD DUP5 PUSH2 0x18EE JUMP JUMPDEST SWAP3 SWAP2 POP POP JUMP JUMPDEST PUSH1 0x0 PUSH1 0x20 DUP3 DUP5 SUB SLT ISZERO PUSH2 0x192E JUMPI PUSH2 0x192D PUSH2 0x1750 JUMP JUMPDEST JUMPDEST PUSH1 0x0 PUSH2 0x193C DUP5 DUP3 DUP6 ADD PUSH2 0x17A3 JUMP JUMPDEST SWAP2 POP POP SWAP3 SWAP2 POP POP JUMP JUMPDEST PUSH2 0x194E DUP2 PUSH2 0x177A JUMP JUMPDEST DUP3 MSTORE POP POP JUMP JUMPDEST PUSH1 0x0 PUSH1 0x20 DUP3 ADD SWAP1 POP PUSH2 0x1969 PUSH1 0x0 DUP4 ADD DUP5 PUSH2 0x1945 JUMP JUMPDEST SWAP3 SWAP2 POP POP JUMP JUMPDEST PUSH1 0x0 DUP1 REVERT JUMPDEST PUSH1 0x0 DUP1 REVERT JUMPDEST PUSH32 0x4E487B7100000000000000000000000000000000000000000000000000000000 PUSH1 0x0 MSTORE PUSH1 0x41 PUSH1 0x4 MSTORE PUSH1 0x24 PUSH1 0x0 REVERT JUMPDEST PUSH2 0x19B1 DUP3 PUSH2 0x16DA JUMP JUMPDEST DUP2 ADD DUP2 DUP2 LT PUSH8 0xFFFFFFFFFFFFFFFF DUP3 GT OR ISZERO PUSH2 0x19D0 JUMPI PUSH2 0x19CF PUSH2 0x1979 JUMP JUMPDEST JUMPDEST DUP1 PUSH1 0x40 MSTORE POP POP POP JUMP JUMPDEST PUSH1 0x0 PUSH2 0x19E3 PUSH2 0x1746 JUMP JUMPDEST SWAP1 POP PUSH2 0x19EF DUP3 DUP3 PUSH2 0x19A8 JUMP JUMPDEST SWAP2 SWAP1 POP JUMP JUMPDEST PUSH1 0x0 PUSH8 0xFFFFFFFFFFFFFFFF DUP3 GT ISZERO PUSH2 0x1A0F JUMPI PUSH2 0x1A0E PUSH2 0x1979 JUMP JUMPDEST JUMPDEST PUSH2 0x1A18 DUP3 PUSH2 0x16DA JUMP JUMPDEST SWAP1 POP PUSH1 0x20 DUP2 ADD SWAP1 POP SWAP2 SWAP1 POP JUMP JUMPDEST DUP3 DUP2 DUP4 CALLDATACOPY PUSH1 0x0 DUP4 DUP4 ADD MSTORE POP POP POP JUMP JUMPDEST PUSH1 0x0 PUSH2 0x1A47 PUSH2 0x1A42 DUP5 PUSH2 0x19F4 JUMP JUMPDEST PUSH2 0x19D9 JUMP JUMPDEST SWAP1 POP DUP3 DUP2 MSTORE PUSH1 0x20 DUP2 ADD DUP5 DUP5 DUP5 ADD GT ISZERO PUSH2 0x1A63 JUMPI PUSH2 0x1A62 PUSH2 0x1974 JUMP JUMPDEST JUMPDEST PUSH2 0x1A6E DUP5 DUP3 DUP6 PUSH2 0x1A25 JUMP JUMPDEST POP SWAP4 SWAP3 POP POP POP JUMP JUMPDEST PUSH1 0x0 DUP3 PUSH1 0x1F DUP4 ADD SLT PUSH2 0x1A8B JUMPI PUSH2 0x1A8A PUSH2 0x196F JUMP JUMPDEST JUMPDEST DUP2 CALLDATALOAD PUSH2 0x1A9B DUP5 DUP3 PUSH1 0x20 DUP7 ADD PUSH2 0x1A34 JUMP JUMPDEST SWAP2 POP POP SWAP3 SWAP2 POP POP JUMP JUMPDEST PUSH1 0x0 PUSH1 0x20 DUP3 DUP5 SUB SLT ISZERO PUSH2 0x1ABA JUMPI PUSH2 0x1AB9 PUSH2 0x1750 JUMP JUMPDEST JUMPDEST PUSH1 0x0 DUP3 ADD CALLDATALOAD PUSH8 0xFFFFFFFFFFFFFFFF DUP2 GT ISZERO PUSH2 0x1AD8 JUMPI PUSH2 0x1AD7 PUSH2 0x1755 JUMP JUMPDEST JUMPDEST PUSH2 0x1AE4 DUP5 DUP3 DUP6 ADD PUSH2 0x1A76 JUMP JUMPDEST SWAP2 POP POP SWAP3 SWAP2 POP POP JUMP JUMPDEST PUSH1 0x0 DUP1 PUSH1 0x40 DUP4 DUP6 SUB SLT ISZERO PUSH2 0x1B04 JUMPI PUSH2 0x1B03 PUSH2 0x1750 JUMP JUMPDEST JUMPDEST PUSH1 0x0 PUSH2 0x1B12 DUP6 DUP3 DUP7 ADD PUSH2 0x17A3 JUMP JUMPDEST SWAP3 POP POP PUSH1 0x20 PUSH2 0x1B23 DUP6 DUP3 DUP7 ADD PUSH2 0x17A3 JUMP JUMPDEST SWAP2 POP POP SWAP3 POP SWAP3 SWAP1 POP JUMP JUMPDEST PUSH32 0x4E487B7100000000000000000000000000000000000000000000000000000000 PUSH1 0x0 MSTORE PUSH1 0x22 PUSH1 0x4 MSTORE PUSH1 0x24 PUSH1 0x0 REVERT JUMPDEST PUSH1 0x0 PUSH1 0x2 DUP3 DIV SWAP1 POP PUSH1 0x1 DUP3 AND DUP1 PUSH2 0x1B74 JUMPI PUSH1 0x7F DUP3 AND SWAP2 POP JUMPDEST PUSH1 0x20 DUP3 LT DUP2 EQ ISZERO PUSH2 0x1B88 JUMPI PUSH2 0x1B87 PUSH2 0x1B2D JUMP JUMPDEST JUMPDEST POP SWAP2 SWAP1 POP JUMP JUMPDEST PUSH32 0x412072656E616D696E672070726F6365737320697320616C726561647920696E PUSH1 0x0 DUP3 ADD MSTORE PUSH32 0x2070726F67726573732E00000000000000000000000000000000000000000000 PUSH1 0x20 DUP3 ADD MSTORE POP JUMP JUMPDEST PUSH1 0x0 PUSH2 0x1BEA PUSH1 0x2A DUP4 PUSH2 0x1696 JUMP JUMPDEST SWAP2 POP PUSH2 0x1BF5 DUP3 PUSH2 0x1B8E JUMP JUMPDEST PUSH1 0x40 DUP3 ADD SWAP1 POP SWAP2 SWAP1 POP JUMP JUMPDEST PUSH1 0x0 PUSH1 0x20 DUP3 ADD SWAP1 POP DUP2 DUP2 SUB PUSH1 0x0 DUP4 ADD MSTORE PUSH2 0x1C19 DUP2 PUSH2 0x1BDD JUMP JUMPDEST SWAP1 POP SWAP2 SWAP1 POP JUMP JUMPDEST PUSH32 0x4F6E6C7920746865206F776E65722063616E20696E6974696174652072656E61 PUSH1 0x0 DUP3 ADD MSTORE PUSH32 0x6D696E672E000000000000000000000000000000000000000000000000000000 PUSH1 0x20 DUP3 ADD MSTORE POP JUMP JUMPDEST PUSH1 0x0 PUSH2 0x1C7C PUSH1 0x25 DUP4 PUSH2 0x1696 JUMP JUMPDEST SWAP2 POP PUSH2 0x1C87 DUP3 PUSH2 0x1C20 JUMP JUMPDEST PUSH1 0x40 DUP3 ADD SWAP1 POP SWAP2 SWAP1 POP JUMP JUMPDEST PUSH1 0x0 PUSH1 0x20 DUP3 ADD SWAP1 POP DUP2 DUP2 SUB PUSH1 0x0 DUP4 ADD MSTORE PUSH2 0x1CAB DUP2 PUSH2 0x1C6F JUMP JUMPDEST SWAP1 POP SWAP2 SWAP1 POP JUMP JUMPDEST PUSH32 0x4F6E6C7920746865206F776E65722063616E20636F6E6669726D2072656E616D PUSH1 0x0 DUP3 ADD MSTORE PUSH32 0x696E672E00000000000000000000000000000000000000000000000000000000 PUSH1 0x20 DUP3 ADD MSTORE POP JUMP JUMPDEST PUSH1 0x0 PUSH2 0x1D0E PUSH1 0x24 DUP4 PUSH2 0x1696 JUMP JUMPDEST SWAP2 POP PUSH2 0x1D19 DUP3 PUSH2 0x1CB2 JUMP JUMPDEST PUSH1 0x40 DUP3 ADD SWAP1 POP SWAP2 SWAP1 POP JUMP JUMPDEST PUSH1 0x0 PUSH1 0x20 DUP3 ADD SWAP1 POP DUP2 DUP2 SUB PUSH1 0x0 DUP4 ADD MSTORE PUSH2 0x1D3D DUP2 PUSH2 0x1D01 JUMP JUMPDEST SWAP1 POP SWAP2 SWAP1 POP JUMP JUMPDEST PUSH32 0x4E6F2072656E616D696E672070726F6365737320697320696E2070726F677265 PUSH1 0x0 DUP3 ADD MSTORE PUSH32 0x73732E0000000000000000000000000000000000000000000000000000000000 PUSH1 0x20 DUP3 ADD MSTORE POP JUMP JUMPDEST PUSH1 0x0 PUSH2 0x1DA0 PUSH1 0x23 DUP4 PUSH2 0x1696 JUMP JUMPDEST SWAP2 POP PUSH2 0x1DAB DUP3 PUSH2 0x1D44 JUMP JUMPDEST PUSH1 0x40 DUP3 ADD SWAP1 POP SWAP2 SWAP1 POP JUMP JUMPDEST PUSH1 0x0 PUSH1 0x20 DUP3 ADD SWAP1 POP DUP2 DUP2 SUB PUSH1 0x0 DUP4 ADD MSTORE PUSH2 0x1DCF DUP2 PUSH2 0x1D93 JUMP JUMPDEST SWAP1 POP SWAP2 SWAP1 POP JUMP JUMPDEST PUSH32 0x4E487B7100000000000000000000000000000000000000000000000000000000 PUSH1 0x0 MSTORE PUSH1 0x11 PUSH1 0x4 MSTORE PUSH1 0x24 PUSH1 0x0 REVERT JUMPDEST PUSH1 0x0 PUSH2 0x1E10 DUP3 PUSH2 0x17B8 JUMP JUMPDEST SWAP2 POP PUSH2 0x1E1B DUP4 PUSH2 0x17B8 JUMP JUMPDEST SWAP3 POP DUP3 DUP3 LT ISZERO PUSH2 0x1E2E JUMPI PUSH2 0x1E2D PUSH2 0x1DD6 JUMP JUMPDEST JUMPDEST DUP3 DUP3 SUB SWAP1 POP SWAP3 SWAP2 POP POP JUMP JUMPDEST PUSH32 0x64732D6D6174682D7375622D756E646572666C6F770000000000000000000000 PUSH1 0x0 DUP3 ADD MSTORE POP JUMP JUMPDEST PUSH1 0x0 PUSH2 0x1E6F PUSH1 0x15 DUP4 PUSH2 0x1696 JUMP JUMPDEST SWAP2 POP PUSH2 0x1E7A DUP3 PUSH2 0x1E39 JUMP JUMPDEST PUSH1 0x20 DUP3 ADD SWAP1 POP SWAP2 SWAP1 POP JUMP JUMPDEST PUSH1 0x0 PUSH1 0x20 DUP3 ADD SWAP1 POP DUP2 DUP2 SUB PUSH1 0x0 DUP4 ADD MSTORE PUSH2 0x1E9E DUP2 PUSH2 0x1E62 JUMP JUMPDEST SWAP1 POP SWAP2 SWAP1 POP JUMP JUMPDEST PUSH1 0x0 PUSH2 0x1EB0 DUP3 PUSH2 0x17B8 JUMP JUMPDEST SWAP2 POP PUSH2 0x1EBB DUP4 PUSH2 0x17B8 JUMP JUMPDEST SWAP3 POP DUP3 PUSH32 0xFFFFFFFFFFFFFFFFFFFFFFFFFFFFFFFFFFFFFFFFFFFFFFFFFFFFFFFFFFFFFFFF SUB DUP3 GT ISZERO PUSH2 0x1EF0 JUMPI PUSH2 0x1EEF PUSH2 0x1DD6 JUMP JUMPDEST JUMPDEST DUP3 DUP3 ADD SWAP1 POP SWAP3 SWAP2 POP POP JUMP JUMPDEST PUSH32 0x64732D6D6174682D6164642D6F766572666C6F77000000000000000000000000 PUSH1 0x0 DUP3 ADD MSTORE POP JUMP JUMPDEST PUSH1 0x0 PUSH2 0x1F31 PUSH1 0x14 DUP4 PUSH2 0x1696 JUMP JUMPDEST SWAP2 POP PUSH2 0x1F3C DUP3 PUSH2 0x1EFB JUMP JUMPDEST PUSH1 0x20 DUP3 ADD SWAP1 POP SWAP2 SWAP1 POP JUMP JUMPDEST PUSH1 0x0 PUSH1 0x20 DUP3 ADD SWAP1 POP DUP2 DUP2 SUB PUSH1 0x0 DUP4 ADD MSTORE PUSH2 0x1F60 DUP2 PUSH2 0x1F24 JUMP JUMPDEST SWAP1 POP SWAP2 SWAP1 POP JUMP INVALID LOG2 PUSH5 0x6970667358 0x22 SLT KECCAK256 SWAP6 LOG2 CALL PUSH6 0x6C229314BC85 ISZERO SWAP1 COINBASE PUSH3 0xB083A4 DIV PUSH29 0x56C76C64B457B415A5A04EE21264736F6C634300080C00330000000000 "
				},
				"gasEstimates": {
					"creation": {
						"codeDepositCost": "1618600",
						"executionCost": "infinite",
						"totalCost": "infinite"
					},
					"external": {
						"_totalSupply()": "418",
						"allowance(address,address)": "infinite",
						"approve(address,uint256)": "infinite",
						"balanceOf(address)": "2864",
						"confirmRename()": "infinite",
						"decimals()": "380",
						"decreaseAllowance(address,uint256)": "infinite",
						"getOwner()": "2567",
						"increaseAllowance(address,uint256)": "infinite",
						"name()": "infinite",
						"renameToken(string)": "infinite",
						"symbol()": "infinite",
						"totalSupply()": "405",
						"transfer(address,uint256)": "infinite",
						"transferFrom(address,address,uint256)": "infinite"
					},
					"internal": {
						"_transfer(address,address,uint256)": "infinite"
					}
				},
				"methodIdentifiers": {
					"_totalSupply()": "3eaaf86b",
					"allowance(address,address)": "dd62ed3e",
					"approve(address,uint256)": "095ea7b3",
					"balanceOf(address)": "70a08231",
					"confirmRename()": "f8cf9419",
					"decimals()": "313ce567",
					"decreaseAllowance(address,uint256)": "a457c2d7",
					"getOwner()": "893d20e8",
					"increaseAllowance(address,uint256)": "39509351",
					"name()": "06fdde03",
					"renameToken(string)": "9a3ea2eb",
					"symbol()": "95d89b41",
					"totalSupply()": "18160ddd",
					"transfer(address,uint256)": "a9059cbb",
					"transferFrom(address,address,uint256)": "23b872dd"
				}
			},
			"storageLayout": {
				"storage": [
					{
						"astId": 16,
						"contract": "contracts/BuenzliToken.sol:BuenzliToken",
						"label": "name",
						"offset": 0,
						"slot": "0",
						"type": "t_string_storage"
					},
					{
						"astId": 26,
						"contract": "contracts/BuenzliToken.sol:BuenzliToken",
						"label": "_balances",
						"offset": 0,
						"slot": "1",
						"type": "t_mapping(t_address,t_uint256)"
					},
					{
						"astId": 32,
						"contract": "contracts/BuenzliToken.sol:BuenzliToken",
						"label": "_allowed",
						"offset": 0,
						"slot": "2",
						"type": "t_mapping(t_address,t_mapping(t_address,t_uint256))"
					},
					{
						"astId": 34,
						"contract": "contracts/BuenzliToken.sol:BuenzliToken",
						"label": "_owner",
						"offset": 0,
						"slot": "3",
						"type": "t_address"
					},
					{
						"astId": 36,
						"contract": "contracts/BuenzliToken.sol:BuenzliToken",
						"label": "_newName",
						"offset": 0,
						"slot": "4",
						"type": "t_string_storage"
					},
					{
						"astId": 38,
						"contract": "contracts/BuenzliToken.sol:BuenzliToken",
						"label": "_isRenaming",
						"offset": 0,
						"slot": "5",
						"type": "t_bool"
					}
				],
				"types": {
					"t_address": {
						"encoding": "inplace",
						"label": "address",
						"numberOfBytes": "20"
					},
					"t_bool": {
						"encoding": "inplace",
						"label": "bool",
						"numberOfBytes": "1"
					},
					"t_mapping(t_address,t_mapping(t_address,t_uint256))": {
						"encoding": "mapping",
						"key": "t_address",
						"label": "mapping(address => mapping(address => uint256))",
						"numberOfBytes": "32",
						"value": "t_mapping(t_address,t_uint256)"
					},
					"t_mapping(t_address,t_uint256)": {
						"encoding": "mapping",
						"key": "t_address",
						"label": "mapping(address => uint256)",
						"numberOfBytes": "32",
						"value": "t_uint256"
					},
					"t_string_storage": {
						"encoding": "bytes",
						"label": "string",
						"numberOfBytes": "32"
					},
					"t_uint256": {
						"encoding": "inplace",
						"label": "uint256",
						"numberOfBytes": "32"
					}
				}
			},
			"userdoc": {
				"kind": "user",
				"methods": {},
				"version": 1
			}
		}
	}
}